:100000000C943F010C9486010C9486010C9486019B
:100010000C9486010C9486010C9486010C94860144
:100020000C9486010C9486010C94A2200C947621E9
:100030000C94DE150C9486010C9486010C948601B8
:100040000C9486010C9486010C9486010C94860114
:100050000C9486010C9429160C9486010C9486014C
:100060000C9486010C9486010C9486010C948601F4
:100070000C9486010C9486010C9486010C948601E4
:100080000C9486010C9486010C9486010C948601D4
:100090000C9486010C9486010C9486010C948601C4
:1000A0000C9486010C9486010C94860101E00119E0
:1000B000021902E00001E00106020602E000AC4184
:1000C000AB00AE00AA005200A900500051004F0042
:1000D0002900AE00005C5F00590000303A003B0090
:1000E0000130040330000000240347006F00770054
:1000F0006C00610020004D006100630072006F0021
:10010000200042006F0061007200640000000C03D8
:1001100047006F0077006C006100000004030904D1
:1001200009029F00040100A0FA0904000001030174
:100130000100092111010001224000070581030887
:10014000000A090401000103000000092111010057
:1001500001226D000705820320000A080B0202013C
:10016000010000090402000001010000092401004F
:100170000109000103090403000201030000072430
:1001800001000141000624020101000624020202CE
:1001900000092403010301020100092403020401F0
:1001A00001010009050402400005000005250101C8
:1001B0000109058302400005000005250101031225
:1001C00001100100000008EDFE070001000102031C
:1001D0000105010980A101850319012AB700150154
:1001E00026B700950175108100C0050C0901A10119
:1001F000850419012AA002150126A0029501751097
:100200008100C005010906A1018505050719E0293E
:10021000E7150025019508750181020507190029D8
:10022000EF1500250195F0750181020508190129D6
:1002300005950575019102950175039101C00501B0
:100240000906A101050719E029E715002501950810
:10025000750181029501750881010507190029FFC3
:10026000150026FF0095067508810005081901296B
:1002700005950575019102950175039101C0112441
:100280001FBECFEFDAE0DEBFCDBF04B603FE27C04E
:100290008091660390916703A0916803B091690310
:1002A0008730904BA740B04BD1F410926603109268
:1002B0006703109268031092690314BE84B7877FA6
:1002C00084BF0FB6F894A8958091600088618093F0
:1002D0006000109260000FBEE0E0F8E3099511E0C5
:1002E000A0E0B1E0EEEBF7E402C005900D92A0397A
:1002F000B107D9F723E0A0E9B1E001C01D92A6360D
:10030000B207E1F70E947E1D0C94A8230C94000014
:100310000C94D404FC018281882321F0662329F007
:10032000613031F090E080E0089585EB90E0089531
:100330008CEA90E00895CF93DF939C013A952115C4
:100340003F4168F5EC01CC27D170DC01AA27B270DF
:10035000AC01442754709C012227387094FF11C0CF
:1003600080E1CD2B09F480E0AB2B09F08062452BB6
:1003700009F08064232B09F08068FB01DF91CF91A5
:10038000099481E0CD2B09F480E0AB2B09F0826069
:10039000452B09F08460232B81F38860EECFDF9139
:1003A000CF910895CF93DF93EC01805E9109089778
:1003B00020F063ED7DE0209711F468E77BE0CE014B
:1003C0000E949B018C2FDF91CF910C94F70ACF9361
:1003D000DF93EC010E943D0BCE01805E91090897EE
:1003E00020F06AED7DE0209711F46FE77BE0CE010D
:1003F000DF91CF910C949B01CF93DF93EC010E948E
:10040000D201CE01DF91CF910C94E70181E00895F4
:1004100081E008950C94080208950C940C021F9337
:10042000CF93DF9300D000D00F92CDB7DEB74983D2
:100430005A836B833091A10189819A8131111DC04A
:100440006623B9F02223A9F00E94DE12182F682F2C
:1004500089819A810E94891269817A81812F0F9006
:100460000F900F900F900F90DF91CF911F910C94F0
:10047000D2020E94B612182FEFCF0E94DE126981BD
:100480007A81EDCFFC01262F4081518162817381F9
:1004900084810C940F02CF93DF93EC0160E00E9403
:1004A0004202BE01DF91CF910C940D020E942514EF
:1004B000811102C00E94C7140E9427070C94880172
:1004C0000C94D604282F2F7041F0822F90E02A3010
:1004D00010F44D9608950697089587E290E00895E8
:1004E00008950C94700281E008950C947302CF93E8
:1004F000C82F0E9471028C2FCF910C947502089521
:100500000E94F30D0E947F022FEF84E39CE02150B4
:1005100080409040E1F700C000000C944D160F930E
:100520001F93CF93DF93EC0161E00E9442028C01A4
:10053000BE010E940A02882359F1BE01C8010E942F
:100540009E07882329F1BE01C8010E94290888233B
:10055000F9F0BE01C8010E946A088823C9F0BE01F3
:10056000C8010E948D09882399F08A81882339F077
:1005700001158CE5180751F00E3D1C4579F0CE01B0
:10058000DF91CF911F910F910C9406020E9480027F
:1005900080E0DF91CF911F910F9108950E94C714C1
:1005A000F7CF0895972F70E023E0929F600D711DA3
:1005B0001124FB0199E0899FE00DF11D1124EE0F3C
:1005C000FF1FE254FF4F859194910895FC01EE0FB7
:1005D000FF1FEE51FF4F859194910895CF93DF93C4
:1005E0000E94D2020E94FA03EC01811520E59207D5
:1005F00008F041C0811530E4930708F0B4C0803E94
:10060000910518F5803C910508F09DC0883A910548
:1006100070F4853A910508F08EC081309105F9F0AB
:100620000097E9F00497D8F4D0E0C0E018C08F3B01
:100630009105D0F7C85AD0E0CC0FDD1FC75EDE4F62
:100640000990D881C02DD4640AC08115904258F415
:10065000C11581E0D80718F4C83ED10528F7CE01AE
:10066000DF91CF910895C11590E3D90708F071C0CB
:10067000CE019F706AC0811525E5920758F5811556
:1006800034E5930708F09EC0811542E5940750F4C5
:10069000C11581E5D80708F469C0DC2FCC27C16FEC
:1006A000D06ADDCF982F969596959E0123703327BB
:1006B000C115D34508F077C0C1E0D0E002C0CC0F2F
:1006C000DD1F2A95E2F720E2929FC0011124C82B7A
:1006D000D92B67C0C11589E5D807A8F4C11598E5DD
:1006E000D90708F074C0C11526E5D20708F09CCFE1
:1006F0008C2F0E949104C82FD0E0DC2FCC27CC2770
:10070000DF71D062ACCFC1153AE5D30708F464C0FD
:10071000CE0190568115904208F086CF8D2F8F71B3
:100720000E94910490E0982F882788279F719C0150
:100730002C2BE901E6CFC55AD0E0C95BDE4FC8815A
:10074000D0E0D0648CCF805C91090E94E602EC017D
:1007500086CFCE019927D3FF03C0EC01D86C7FCFA1
:10076000EC01D06C7CCFDF70D06A79CFCE01E4E0B1
:1007700096958795EA95E1F783702C2F2695269517
:10078000237090E2299F90011124382B8C2F8370C5
:10079000C1E0D0E002C0CC0FDD1F8A95E2F7C22B8A
:1007A000D32BDC685CCFC1E0D0E002C0CC0FDD1FF2
:1007B0002A95E2F730E2939FC0011124C82BD92B70
:1007C000DA684DCFD82FCC27C46FD06A48CFDC2F42
:1007D000CC27C06FD06A43CF8C2F8F700E949104BA
:1007E00034E0D695C7953A95E1F7CF709C2FEC0190
:1007F000D06935CF82389105B1F1B0F481339105DC
:1008000009F475C048F48932910509F469C08A3247
:10081000910509F473C008958533910509F459C011
:100820008933910501F10895833E9105A9F138F4CA
:10083000803E9105F9F0823E910549F10895863E8A
:100840009105A9F1873E9105C9F1843E910519F5FD
:1008500020916B0221FF1FC080916A0284FD14C0A9
:1008600087EE90E0089520916A022370A1F080EE57
:1008700090E0089520916A0220FD47C030916B02FC
:1008800030FF09C024FF44C090E080E004C0209104
:100890006A0222FDF7CF089520916A0222FD3BC033
:1008A00030916B0230FDE3CF24FFF5CFEDCF2091E7
:1008B0006A0223FFF0CF24FDE7CFD2CF20916A0256
:1008C00023FD2CC030916B0231FFEECF84EE90E01F
:1008D000089520916A0225FFDECF89E290E0089515
:1008E00020916A0225FFD7CF85E390E008952091FB
:1008F0006A0226FFD0CF8AE290E0089520916A0232
:1009000026FFC9CF81E390E0089589E390E0089540
:1009100083EE90E0089582EE90E0089586EE90E0F8
:10092000089590916A0292FF06C0282F28712830FE
:10093000F9F4877F846093FF06C0282F287128313F
:10094000F1F4877E846120916B0220FF06C0382F6E
:1009500038713830D9F4877F816021FF06C0282F95
:1009600028712831D1F4877E816194FD877E0895B6
:10097000282F24712430F9F68B7F8860DCCF282F54
:100980002471243101F78B7E8861DDCF382F3171DE
:10099000313019F78E7F8860E0CF282F2171213107
:1009A00021F78E7E8861E1CF089508950C94D504D7
:1009B000E82FF0E0E25AFD4F80810895089580EA23
:1009C0008A95F1F70895CF93DF93AAE4B1E04DE45F
:1009D00051E0C1E0D0E08D91E82FE295EF70F0E0BA
:1009E00061A18F709E0101C0220F8A95EAF7922FB4
:1009F0009095962391A382A1822B82A34A175B072D
:100A000051F7ADE4B1E040E551E0C1E0D0E08D91B7
:100A1000E82FE295EF70F0E061A18F709E0101C0B8
:100A2000220F8A95EAF7922F9095962391A382A19F
:100A3000822B82A34A175B0751F710925B02109238
:100A40005E0210925C0210925F0210925D021092A0
:100A5000600283E00E94C005DF91CF910C945602A2
:100A60004F925F926F927F928F929F92AF92BF92BE
:100A7000CF92DF92EF92FF920F931F93CF93DF936A
:100A80009AE4C92E91E0D92E10E000E0712C882460
:100A90008394912C3EE5A32E32E0B32ED6018D91A6
:100AA0006D01C82FC295CF70D0E099A18F707401ED
:100AB00001C0EE0C8A95EAF7892F8E2989A38AA1B5
:100AC0006E2C609486218AA30E94DF049401002E7C
:100AD00001C0220F0A94EAF7622F2095EBE5F2E0BD
:100AE0008DE4482E81E0582E40E05191D2013D9195
:100AF0002D01832F82958F7090E0DC0190968C9170
:100B000090E03F7002C0959587953A95E2F7362FB1
:100B1000352B80FF02C0322F3523531729F0CF0128
:100B20000197DC013C9341E0AE16BF06F1F689A1C6
:100B3000682269A28AA1E82AEAA2742A0F5F1F4FDD
:100B40000330110509F0AACF272D43E06EE572E0CE
:100B50008BE592E00E94C1050E946002872DDF9123
:100B6000CF911F910F91FF90EF90DF90CF90BF90AA
:100B7000AF909F908F907F906F905F904F9008956F
:100B80000895FF920F931F93CF93DF93F82E092FB1
:100B9000162FD72FC42F222349F081E08093920192
:100BA0000E940E1690939101809390018091920182
:100BB0008823A1F080919001909191010E941A16D2
:100BC000069760F0EF2DF02FA12FBD2FCE0FDF2F56
:100BD000D11DEC17FD0741F410929201DF91CF91E6
:100BE0001F910F91FF90089581918D93F2CFEF9215
:100BF000FF920F931F93CF93DF93CDB7DEB7AC97E0
:100C00000FB6F894DEBF0FBECDBF962FBA012132CA
:100C1000310598F540EF49831A821B821C827901C5
:100C200042E0E40EF11C0CE210E00E191F09E1E0B5
:100C3000F0E0EC0FFD1F0E0F1F1FF8018083918362
:100C4000A901C80102960E945D23A701B801CE0147
:100C500005960E949519E5E0F0E0EC0FFD1FE80F06
:100C6000F91F27EF2083BC016B5F7F4FAE014F5F01
:100C70005F4F8CE692E00E94AA16AC960FB6F894ED
:100C8000DEBF0FBECDBFDF91CF911F910F91FF90BF
:100C9000EF9008950E945623FA0160837183828346
:100CA0009383089581E008950C9452060C945406A1
:100CB000EF92FF920F931F93CF93DF9300D000D05A
:100CC000CDB7DEB7F82EE92E8B010E945606882399
:100CD000A9F0D8018C918233E0F4803378F481312B
:100CE00069F040F4803111F12F2D3E2DA80160E014
:100CF00080E83FC08032A1F08132B1F70F900F90B1
:100D00000F900F90DF91CF911F910F91FF90EF9077
:100D10000895803448F3823488F3803829F7EECF81
:100D2000F8018181823069F08430B9F0D8011196E0
:100D3000EC91E150ED3010F7F0E0E655FC4D0C94ED
:100D4000502312968C910E943814F801628170E051
:100D500090E080E00E948B11E9CF12968C9190E098
:100D60000E944B14E3CF30E020E050E040E061E02F
:100D700081E10E94F705C2CF82E090E00E946623E5
:100D8000898321E030E0AE014F5F5F4F68E0F0CF34
:100D900083E090E00E946623898321E030E0AE0189
:100DA0004F5F5F4F62E0E4CF6091E4017091E50135
:100DB0008091E6019091E701AE014F5F5F4F0E9485
:100DC0004A0624E030E0AE014F5F5F4F63E0D0CFD2
:100DD00030E020E050E040E069E0CACF30E020E0C1
:100DE00050E040E065E0C4CF30E020E050E040E07B
:100DF00066E0BECF0E943D14898321E030E0AE0161
:100E00004F5F5F4F64E0B4CF83E089838A8322E041
:100E100030E0AE014F5F5F4F6DE0AACF8CE692E00D
:100E20000C94D718CF93DF93EC0197FF0CC0FB0114
:100E30008281882341F00E943D07CE019F770E9466
:100E400081070E94690781E0DF91CF9108958CE0CE
:100E500090E00E94662390E0B0E0A0E08093610201
:100E600090936202A0936302B0936402089560912C
:100E700061028CE090E00C9474230E9473138093C1
:100E800065020E94861380916102813089F0882377
:100E900059F0823091F08430B9F08FE39CE90197EA
:100EA000F1F700C00000089582EE0E94F70AF5CF26
:100EB00088E193E00E94FC01F0CF82EE0E94F70AE5
:100EC00087E50E94650BE9CF86EE0E94650B88E1FD
:100ED000F8CF80916102813071F0882341F0823037
:100EE00031F0843061F0809165020C94831382EEBE
:100EF0000E943D0BF8CF8CE20E94650BF4CF88E294
:100F0000FBCF0F931F93CF93DF938C01CCE0D0E006
:100F1000C8010C2E02C0969587950A94E2F78F704F
:100F20000E9462020E94650B2497CC3F8FEFD80786
:100F300079F7DF91CF911F910F9108950F931F9330
:100F4000CF93DF93EC018B01FB018281882361F059
:100F50000E947313CE01815E9C458530910520F47B
:100F6000809361020E943707B801CE01DF91CF91D3
:100F70001F910F910C9412070F931F93CF93DF9340
:100F8000C62FD42F022FFC0182818823C9F06093E1
:100F900095010E940E16909394018093930180E234
:100FA0008C0F883008F050C0C77081E001C0880FF6
:100FB000CA95EAF7DF91CF911F910F910C94780BAE
:100FC00010919501161335C0809193019091940171
:100FD0000E941A16883C910560F5C0E2CD0F1D17DE
:100FE000B9F080E2810F883040F4177081E001C0D1
:100FF000880F1A95EAF70E947F0BC83048F481E009
:101000009D2F977001C0880F9A95EAF70E94780B80
:10101000802F0E94650BC830B8F4D77081E001C002
:10102000880FDA95EAF7DF91CF911F910F910C9419
:101030007F0B80E28C0F883038F4C77081E001C0EC
:10104000880FCA95EAF7EFCFDF91CF911F910F91EB
:1010500008959C01CB01233F4CE5340731F190F416
:10106000283DFCE53F07E9F0293D4CE5340769F1EF
:10107000273D3C4579F426E241EE61EE0E94BC0733
:1010800080E00895253FFCE53F07B9F090F0263F4A
:101090003C45B9F0FC0182818823D1F01092950182
:1010A000089527E245EE65EEE9CF26E241EE60EED7
:1010B000E5CF27E245EE64EEE1CF26E241EE62EEB7
:1010C000DDCF27E245EE66EED9CF28E241E0EBCF57
:1010D00081E00895CF93DF93EC01FB0182818823A7
:1010E00009F419C1C230FCE5DF07C0F1C6319CE547
:1010F000D90730F09E012A5F3C452930310570F553
:101100000E943D1490936B0280936A02C031ECE51B
:10111000DE0709F4CFC008F05BC0C8308CE5D80703
:1011200009F4B6C088F5C430ECE5DE0709F4A8C0C0
:10113000C0F4C2308CE5D80709F49CC080916A02E3
:101140008260C330DC4509F498C080916A029091B6
:101150006B020E944B140E94F30D80E0DF91CF914F
:10116000089580916A028061C630ECE5DE0709F4DB
:1011700084C080916A028860C730DC4508F47DC075
:1011800080916A02806279C0CC308CE5D80709F47E
:1011900089C070F480916A028C60CA30ECE5DE0789
:1011A00009F46BC008F478C080916A028E7F65C034
:1011B000CE308CE5D80709F479C080916A028B7F24
:1011C000CF30DC4508F459C080916A028F7E55C04B
:1011D000CB3FECE5DE0709F457C030F5C3318CE5B1
:1011E000D80709F46FC078F4C131ECE5DE0709F4E3
:1011F00065C0C231DC4509F0A8CF0E94F30D809193
:101200006A028F773AC0C5318CE5D80709F462C00D
:1012100008F476C080916B028160CA3FDC4509F01A
:1012200094CF80936B0291CFCF3FFCE5DF0709F4A9
:101230004DC088F480916B028D7FCD3F9CE5D9072E
:1012400081F380916B028E7FCE3FDC4550F380911D
:101250006B028360E6CFC130FDE5DF0709F459C0BA
:1012600008F444C080E0C230DD4509F06ECF0E9432
:10127000C9146BCF80916A02816080936A0265CF46
:1012800080916A028460F9CF80916B028260C9CF3D
:1012900080916A028064F1CF0E94F30D80916A020E
:1012A0008068EBCF80916A028D7FE7CF80916A02E0
:1012B000877FE3CF80916A028F7DDFCF80916A02C2
:1012C0008F7BDBCF80916A02837FD7CF80916B02C7
:1012D0008C7FA7CF80916A0282FB992790F921E049
:1012E000922790FB82F990FB83F9C7CF80916B0224
:1012F000982F909591708E7F892B90FB81F991CFDB
:101300000E94F30D90916A02892F97FB87F980580C
:10131000B4CF81E0ACCF81E021CFCF93DF93EB015D
:1013200086319C4511F50E9473139A81992399F097
:101330008A7A91E009F490E090939601811109C0B6
:1013400089E20E944E130E94C21380E0DF91CF9188
:10135000089585E3F6CF80919601811104C089E25A
:101360000E945513F0CF85E3FBCF81E0EFCF909340
:101370009C0180939B010895E0919B01F0919C0159
:10138000309721F00190F081E02D099480E00895DC
:10139000E0919B01F0919C01309799F02091180108
:1013A000222359F020916A0227FF07C0DC012C910B
:1013B00011962C93119725E02C930280F381E02D58
:1013C000099408952091990130919A0128173907BD
:1013D00071F090939A0180939901E0919B01F091B3
:1013E0009C01309721F00680F781E02D0994089543
:1013F00020919701309198012817390771F0909347
:10140000980180939701E0919B01F0919C013097A6
:1014100021F00084F185E02D0994089585B7806856
:1014200085BF85B7806885BF0895089508950C9499
:10143000150A08950C94190A0E940E0A0E94160AB1
:101440000C94170A81E008950C94220A0E94051654
:101450000E94E3040E945E160C941A0AAF92BF9297
:10146000CF92DF92EF92FF920F931F93CF93DF9370
:10147000CDB7DEB72A970FB6F894DEBF0FBECDBF4B
:101480000E9430050E94240A882309F45FC08EE977
:10149000A82E81E0B82E10E000E0C02E802F0E9420
:1014A000D804E82EF501D1905F01D81609F448C0A0
:1014B0008091110281FD0E94DE0480E0FF24F394FC
:1014C000DE249D2D9F21B9F18E83CF82EF2081E014
:1014D00009F480E088870E940E168160782F9A8731
:1014E00089874E815F8168858A850E94C80AF801D4
:1014F000E256FE4F8081F826F0820E940E070E947D
:10150000BC0990919D01891791F10E94BC098093BB
:101510009D012A960FB6F894DEBF0FBECDBFDF91B6
:10152000CF911F910F91FF90EF90DF90CF90BF90E0
:10153000AF900C9477028F5FFF0C833009F0C1CF1E
:101540000F5F1F4F0330110509F0A7CF8FEF89837D
:101550008A831B820E940E168160782F9D838C8364
:1015600049815A816B818D810E94C80AC6CF2A9613
:101570000FB6F894DEBF0FBECDBFDF91CF911F91A4
:101580000F91FF90EF90DF90CF90BF90AF900895B4
:10159000CF93DF93CDB7DEB72B970FB6F894DEBFAE
:1015A0000FBECDBF4F83588769877A878B871E828E
:1015B0001D8285E0FE013796DE01119601900D92A5
:1015C0008A95E1F749815A816B817C818D819E8169
:1015D0002B960FB6F894DEBF0FBECDBFDF91CF9133
:1015E0000C946910FC01808191810C942013CF939D
:1015F000C82F882309F43FC08CEF8C0F813AA0F4E8
:101600006C2F80910001909101010E94E2148823C7
:1016100029F08C2F0E9455130E94C2138C2F0E9418
:101620004E13CF910C94C21380E28C0F883048F493
:10163000C77081E001C0880FCA95EAF70E9476134F
:10164000F0CFEBE5EC0FE33040F4F0E0E258FE4F72
:10165000808190E0CF910C94E209C85AC73158F4C8
:10166000EC2FF0E0EE0FFF1FE05BFE4F80819181D9
:10167000CF910C94F809CF910895882329F19CEF1C
:10168000980F913A20F40E9455130C94C21390E2E3
:10169000980F983050F4877091E001C0990F8A95A7
:1016A000EAF7892F0E947C13F0CF9BE5980F9330C7
:1016B00020F490E080E00C94E209885A873120F40D
:1016C00090E080E00C94F8090895CF93C82F0E9411
:1016D000F70AC93349F42FEF87EE93E02150804099
:1016E0009040E1F700C000008C2FCF910C943D0B8F
:1016F000882321F00E9476130C94C2130895882346
:1017000021F00E947C130C94C2130895BF92CF92D3
:10171000DF92EF92FF920F931F93CF93DF936C01B1
:10172000D62FC72FFC01058102950F701281111170
:101730000E9496130E946C13E82E882391F01123C7
:10174000D1F08C2F807F803421F080E28D0F8830A3
:1017500090F082E00E940D140E946C1391E0E82E3C
:10176000E926BC2EB2949FE0B922EB2DF0E0E954BB
:10177000FC4D0C945023E12CF4CF0C2F0F70C07F44
:1017800011F00295007F1123A9F0002359F080E2A7
:101790008D0F883010F0D11109C0802F0E94761370
:1017A0000E94C2138D2F0E94F70A14C0802F0E943E
:1017B0008913F6CF8D2F0E943D0B002359F080E254
:1017C0008D0F883010F0D1112CC0802F0E947C1317
:1017D0000E94C2132B2D2850330B2430310520F4E6
:1017E0000E94BC090E947702EE2009F493C10E9476
:1017F000681380FD8FC1F60112820E9462130E945D
:10180000ED11C6010E94AB0D0E946213DF91CF91D2
:101810001F910F91FF90EF90DF90CF90BF900C94AD
:101820000E12802F0E948F13D3CFFC2FFF70FF2E3C
:10183000C07FC03219F0F29480EFF822DD2369F006
:10184000D13049F1112391F1002351F1F601858145
:1018500080FFA8CF8F70858323C0112381F00111F1
:1018600006C00E94A9138F290E94780BB3CF0130C4
:10187000C1F70E94A9138F290E94AF13ABCF0111AA
:1018800006C00E94B8138F2D0E947F0BA3CF01309A
:1018900009F4A0CFF6CF112329F0063008F09ACF33
:1018A0008F2DE2CF053008F095CFEDCF002359F30F
:1018B000D93349F4FFEF27EE33E0F15020403040B8
:1018C000E1F700C000008D2F0E943D0B83CF8C2FCD
:1018D00086958695837069F0813009F07BCF8D2FD6
:1018E0009C2F9370111102C090E080E00E94F809D3
:1018F00071CF8D2F9C2F9370111102C090E080E06A
:101900000E94E20967CF8C2F837009F041C011114A
:1019100061CF4D2F429546954770440F440F0D2FD0
:101920000F7010E030E020E0042E04C0000F111F03
:10193000221F331F0A94D2F760E070E0CB01D4FF7E
:101940000FC06FE070E080E090E004C0660F771F8A
:10195000881F991F4A95D2F760957095809590954C
:10196000C695C695C370602B712B822B932BC2300A
:1019700049F058F4C13019F00E949F112BCF0E94FA
:101980008D1128CF0E94B11125CF0E948B1122CF3B
:101990008695112311F08C2F8170882309F41ACFBA
:1019A0004D2F429546954770440F440F0D2F0F70F1
:1019B00010E030E020E0042E04C0000F111F221FB1
:1019C000331F0A94D2F760E070E0CB01D4FF0FC060
:1019D0006FE070E080E090E004C0660F771F881F22
:1019E000991F4A95D2F76095709580959095C69508
:1019F000C695C370602B712B822B932BC23049F09C
:101A000058F4C13019F00E946412E4CE0E945212C0
:101A1000E1CE0E947612DECE0E94C711DBCECF70DF
:101A2000112329F08C2F0E94ED118D2F1DCF8D2FAA
:101A30000E947F0B8C2F0E940E12CCCED23F89F1D8
:101A400060F4D03FC9F0D13F29F1112309F442C01D
:101A50000111A8CE8C2F8F7121C0D33F39F1D43F13
:101A6000A1F7112369F1CF718C2F0E94ED1163E072
:101A70008C2F0E94F813AECE112341F0053008F0F0
:101A8000A9CE8C2F8F710E943112A4CE063008F09F
:101A9000A1CEF7CF8C2F8F71112369F20E94ED1127
:101AA00099CE8C2F8F711123C9F3C5CF112329F043
:101AB0008C2F8F710E94D8118DCE0E94D3118ACEA7
:101AC00081E00E940D14023008F484CE82E00E946E
:101AD0000D1480CE002359F0D93309F0F4CE8FEFE6
:101AE00097EEE3E081509040E040E1F7EACE8C2FA2
:101AF0008F71A1CF4C2F4F706D2FC6010E948A01AC
:101B00000E94031167CE4C2F4F706D2FC6010E94AB
:101B1000D10260CEDF91CF911F910F91FF90EF9096
:101B2000DF90CF90BF9008950F931F93CF93DF93D3
:101B3000EC01688179818A810E942A138C010E94BC
:101B400088120E948A11B801CE01DF91CF911F91B6
:101B50000F910C94860BCF93DF93EC018B819C81CA
:101B6000892B29F08881998189238F3F59F4DF914E
:101B7000CF910895CE010E94940DCE01DF91CF91B7
:101B80000C944B02CE010E948F028111F3CF0E9470
:101B90006C13882361F38A81882349F382E0DF9103
:101BA000CF910C940D14882321F00E9489130C947A
:101BB000C2130895882321F00E948F130C94C2133E
:101BC00008950E9496130E94A6130E94C21390E0EB
:101BD00080E00E94E20990E080E00C94F8090E9405
:101BE0005C130C94E10D0E9486130C94EF0DE92F09
:101BF000E295EF70E250EE3070F4F0E0E953FC4D06
:101C00000C945023803F19F020F4883E20F481E0AA
:101C10000895843FE1F380E00895883EC0F3813F5A
:101C2000D1F7F5CF93FB882780F908950E94201300
:101C30000C94F70DCF93DF9300D000D00F92CDB767
:101C4000DEB70F900F900F900F900F90DF91CF9114
:101C50000895CF93DF9300D000D000D0CDB7DEB78A
:101C600026960FB6F894DEBF0FBECDBFDF91CF91A1
:101C700008951F93CF93DF93C091A20116E0809146
:101C8000A3018C1304C0DF91CF911F910895D0E080
:101C90001C9FF0011D9FF00D1124EC55FE4F40815B
:101CA000518162817381848195810E94290E2196E0
:101CB000C770E5CF4091D4015091D5016091D60114
:101CC0007091D7018091D8019091D9010C94290E7F
:101CD0001F93CF93DF938091D901807FA9F48091E6
:101CE000D601882389F08091A201C091A30160915F
:101CF000D4017091D501A091D701B091D801D62F10
:101D0000D72316E0C81304C0DF91CF911F91089527
:101D100090E0109711F0DF3F19F401968770F2CF31
:101D2000189F9001199F300D1124F901EC55FE4FB9
:101D300041814713F2CF40814613EFCF42814111D9
:101D4000ECCF438154814A1B5B0B483C510528F77B
:101D50008091D9018F7080618093D901F901E75595
:101D6000FE4F80818F708061808384ED91E00E94BE
:101D7000AB0DDF91CF911F910C94390EAF92BF92B2
:101D8000CF92DF92EF92FF920F931F93CF93DF9347
:101D9000CDB7DEB761970FB6F894DEBF0FBECDBFEB
:101DA0008C0185E0F801DE011D9601900D928A9567
:101DB000E1F7F80140815181E28084EDC82E81E095
:101DC000D82E6091D7017091D8016115710509F481
:101DD00061C19091D4012091D501892F82238F3F39
:101DE00009F458C1A380B480F090D601F501E61B38
:101DF000F70BFF2009F4FCC08091D901382F307F08
:101E0000E83CF10508F0B2C0311179C0FE2C251371
:101E100023C0941321C0E1101FC08F708061809394
:101E2000D9010E945A0EC6010E94AB0D8091D901C2
:101E3000F80185838F2D61960FB6F894DEBF0FBE33
:101E4000CDBFDF91CF911F910F91FF90EF90DF9069
:101E5000CF90BF90AF900895AB2829F0842F8523B1
:101E60008F3F09F033C180E0F82FF170DF2E80FF43
:101E70003CC08091A2012091A30136E0821315C0DD
:101E80004D875E878D859E850E942013292F229580
:101E90002F702230F0F0243018F59F70F1F0F80127
:101EA0009581907FD1F4D12C1EC090E0389FF00135
:101EB000399FF00D1124EC55FE4F6181651306C06A
:101EC0006081641303C062816E110FC00196877038
:101ED000D5CF9F7011F0882331F3805E883018F3DE
:101EE000C8010E94AB0DFD2CA5CFEE2009F4A2CFB6
:101EF0008091D90181608093D901F12C9BCF25136A
:101F000006C0941304C0F801EE2009F48DC04D877B
:101F10005E878D859E850E94160E882319F1EE201E
:101F200009F18091D901803270F02091D401309173
:101F3000D50138872F831986BB86AA868C87CE0168
:101F400007960E94AB0D86E0F801A4EDB1E0019088
:101F50000D928A95E1F70E94680E0E945A0EFF24A6
:101F6000F39468CFC8010E94AB0DF9CF311113C0B3
:101F70007A2DB98AA88A6E2D89890E941A0E84ED5D
:101F800091E00E94AB0D86E0F60111928A95E9F787
:101F90000E945A0EB2CF25130FC094130DC0E1104A
:101FA0000BC0F8018583C8010E94AB0D86E0F601E5
:101FB00011928A95E9F73ECF4D875E878D859E8584
:101FC0000E94160E882371F2EE2061F28091D901F1
:101FD000803208F4B8CF2091D4013091D5013A83F2
:101FE00029831B82BD82AC828E83CE010196A9CF4C
:101FF000E83CF10508F041C0FE2CEE2009F4B2CF18
:1020000025132AC0941328C08091D90180FD1BC0DC
:10201000982F907FC1F0F8018583903F31F0982F81
:10202000907F905F8F70892B8583C8010E94AB0DD4
:1020300086E0F801A4EDB1E001900D928A95E1F7F8
:102040000E945A0EF7CE86E0F801A4EDB1E00190AF
:102050000D928A95E1F7EECE4D875E878D859E8540
:102060000E94160E81116FCF8091D90181608093FB
:10207000D901C8010E94AB0DDDCE7A2DB98AA88A9C
:102080006E2D89890E941A0E86E0F60111928A95BA
:10209000E9F7D6CFEE2009F465CF4D875E878D85B1
:1020A0009E850E94160EF82E882309F45BCF86E0E9
:1020B000F801A4EDB1E001900D928A95E1F784ED6D
:1020C00091E00E94F20A0E94680EBACF81E08E254C
:1020D000CBCE1F93CF93DF93CDB7DEB72C970FB640
:1020E000F894DEBF0FBECDBF4F83588769877A87CC
:1020F0008B879C87CE0107960E94BE0E882369F0CD
:102100008A859B85892B39F04F815885842F8523BB
:102110008F3F09F071C016E05FC086E0FE01379680
:10212000DE01119601900D928A95E1F78A859B85D3
:10213000892B89F388859F8189238F3F61F32091C3
:10214000A30130E0C9010196877099274091A2014F
:102150004817190671F40E94F30D1092A301109212
:10216000A20186E0E4EDF1E0DF011D928A95E9F736
:10217000D2CF96E0929FD001939FB00D1124AC5521
:10218000BE4FFE01319601900D929A95E1F7809332
:10219000A3010E94390EBFCF819FC00111248C552D
:1021A0009E4F0E94BE0E8823E9F0E091A2011E9F7F
:1021B000F0011124EC55FE4F408151816281738101
:1021C000848195810E94290E8091A20190E0019660
:1021D000877099278093A2018091A2019091A30119
:1021E0008913DACF2C960FB6F894DEBF0FBECDBFA1
:1021F000DF91CF911F91089569857A858B859C85A4
:102200000E94290E88CFEF92FF920F931F93CF93D6
:10221000DF938C01892B81F0F12CEE24E394E8010B
:102220002196F8018491843770F4843008F05FC0FF
:102230008130B1F08230A1F1DF91CF911F910F91E8
:10224000FF90EF900895853709F44CC008F43DC025
:102250009CE7980F903780F78F770E943D0B49C01D
:102260000E5F1F4FFE01849190E2980F983060F44A
:102270008770FE2D01C0FF0F8A95EAF78F2F0E940D
:1022800099130E94C21302C00E94F70A8F2D815039
:1022900030F2EFE9FFE03197F1F700C00000F7CF2F
:1022A0000E5F1F4FFE01849190E2980F983050F41A
:1022B0008770FE2D01C0FF0F8A95EAF78F2F0E94CD
:1022C0009F13DFCF0E943D0BE1CF0E5F1F4FFE013A
:1022D000C491C150D8F28FE99FE00197F1F700C097
:1022E0000000F7CF0E5F1F4FFE01F490CFCF0E948A
:1022F000F70A8E01CBCF08950C947B110E947C11BC
:102300006093E8017093E9018093EA019093EB01F7
:102310000C94E10D08950C947E110F931F9300917E
:10232000E8011091E9012091EA013091EB01602B65
:10233000712B822B932B1F910F910C947E110F9375
:102340001F930091E8011091E9012091EA01309179
:10235000EB0160237123822393231F910F910C942F
:102360007E110F931F930091E8011091E9012091D4
:10237000EA013091EB0160277127822793271F9193
:102380000F910C947E110C947B110C94C3110E943C
:10239000C5116093E4017093E5018093E601909389
:1023A000E7010C94E10D60E070E0CB010C94C711E3
:1023B0000F931F9341E050E060E070E08A019B01C1
:1023C00004C0000F111F221F331F8A95D2F7C901C5
:1023D000B8011F910F910C94C7110F931F9341E007
:1023E00050E060E070E004C0440F551F661F771F87
:1023F0008A95D2F78091E4019091E501A091E601E0
:10240000B091E7018A019B01082B192B2A2B3B2B4A
:10241000C901B8011F910F910C94C7110F931F931D
:1024200041E050E060E070E004C0440F551F661FBB
:10243000771F8A95D2F7CB01BA0160957095809588
:1024400090950091E4011091E5012091E601309111
:10245000E70160237123822393231F910F910C9432
:10246000C7110F931F9341E050E060E070E004C09B
:10247000440F551F661F771F8A95D2F78091E4019C
:102480009091E501A091E601B091E7018A019B01DD
:10249000082719272A273B27C901B8011F910F9147
:1024A0000C94C7110F931F930091E4011091E50163
:1024B0002091E6013091E701602B712B822B932B49
:1024C0001F910F910C94C7110F931F930091E4017A
:1024D0001091E5012091E6013091E701602371231D
:1024E000822393231F910F910C94C7110F931F9375
:1024F0000091E4011091E5012091E6013091E7019E
:1025000060277127822793271F910F910C94C71181
:102510000895E92FEE0F9E0F890F982F977041E0D5
:1025200001C0440F9A95EAF786958695869595E0C1
:10253000899FF0011124E652FE4F30E020E070E068
:102540005191DF011197CB01022E02C0969587951C
:102550000A94E2F7817081958527842385278C93DF
:102560002F5F3F4F2530310559F70895E92FEE0FC2
:102570009E0F890F982F977086958695869525E0F2
:10258000829FF0011124E652FE4F50E040E080E0CF
:10259000219130E0092E02C0369527950A94E2F782
:1025A00021703327042E01C0220F0A94EAF7822BF0
:1025B0004F5F5F4F4530510559F70895BF92CF9255
:1025C000DF92EF92FF920F931F93CF93DF938C01D3
:1025D000C090E401D090E501E090E601F090E701C1
:1025E0008091E8019091E901A091EA01B091EB019D
:1025F000C82AD92AEA2AFB2ACFE1D0E0BC2ED7018B
:10260000C6010C2E04C0B695A795979587950A9498
:10261000D2F780FD0EC0219788F7B12C8B2DDF916A
:10262000CF911F910F91FF90EF90DF90CF90BF90CF
:102630000895B8018C2F0E94EE02019761F3EECF4E
:10264000CF93DF93EC010E94DE12BE01DF91CF91A8
:102650000C94EE021F93CF93DF93EB019091A101B5
:10266000992331F0CB01DF91CF911F910C9420136E
:10267000882379F0CB010E94DE12182F682FCE013B
:102680000E948912BE01812FDF91CF911F910C947E
:10269000EE02CB010E94B612182FF4CF682F809162
:1026A0000001909101010C946215682F8091000146
:1026B000909101010C946D158091000190910101A0
:1026C0000C9478158091EC018595859585950895F4
:1026D0008091EC01877008959091EC01977081E0F2
:1026E00009F480E0089580911002089590911002FD
:1026F000892B809310020895809590911002982361
:102700009093100208958093100208951092100281
:10271000089590910F02892B80930F020895809560
:1027200090910F02982390930F02089510920F0238
:10273000089590910E02892B80930E020895809542
:1027400090910E02982390930E02089510920E021B
:1027500008958091ED01089508950C94AC13909123
:10276000ED01981721F08093ED010C94AD130895BD
:102770008091ED01882329F01092ED0180E00C9406
:10278000AD130895E0910001F091010180911002D4
:102790008083E0910001F0910101808190910F020E
:1027A000892B8083E0910001F0910101808190915B
:1027B0000E02892B80839091ED01992381F0E091A5
:1027C0000001F09101018081892B808380910001BB
:1027D000909101010E94CE1481110E94B813809142
:1027E0000001909101010C94C80908950C94F5130F
:1027F00098E0899F90011124622B6093EC010E9464
:10280000ED118091EC018595859585950C94F613D5
:102810001092EC0180E00C94F6139091EC018095FD
:1028200089238093EC01282F277071F4282F082E1C
:10283000000C330B9217130639F085958595859515
:102840000E940E120C940814089590E080E00E94FB
:102850006E2321E08C3E9E4F09F020E0822F0895E8
:1028600082E090E00C94662383E090E00C94662371
:10287000682F83E090E00C947423CF9384E090E081
:102880000E946623C82F81E290E00E946623982F61
:102890008C2FCF910895CF93C92F682F84E090E0BB
:1028A0000E9474236C2F81E290E0CF910C947423EA
:1028B000AB01BC018FE090E00C948623AB01BC011E
:1028C00083E190E00C94862360E070E0CB010C94EF
:1028D0005E1460E070E0CB010E9458140C94641404
:1028E0006CEE7EEF90E080E00E94922360E082E058
:1028F00090E00E94742360E083E090E00E947423E3
:102900001092E8011092E9011092EA011092EB0195
:1029100060E084E090E00E94742360E081E290E057
:102920000E94742360E085E090E00E94742360E0E0
:1029300086E090E00E9474236FEF87E090E00E94B1
:10294000742340E050E0BA0188E090E00E948623C2
:1029500060E08DE090E00E94742340E050E0BA0116
:1029600088E190E00E94862360E087E190E00E9489
:10297000742340E050E0BA018CE190E00E9486238D
:1029800060E080E290E00E9474230C9469140C943F
:102990007014682F8EE090E00C947423FC01329642
:1029A00080911801882321F080916A029EE187FFBF
:1029B00096E080E0915008F4089521912223D1F30C
:1029C0008F5FF8CF662301F1209118012223F1F0E7
:1029D00020916A0227FF1AC0462F469546954695D4
:1029E0004E3190F4677021E030E002C0220F331FB7
:1029F0006A95E2F7840F911DFC01828190E0282303
:102A0000392381E0232B69F480E00895FC0132969C
:102A100008962191261721F0E817F907D1F7F4CF8E
:102A200081E008959C01FC0132969FEF80E0419186
:102A3000461751F09F3F19F4411101C0982F8F5F45
:102A40008630A9F79F3F09F40895290F311D97FD9E
:102A50003A95F90162830895FC0132960896219116
:102A6000261303C0DF0111971C92E817F907B9F785
:102A70000895E62FE695E695E695EE3168F4E80FC1
:102A8000F92FF11D677021E030E001C0220F6A9537
:102A9000EAF78281822B82830895E62FE695E695F8
:102AA000E695EE3170F4E80FF92FF11D677021E023
:102AB00030E001C0220F6A95EAF720958281282331
:102AC0002283089520911801222329F020916A027F
:102AD00027FD0C9439150C9412152091180122230E
:102AE00029F020916A0227FD0C944D150C942C15A9
:102AF000FC01329680911801882351F080916A027E
:102B000087FF06C08EE1DF011D928A95E9F70895DF
:102B100086E0F9CF089508950C948B150E948C15CA
:102B200080915D03843049F11092120288E190E0B7
:102B300020E40FB6F894A895809360000FBE209310
:102B4000600080E00E9477020E948C1583B7817F2D
:102B5000846083BF83B7816083BF7894889583B78F
:102B60008E7F83BF0FB6F894A8958091600088612E
:102B700080936000109260000FBE08950895CF9377
:102B80000E948A150E9430050E94BE15C0E08C2F5D
:102B90000E94D804811105C0CF5FC330C1F7CF9127
:102BA000089581E0FCCF08950C94D3150E94F30D95
:102BB0000E94BC090E9477020C94D4151F921FB684
:102BC0001F9211248F939F93AF93BF938091120212
:102BD000811113C08091660290916702A0916802F2
:102BE000B09169024196A11DB11D80936602909338
:102BF0006702A0936802B0936902BF91AF919F9161
:102C00008F911F901FBE1F90189582E084BD93E0A6
:102C100095BD9AEF97BD80936E0008952FB7F894F5
:102C20008091660290916702A0916802B09169025A
:102C30002FBF08959C014FB7F89480916602909140
:102C40006702A0916802B09169024FBF821B930B8B
:102C5000089578941F921FB61F9211248F939F930B
:102C6000AF93BF938091660290916702A091680232
:102C7000B09169020196A11DB11D809366029093E7
:102C80006702A0936802B0936902BF91AF919F91D0
:102C90008F911F901FBE1F90189587E797E790931D
:102CA00001088093000888E19AE00FB6F894A8958F
:102CB000809360000FBE90936000FFCF0E942514A8
:102CC000811102C00E94C7140E9430148093110227
:102CD0000E943D1490936B0280936A020E94341408
:102CE000682F70E090E080E00C948B11881F88279B
:102CF000881F089591E0883F08F490E0892F089597
:102D0000982F907F903BE9F040F49039D1F0903AC1
:102D1000C1F09038B1F080E00895903D19F020F4B2
:102D2000903CC9F782E00895903E59F0903F99F7A2
:102D3000815F8F3080F7E82FF0E0EF57FE4F808102
:102D4000089583E008950F93DC01ED91FC910995BE
:102D50000F9108956F927F928F929F92AF92BF9240
:102D6000CF92DF92EF92FF920F93CF93DF9300D039
:102D70000F92CDB7DEB74C015B013A01F12CE12C8B
:102D8000EA14FB0488F00F900F900F90DF91CF9121
:102D90000F91FF90EF90DF90CF90BF90AF909F90FA
:102DA0008F907F906F90089519821A821B8265011F
:102DB000CE18DF0884E0C816D10418F083E0C82ECE
:102DC000D12CB3016E0D7F1DA601CE0101960E948C
:102DD0005D230B812A814981B601C4010E94A3169B
:102DE00083E0E80EF11CCCCFFC017383628308956D
:102DF000FC01738F628F0895FC01758F648F0895B5
:102E0000CF93DF93EC011DA21FA21EA2BC01685D3F
:102E10007F4F40EC88519F4F0E940B191B821A82F2
:102E20001D821C821F821E82198618861B861A86A6
:102E30001D861C861F861E86198A188A1B8A1A8A76
:102E40001D8A1C8A1F8A1E8A198E188E1B8E1A8E46
:102E50001D8E1C8E1F8E1E8E19A218A2DF91CF917F
:102E60000895EF92FF920F931F93CF93DF93EA01A0
:102E70008A01060F111D88519F4F7C01C017D10791
:102E800039F4DF91CF911F910F91FF90EF9008954A
:102E90006991C7010E941219F1CFFC01718360830F
:102EA0000895FC0171A360A30895AF92BF92CF92E1
:102EB000DF92EF92FF920F931F93CF93DF9300D097
:102EC0000F92CDB7DEB77C016B01142FB22EA02E6E
:102ED000DC0195968C9195978430A9F55A96ED91E1
:102EE000FC913097E9F1CB01019763E070E00E941B
:102EF0002823CB01880F991F860F971F4983BA8219
:102F00000B834C2D481B9E012F5F3F4FBC01C70117
:102F10000995D7015E96ED91FC91309731F00A2D1D
:102F20002B2D412FB601C70109950F900F900F90DF
:102F3000DF91CF911F910F91FF90EF90DF90CF9095
:102F4000BF90AF9008956230710509F455C06330A9
:102F5000710599F06130710509F481C0D12CC12C43
:102F6000D7015C96ED91FC91309799F20A2D2B2DAB
:102F7000412FB601C7010995CCCF842F807F803ABD
:102F800011F148F48038D1F0803951F7D701149607
:102F9000ED91FC910AC0803ED9F0803FF1F0803B7A
:102FA000F9F6D7011296ED91FC913097C9F2123FD4
:102FB000E9F02A2D4B2D612F6F701BC0D70116969B
:102FC000ED91FC91F2CFD7011896ED91FC91EDCFE8
:102FD000D7011A96ED91FC91E8CF423F09F6D7014F
:102FE0001C96ED91FC91309709F4BACF2A2D4B2D08
:102FF00062EFC70109958DCF842F807F803DB1F0AE
:10300000803FC9F0803C09F0ABCFD7011E96ED910F
:10301000FC91309709F4A4CF812F8D7F4B2D612F28
:103020006F70813F89F0C701099573CFD701509622
:10303000ED91FC91EECF433F51F4D7015296ED91C3
:10304000FC91309709F48CCF4B2D612FECCF413F91
:1030500009F086CFD7015496ED91FC91F2CF842FE1
:103060000E947A16882359F0D7015696ED91FC916B
:10307000309709F475CF612FC70109954ACF163FE4
:1030800009F06ECFD7015896ED91FC91F1CFFF92E8
:103090000F931F93CF93DF93EC01162F862F0E947F
:1030A0007A16882391F0FDA081E08DA300E020E056
:1030B000412F61E070E0CE010E945517FDA2DF9123
:1030C000CF911F910F91FF900895812F0E94761646
:1030D0004DA1882309F443C0443029F01AA381E0AC
:1030E00090E09FA38EA3812F0E948016813051F023
:1030F0008823A9F0823089F0833079F01DA21FA2C5
:103100001EA2DDCF8DA300E020E0412F61E070E042
:10311000CE010E9455171DA2D2CF8DA3D0CF103F54
:10312000B1F0173F59F72EA13FA1C90163E070E04C
:103130000E942823FE01E80FF91F12A3B9016F5F57
:103140007F4F7FA36EA30CA12BA14AA1E1CF84E006
:103150008DA31AA381E090E09FA38EA3B0CF442358
:1031600009F4ADCF2EA13FA1C90163E070E00E9438
:103170002823FE01E80FF91F12A3B9016F5F7F4FEB
:103180007FA36EA38130910569F0029709F097CF74
:103190000CA12BA14AA1CE010E9455178DA184300C
:1031A000C9F68DCF00E0423009F089CFF2CFCF923F
:1031B000DF92EF92FF920F931F93CF93DF93EC0177
:1031C000E8A1F9A1309709F009956E0188EEC80EC3
:1031D000D11CC6010E94411910E000E0E82EF12C3C
:1031E0000E151F0548F0DF91CF911F910F91FF90B1
:1031F000EF90DF90CF90089560E0C6010E945519CE
:10320000682FCE010E94471861E0C6010E9465192F
:103210000F5F1F4FE5CFFC014283748363831182EC
:10322000108208951F93CF93DF93EC01162F0E9415
:103230007C19482F298130E0C90101966A8170E02C
:103240000E943C2358815817190641F4842F0E948C
:103250007F1980E0DF91CF911F9108958B819C8130
:10326000280F391FF9011083898190E001966A8146
:1032700070E00E943C238983842F0E947F1981E0A3
:10328000E9CFCF93DF93EC010E947C1999812881CB
:10329000921740F0C92FC21B0E947F198C2FDF911B
:1032A000CF910895CA819C0FF5CFFC018081860FD4
:1032B0009927991F628170E00E943C232381348109
:1032C000280F391FF901808108951F93CF93DF9351
:1032D000EC01162F0E947C19282F8881810F9927D5
:1032E000991F6A8170E00E943C238883822FDF91BE
:1032F000CF911F910C947F198FB7F89408958FBFC9
:103300000895482F47709C0183E0369527958A954C
:10331000E1F757E0529FC001539F900D11244423C1
:1033200019F00197840F911D08958F929F92BF927B
:10333000CF92DF92EF92FF920F931F93CF93DF9381
:103340004C01EB017A01CA0167E070E00E9428237A
:103350008E01D40130E020E02617370709F046C07F
:10336000C70167E070E00E942823D90143E0AA0F5B
:10337000BB1F4A95E1F7009761F1F401EA0FFB1FCB
:10338000108267E0629FA001639F500D11248E019F
:10339000040F151F30E020E0E80179918E012F5FC6
:1033A0003F4F472F407850E0022E02C05595479579
:1033B0000A94E2F75081452B4083AF01420F531F1F
:1033C0007F77EA0178838217930731F70196A80F78
:1033D000B91FCD01DF91CF911F910F91FF90EF9019
:1033E000DF90CF90BF909F908F9008951C92A8017E
:1033F00090E080E0FA01B190AF010196FB2DF078EA
:10340000CF2ED12C082E02C0D594C7940A94E2F78F
:10341000DC90CD28CC926D01C80ED91EE894B7F887
:10342000F601B0828730910529F72F5F3F4F095F82
:103430001F4F189691CF6F927F929F92AF92BF923B
:10344000CF92DF92EF92FF920F931F93CF93DF9370
:103450003C0190E080E04230510560F15A0183E088
:10346000B694A7948A95E1F78301EB01B0E0A0E060
:10347000AA15BB0569F5242F277037E03A9FC001D4
:103480003B9F900D11242223A9F0487F640F751FE4
:10349000EB015301A80EB91EB0E0A0E0422F50E0AE
:1034A0008A01015011092196A017B107B0F10197C7
:1034B000840F951FDF91CF911F910F91FF90EF9097
:1034C000DF90CF90BF90AF909F907F906F900895C6
:1034D000780181E090E09E01280F391FF9012081D9
:1034E000922EE89497F8F70191927F016F01F1E035
:1034F000CF1AD1082881082E01C0220F0A94EAF7BA
:1035000020782929F601208301968830910519F742
:103510001196095F1F4F2896ABCF2881D22EE894D1
:10352000D7F8F501D1925F0111967F01F1E0EF1A12
:10353000F108FB013081232F0A2E01C0220F0A94CB
:10354000EAF720782D29F7012083ADCF089508955B
:10355000EF92FF920F931F93CF93DF93CDB7DEB718
:10356000A0970FB6F894DEBF0FBECDBFF9018B0157
:103570000450110990E080E08417C8F417FD2BC0B7
:10358000DF01A80FB91F3C91373FF1F4C8010E9439
:1035900081197C01A80163E172E0CE0101960E94CD
:1035A0001B1ABE016F5F7F4FC7010E945806A0968D
:1035B0000FB6F894DEBF0FBECDBFDF91CF911F9144
:1035C0000F91FF90EF9008950532110584F7D8010F
:1035D000AD5EBD4F3C930F5F1F4F0196CDCF0F9354
:1035E0001F93CF93DF9300D000D000D00F92CDB7C0
:1035F000DEB78C01CE0101960E94791D81110BC0AE
:1036000027960FB6F894DEBF0FBECDBFDF91CF91E6
:103610001F910F9108958A810E9480169A819D833F
:103620009B819E839C819F8381110AC08981843004
:1036300079F0873069F0863069F08530D9F681E01D
:10364000AE014B5F5F4F682FC8010E943117D2CF88
:1036500083E0F6CF82E0F4CFDF92EF92FF920F93F8
:103660001F93CF93DF9300D000D0CDB7DEB77B019F
:10367000142FD22E4A832B830C83842F0E94801612
:10368000811129C082E0E816F10401F183E0E81617
:10369000F10439F0EA94EF2869F485E0173F21F44A
:1036A00004C087E0073F09F084E08983CE010196DA
:1036B0000E94741D0F900F900F900F90DF91CF918B
:1036C0001F910F91FF90EF90DF90089587EFD81230
:1036D000EBCF86E0EACF12951F701983E7CF8CE617
:1036E00092E00E9400176CE27BE18CE692E00E947F
:1036F0004D176FEE7AE18CE692E00E94511766EA70
:103700007AE18CE692E00E94FC1667EA7AE18CE6A8
:1037100092E00E94F41668EA7AE18CE692E00C945A
:10372000F8169B0140915D034430C1F4FC01918186
:103730009F709093E90050E040E064E070E0C901C0
:103740000E94481E81110BC09091E80095FD07C0B2
:103750009091E8009E779093E800089582E00895A4
:1037600020915D03243091F4FC0181818F7080935E
:10377000E9009091F3008091F200892B49F080914B
:10378000E8008E778093E8000C94F61F82E008959D
:1037900080E00895FC0180915D03843059F49181AB
:1037A0009F709093E9008091E80080FF03C0CF01F3
:1037B0000C94B01B08959B0140915D03443011F0BF
:1037C00080E00895FC0196819F709093E9008091BC
:1037D000E80082FFF5CF8091E80085FFF1CF50E04F
:1037E00040E064E070E0C9010E94971E8091E8000B
:1037F00085FD05C08091E8008B778093E80081E02B
:1038000008958091580208950895CF93DF9300D0D2
:103810000F92CDB7DEB790915D03943019F589838F
:103820007B836A8382E08093E9008FEF9091E800C8
:10383000815095FD06C095ED9A95F1F70000811134
:10384000F5CF8091E80085FF0DC050E040E063E0D7
:1038500070E0CE0101960E94481E8091E8008E77AC
:103860008093E8000F900F900F90DF91CF91089513
:10387000CF93DF93EC010E942B1E823011F0843035
:1038800031F4BE0184E0DF91CF910C94051CDF91EF
:10389000CF910895BC0183E00C94051CCF93DF9376
:1038A000EC010E942B1E823011F08430B9F580911A
:1038B00018018823B1F180916A0287FF32C060E26B
:1038C00082E08093E9008FEF9091E800815095FDB0
:1038D00006C095ED9A95F1F700008111F5CF809122
:1038E000E80085FF1BC08091180170E050E040E0C7
:1038F000811104C050E040E068E070E0CE010E9419
:10390000481E8091E8008E778093E80080E2FE01F7
:10391000A8E3B2E001900D928A95E1F7DF91CF9193
:10392000089568E081E0CDCF80915C03811109C0EA
:103930000E9427200E9484208091E200846080936E
:10394000E200089510925C030895089508950C9480
:10395000D61542E061EC81E00E94A31F42E261ECD7
:1039600082E00E94A31F42E361E883E00E94A31F5C
:1039700042E360E884E00C94A31F80915F038330EE
:1039800009F45FC030F48130C1F1823009F49BC08A
:1039900008958A3009F487C08B3009F46DC08930EE
:1039A00009F04EC080915E03813209F049C08091D8
:1039B000620390916303029708F042C08091E8008F
:1039C000877F8093E8008091E80082FF35C0909166
:1039D000F3008091F200029729F48091F1008B7F2F
:1039E000813021F48091F100809358028091E800A9
:1039F0008B778093E8000C94D71F80915E03813A07
:103A0000F9F48091E800877F8093E8008091620359
:103A100090916303892B61F460E288E392E070E0A7
:103A20000E94E61E8091E8008B778093E80008955D
:103A300060E090E080E0F3CF80915D038111C3CF1F
:103A4000089580915E03813AD9F780916203909145
:103A50006303892BA9F78091E800877F8093E800B2
:103A60008091E80080FFFCCF809118018093F100E5
:103A70008091E8008E77BDCF80915E03813201F79F
:103A80008091620390916303892BD1F68091E800C5
:103A9000877F8093E8000E94D71F80916003809306
:103AA00018010C94F30D80915E03813249F68091E8
:103AB000E800877F8093E8000E94D71F8091610310
:103AC00080935902089580915E03813A09F0B8CF3E
:103AD0008091E800877F8093E8008091E80080FF74
:103AE000FCCF80915902C2CFBC0182E091E00C94DE
:103AF000911BBC0182E091E00C94DB1B0E946F1BC8
:103B000084B7877F84BF0FB6F894A8958091600032
:103B1000886180936000109260000FBE80E890E0A2
:103B20000FB6F89480936100909361000FBE0E94DD
:103B30001C0A0E9427200E9484208091E200846059
:103B40008093E20078940E940D230E94260A8EE062
:103B500091E00E94B70980915D03853039F00E94A1
:103B60002E0A82E091E00E94CA1BF5CF0E948E15BA
:103B700080915B03882379F30E94BF15882359F352
:103B80000E94321EE8CF0C94C51D292F3327233005
:103B9000310519F168F42130310509F44AC02230A9
:103BA000310509F44BC090E080E030E020E028C00F
:103BB0002132310579F122323105A9F780E490E014
:103BC0002EE332E061157105D9F08DE690E021ED2C
:103BD00031E061307105A1F0E6CF99278130910580
:103BE00099F0009741F08230910589F00397D9F65A
:103BF000E2EEF0E002C0ECE1F1E0849190E09F01A0
:103C0000FA01318320830895EEE0F1E0F6CFE8EE8B
:103C1000F0E0F3CF89E090E022E331E06115710537
:103C200079F389E090E02BE431E06130710541F3F4
:103C3000BACF82E190E02FEB31E0E2CF8FE990E064
:103C400020E231E0DDCF80915D03843011F482E029
:103C5000089581E0089580915A02811102C00C9468
:103C6000231E089580E189BD82E189BD09B400FE6B
:103C7000FDCF8091D8008F7D8093D8008091E000A7
:103C800082608093E0008091E00081FDFCCF089588
:103C9000AF92BF92CF92DF92FF920F931F93CF9379
:103CA000DF936C01EB018A010E94F61FF82E81114F
:103CB00023C00115110539F0F80180819181C81BDD
:103CC000D90BC80ED91EB12CA12C2097A9F0809138
:103CD000E80085FD22C08091E8008E778093E8009F
:103CE00001151105A1F0F80180819181A80EB91E7E
:103CF000B182A08285E0F82E8F2DDF91CF911F91A8
:103D00000F91FF90DF90CF90BF90AF9008950E94E9
:103D1000F61F8823D1F2F82EEFCFF60181916F01C3
:103D20008093F1002197FFEFAF1ABF0ACECFAF9279
:103D3000BF92CF92DF92FF920F931F93CF93DF93A7
:103D40006C01EB018A010E94F61FF82E811123C03D
:103D50000115110539F0F80180819181C81BD90B3B
:103D6000C80ED91EB12CA12C2097A9F08091E80093
:103D700085FD22C08091E8008B778093E8000115D3
:103D80001105A1F0F80180819181A80EB91EB182C0
:103D9000A08285E0F82E8F2DDF91CF911F910F919A
:103DA000FF90DF90CF90BF90AF9008950E94F61FD4
:103DB0008823D1F2F82EEFCF8091F100F6018193A4
:103DC0006F012197FFEFAF1ABF0ACECFFC018091A0
:103DD00064039091650386179707A0F0611571053C
:103DE00029F49091E8009E779093E80090E06115A7
:103DF000710551F4911108C08091E80082FF34C030
:103E000080E00895BC01F2CF80915D038823C1F169
:103E10008530C1F18091E80083FD30C08091E800D9
:103E200082FDEACF8091E80080FFE1CF8091F3002E
:103E30002091F200382F6115710519F028303105F5
:103E400058F091E02830310509F090E02091E80029
:103E50002E772093E800CBCF81918093F1006150C1
:103E600071092F5F3F4FE7CF80915D03882341F0B9
:103E7000853041F08091E80083FFBECF81E0089556
:103E800082E0089583E00895FC018091640390919D
:103E9000650386179707A0F06115710529F48091D5
:103EA000E8008E778093E80090E06115710551F489
:103EB000911108C08091E80082FF35C080E008952C
:103EC000BC01F2CF80915D038823C9F18530C9F12F
:103ED0008091E80083FD31C08091E80082FDEACF47
:103EE0008091E80080FFE1CF8091F3002091F20003
:103EF000382F6115710519F02830310558F091E01F
:103F00002830310509F090E08091E8008E778093A9
:103F1000E800CBCF84918093F10031966150710914
:103F20002F5F3F4FE6CF80915D03882341F08530BE
:103F300041F08091E80083FFBDCF81E0089582E0E9
:103F4000089583E00895982F973028F08F7080931C
:103F5000E90081E008959093E900242F762F50E046
:103F6000981731F07091EC002091ED005091F00025
:103F700021FD02C09F5FE8CF3091EB003E7F309380
:103F8000EB003091ED003D7F3093ED003091EB0080
:103F900031603093EB007093EC002093ED00509370
:103FA000F0002091EE0027FDE5CF80E0089580919C
:103FB0005E0387FF13C08091E80082FF06C08091F6
:103FC000E8008B778093E80004C080915D03811145
:103FD000F2CF089580915D038823D9F38091E800A2
:103FE00080FFF8CF8091E8008E77ECCF2091E4003D
:103FF0003091E50095E6A9012091EC00822F8170B7
:1040000020FF06C08091E80080FF06C080E0089590
:104010002091E80022FD1AC080915D03882389F079
:10402000853089F08091EB0085FD0FC02091E40080
:104030003091E50042175307F9F29150E1F684E020
:10404000089582E0089583E0089581E008950E9434
:1040500095200E949D20E0EEF0E0808181608083C9
:10406000E8EDF0E080818F77808319BCA7EDB0E0A8
:104070008C918E7F8C9380818F7E808310925C03E5
:1040800008950F931F93CF93DF930E9495200E9472
:104090009D20C8EDD0E088818F77888388818068F3
:1040A000888388818F7D888319BC10925D0310926C
:1040B000590310925B0310925A0300EE10E0F801CE
:1040C00080818B7F808388818160888342E060E08B
:1040D00080E00E94A31FE1EEF0E080818E7F80836C
:1040E000E2EEF0E08081816080838081886080835F
:1040F000F80180818E7F8083888180618883DF9151
:10410000CF911F910F910895E8EDF0E080818F7EAF
:104110008083E7EDF0E080818160808384E082BF6E
:1041200081E080935C030C944120E8EDF0E0808115
:104130008E7F80831092E20008951092DA00109230
:10414000E10008951F920F920FB60F9211242F9342
:104150003F934F935F936F937F938F939F93AF930F
:10416000BF93EF93FF938091E10082FF0BC080919A
:10417000E20082FF07C08091E1008B7F8093E10025
:104180000E940C238091DA0080FF19C08091D80032
:1041900080FF15C08091DA008E7F8093DA008091D5
:1041A000D90080FF96C080E189BD82E189BD09B454
:1041B00000FEFDCF81E080935D030E94941C8091FE
:1041C000E10080FF19C08091E20080FF15C080915E
:1041D000E2008E7F8093E2008091E2008061809314
:1041E000E2008091D80080628093D80019BC85E0FD
:1041F00080935D030E94A61C8091E10084FF2BC088
:104200008091E20084FF27C080E189BD82E189BD01
:1042100089B5982F917080FFFBCF8091D8008F7D5A
:104220008093D8008091E1008F7E8093E10080919F
:10423000E2008F7E8093E2008091E20081608093B3
:10424000E20080915903882309F449C084E08093F7
:104250005D030E94A71C8091E10083FF29C080912B
:10426000E20083FF25C08091E100877F8093E10019
:1042700082E080935D03109259038091E1008E7F6C
:104280008093E1008091E2008E7F8093E200809134
:10429000E20080618093E20042E060E080E00E9402
:1042A000A31F8091F00088608093F0000E94A51CFD
:1042B000FF91EF91BF91AF919F918F917F916F91FE
:1042C0005F914F913F912F910F900FBE0F901F90D4
:1042D000189519BC10925D030E94A21C70CF8091AA
:1042E000E30087FD93E090935D03B3CF1F920F929D
:1042F0000FB60F9211242F933F934F935F936F93B9
:104300007F938F939F93AF93BF93CF93DF93EF935D
:10431000FF93D091E900DF708091EC00C82FC1704D
:1043200080FDC0E81092E9008091F000877F8093C3
:10433000F00078940E94BA211092E9008091F00078
:1043400088608093F000CD2BCF70C093E900FF917F
:10435000EF91DF91CF91BF91AF919F918F917F911D
:104360006F915F914F913F912F910F900FBE0F90E2
:104370001F9018951F93CF93DF93CDB7DEB7AA9701
:104380000FB6F894DEBF0FBECDBF8EE593E020914F
:10439000F100FC012193CF01F3E086369F07B9F7C6
:1043A0000E94BD1C8091E80083FF1EC180915E03C6
:1043B00090915F039A3008F017C1E92FF0E0EB52BB
:1043C000FC4D0C945023803899F0823809F00CC1D0
:1043D000809162038F70873008F006C18093E900F6
:1043E0008091EB0085FB882780F91092E90006C0D8
:1043F00080915A0390915B03911182609091E80043
:10440000977F9093E8008093F1001092F1008091E3
:10441000E8008E77E5C0882309F4D3C0823009F024
:10442000E3C0809160038111D6C0809162038F70D8
:104430002FEF280F263008F0D7C08093E900209195
:10444000EB0020FFC8C0933031F48091EB00806214
:104450008093EB00C0C09091EB0090619093EB00D3
:1044600021E030E001C0220F8A95EAF72093EA00AC
:104470001092EA008091EB008860EACF8111B4C00D
:10448000109160031F778091E3008078812B8093E7
:10449000E3008091E800877F8093E8000E94D71FA7
:1044A0008091E80080FFFCCF8091E30080688093DA
:1044B000E30082E0111183E080935D0395C0805892
:1044C000823008F091C080916003909161038C3D2F
:1044D00023E09207A1F583E08A838AE289834FB7BC
:1044E000F894DE01139620E03EE051E2E32FF0E085
:1044F00050935700E49120FF03C0E295EF703F5FB7
:10450000EF708E2F90E0EA30C0F0C7968D939D93A8
:104510002F5F243159F74FBF8091E800877F809348
:10452000E8006AE270E0CE0101960E94E61E8091EA
:10453000E8008B778093E80057C0C096E7CF609182
:10454000620370916303AE014F5F5F4F0E94C31D12
:10455000BC01892B09F448C09091E800977F9093A3
:10456000E80089819A810E94441FE1CF8038E1F5FB
:104570008091E800877F8093E800809159038093C1
:10458000F10045CF811130C090916003923060F509
:104590008091E800877F8093E800909359030E9400
:1045A000D71F80915903882311F084E005C08091C2
:1045B000E30087FDFACF81E080935D030E94A91C90
:1045C00013C080916003813079F481E0933009F069
:1045D00080E080935B031092E9008091E800877F80
:1045E0008093E8000E94D71F8091E80083FF0AC0F3
:1045F0008091E800877F8093E8008091EB008062E3
:104600008093EB00AA960FB6F894DEBF0FBECDBF25
:10461000DF91CF911F9108950895CF9380915D030D
:104620008823A1F0C091E900CF709091EC00892F10
:10463000817090FD80E8C82B1092E9008091E8001D
:1046400083FD0E94BA21CF70C093E900CF910895F5
:10465000AA1BBB1B51E107C0AA1FBB1FA617B707A8
:1046600010F0A61BB70B881F991F5A95A9F78095C4
:104670009095BC01CD01089597FB072E16F4009488
:1046800007D077FD09D00E94282307FC05D03EF40F
:10469000909581959F4F0895709561957F4F0895EE
:1046A000EE0FFF1F0590F491E02D099469279627DE
:1046B00069277827872778270895FB01DC0102C046
:1046C00001900D9241505040D8F70895F999FECFCE
:1046D00092BD81BDF89A992780B50895A8E1B0E010
:1046E00042E050E00C949A23262FF999FECF92BD18
:1046F00081BDF89A019700B4021639F01FBA20BDA7
:104700000FB6F894FA9AF99A0FBE08950396272FD8
:104710000E9475230E947423252F0E947523242F45
:104720000C9475230196272F0E9475230C947423F3
:10473000DC01CB01FC01F999FECF06C0F2BDE1BD61
:10474000F89A319600B40D9241505040B8F7089550
:10475000F894FFCFB306C806D406FA06EE06F406B0
:104760007E06BC06E8067E067E067E060407BD0BB6
:10477000BD0B150C150C670CEA0BEA0BEA0B830C4E
:104780000F0D1E0D1E0D7A0DEA0BEA0B830D020EA6
:10479000020E0B0E0B0E0D0E0B0E0B0E0B0E020E61
:1047A000020E120E0B0E0B0E120EE3210B22F42240
:0E47B0000B22F4223E225F22F422B622C22205
:1047BE00EE01038340000001044000000100011CD3
:1047CE004E1C041C4A1C381C01E200E900EA00B52C
:1047DE0000B600B700CD008301CC008A019201948F
:1047EE00012102230224022502260227022A02B3F5
:1047FE0000B4006F0070008182833534C6919094AE
:10480E00E200E900EA00B500B600B700CD00830172
:10481E00CC008A0192019401210223022402250276
:10482E00260227022A02B300B4006F0070008182B4
:10483E0083020302000001000101010101000101D8
:00000001FF
