:100000000C948A030C94C2030C94C2030C94C20394
:100010000C94C2030C94C2030C94C2030C94C2034C
:100020000C94C2030C94C2030C9417250C94EB257A
:100030000C94701F0C94C2030C94C2030C94C20362
:100040000C94C2030C94C2030C94C2030C94C2031C
:100050000C94C2030C94F71F0C94C2030C94C203BB
:100060000C94C2030C94C2030C94C2030C94C203FC
:100070000C94C2030C94C2030C94C2030C94C203EC
:100080000C94C2030C94C2030C94C2030C94C203DC
:100090000C94C2030C94C2030C94C2030C94C203CC
:1000A0000C94C2030C94C2030C94C2034B4C3A2030
:1000B0006B633A203078253034582C20636F6C3ACB
:1000C0002025752C20726F773A2025752C207072B0
:1000D00065737365643A2025622C2074696D653AF6
:1000E0002025752C20696E746572727570743A20C3
:1000F00025622C20636F756E743A2025750A0029DD
:1001000000AB00AE00AB00AE002D78337830782025
:1001100078AE003A003B003C0069000000444542D4
:1001200055473A2064697361626C65642E0A004425
:10013000454255473A20656E61626C65642E0A003F
:100140000A0025303258006C65645F7461736B3A45
:1001500020004F6E6573686F743A2061637469762E
:10016000653A2025640A000A0025303862003A20EA
:100170000025303258000A722F6320303132333478
:100180003536370A007267626C6967687420746973
:100190006D65722064697361626C652E0A00726716
:1001A000626C696768742074696D657220656E6140
:1001B000626C65642E0A007267626C6967687420FD
:1001C00073657420687376205B4E4F454550524FDF
:1001D0004D5D3A2025752C25752C25750A00726712
:1001E000626C696768742073657420687376205B3D
:1001F000454550524F4D5D3A2025752C25752C25CF
:10020000750A007267626C6967687420646973615B
:10021000626C65205B454550524F4D5D3A207267D8
:10022000626C696768745F636F6E6669672E656E7E
:1002300061626C65203D2025750A007267626C69F9
:1002400067687420656E61626C65205B454550523D
:100250004F4D5D3A207267626C696768745F636FC7
:100260006E6669672E656E61626C65203D2025753E
:100270000A007267626C6967687420746F67676CE4
:1002800065205B454550524F4D5D3A207267626C68
:10029000696768745F636F6E6669672E656E616219
:1002A0006C65203D2025750A007267626C6967687D
:1002B00074206D6F6465205B4E4F454550524F4D25
:1002C0005D3A2025750A007267626C696768742060
:1002D0006D6F6465205B454550524F4D5D3A20255A
:1002E000750A007267626C696768745F696E697429
:1002F000207267626C696768745F636F6E666967B6
:100300002E6D6F6465203D20302E20577269746514
:100310002064656661756C742076616C7565732008
:10032000746F20454550524F4D2E0A007267626C23
:10033000696768745F696E6974206565636F6E666E
:100340006967206973206E6F7420656E61626C65E9
:10035000642E0A007267626C696768745F696E690F
:1003600074207374617274210A007267626C696729
:1003700068745F696E69742063616C6C65642E0AD1
:10038000007267626C696768745F636F6E66696745
:100390002E7370656564203D2025640A00726762D3
:1003A0006C696768745F636F6E6669672E76616CEF
:1003B000203D2025640A007267626C696768745F7B
:1003C000636F6E6669672E736174203D2025640A31
:1003D000007267626C696768745F636F6E666967F5
:1003E0002E687565203D2025640A007267686C6977
:1003F0006768745F636F6E6669672E6D6F646520F2
:100400003D2025640A007267626C696768745F63E7
:100410006F6E6669672E656E61626C65203D202592
:10042000640A007267626C696768745F636F6E6606
:10043000696720454550524F4D3A0A0000047F3FFE
:100440001F783C1E000101010101010101010202AE
:100450000202020202020203030303030303030472
:10046000040404040404050505050506060606063D
:10047000070707070708080808090909090A0A0AF7
:100480000B0B0B0C0C0C0D0D0D0E0E0E0F0F0F1099
:100490001011111112121313141415151616171723
:1004A000181819191A1A1B1B1C1D1D1E1E1F20208F
:1004B000212222232424252626272829292A2B2CD9
:1004C0002D2D2E2F30313232333435363738393AFC
:1004D0003B3C3D3E3F404142434445464748494AF4
:1004E0004C4D4E4F50515354555658595A5B5D5EC2
:1004F0005F616264656668696B6C6D6F707273755D
:1005000077787A7B7D7E8082838587888A8C8E8FC0
:1005100091939596989A9C9EA0A2A3A5A7A9ABADEE
:10052000AFB1B3B5B7BABCBEC0C2C4C6C9CBCDCFDC
:10053000D1D4D6D8DBDDDFE2E4E7E9EBEEF0F3F58A
:10054000F8FAFDFF0A002530325820006B65796209
:100550006F6172645F7265706F72743A20006465D7
:100560006C5F6B65795F6269743A2063616E2774B2
:100570002064656C3A20253032580A006164645F5B
:100580006B65795F6269743A2063616E27742061DC
:1005900064643A20253032580A005B735D005B5773
:1005A0005D005B535D005B525D005B445D005B433F
:1005B0005D00120354006100700065006400650076
:1005C00063006B0000000C0347006F0077006C00B5
:1005D000610000000403090409025B00030100A09C
:1005E000FA090400000103010100092111010001C1
:1005F00022400007058103080001090401000103EE
:10060000000000092111010001226D00070582038D
:100610002000010904020002030000000921110169
:1006200000012222000705830320000107050303C0
:100630002000011201000200000008EDFE00000091
:1006400001010200010631FF0974A10109751500BD
:1006500026FF009520750881020976150026FF0007
:10066000952075089102C005010980A10185031933
:10067000012AB700150126B700950175108100C049
:10068000050C0901A101850419012AA00215012602
:10069000A002950175108100C005010906A1018520
:1006A00006050719E029E715002501950875018160
:1006B000020507190029EF1500250195F075018144
:1006C0000205081901290595057501910295017525
:1006D000039101C005010906A101050719E029E7F9
:1006E00015002501950875018102950175088101A4
:1006F0000507190029FF150026FF009506750881DA
:1007000000050819012905950575019102950175E6
:10071000039101C011241FBECFEFDAE0DEBFCDBFD1
:1007200004B603FE18C08091C8029091C902A0913E
:10073000CA02B091CB028730904BA740B04B59F41E
:100740001092C8021092C9021092CA021092CB02F3
:10075000E0E0F8E3099511E0A0E0B1E0E4E3F2E5C0
:1007600002C005900D92A23BB107D9F722E0A2EB9F
:10077000B1E001C01D92A83CB207E1F70E94B2149B
:100780000C94C4280C940000FF93EF93E091B20105
:10079000F091B301309709F00995EF91FF91089519
:1007A000FC018591803011F0EFDFFBCF0895FF272A
:1007B000E0E230E247FF0CC0419597FF09C0EDE24F
:1007C0006095709580959095611D711D811D911D9D
:1007D00027FF02C0219530E350E2AA27660F771F5A
:1007E000881F991FAA1FA41710F0A41B63955A9580
:1007F000A9F7AA3008F0A95FA05DAF93F395611542
:1008000071058105910541F7ED3211F4EF93F395F0
:10081000F21718F43F93F395FBCF8F91B5DFFA955C
:10082000E1F70895E991F9918591803021F08532C1
:1008300019F0AADFF9CF089520E0E89455915532D8
:10084000C1F3503311F4689455915A3348F450531E
:1008500090F3220F022E220F220F200D250FF4CF2E
:100860000EF4219589919991533619F3533729F153
:10087000533559F1BC0188279927E8945C3621F457
:100880008991999168945591543639F446EF7EF0E8
:1008900077FF0DC08FEF9FEF0AC055374AE039F060
:1008A000583540E121F0523642E009F00895FF93B7
:1008B000EF937DDFEF91FF91B7CFFF93EF93FC01B3
:1008C00081918030B9F360DFFBCFFF93EF9368DF56
:1008D000F1CFDF93CF93CDB7DEB72596A3DFCF91CE
:1008E000DF910895807C809300010895873901F19C
:1008F00078F48633F9F030F48433F1F08533F1F095
:100900008FE108958439E1F08639D1F781E20895C5
:10091000843FC1F030F4803FB9F0813F89F781E036
:100920000895863F99F0A0F0873F51F787E008953A
:1009300082E2089585E2089583E2089584E20895AD
:1009400080E2089584E0089580E0089586E00895A7
:1009500085E0089596E890937A00982F90729068B9
:1009600090937B008F7190910001892B80937C0084
:1009700080917A00806480937A0080917A0086FD6D
:10098000FCCF809178002091790090917A009F7738
:1009900090937A00922F08950E9476040E94AA04F0
:1009A0000895811108C089ED611101C08AED0E948E
:1009B000C40780E008958130E1F78DEB6111F7CF36
:1009C0008EEBF5CF80E40E9472040895CF93DF93FD
:1009D0008091B40191E0980F9093B40181113CC0D3
:1009E00084E90E94CC049093BA018093B90121E379
:1009F00030E0DC010E940C282FEF33E040E050E0B3
:100A00000E94E727BA01A9014F5F5F4F6F4F7F4FE9
:100A10005093B6014093B501C091B701D091B80190
:100A20009E012F5F3F4F24173507CCF08091B7010F
:100A30009091B801C091B501D091B6019C012150AF
:100A40003109C217D307D4F08091B5019091B60156
:100A50009093B8018093B701DF91CF9108954C171F
:100A60005D0721F38091B5019091B601C817D907B0
:100A7000ECF689EA0E94C4072196F4CF8C179D07F3
:100A800019F38091B7019091B801C817D907E4F61E
:100A90008AEA0E94C4072196F4CF0E94E6040895D2
:100AA000FB01258122952F701F922F9325812170A4
:100AB0001F922F9324812F9323812F9322811F92A2
:100AC0002F9321811F922F9320811F922F939F9309
:100AD0008F938CEA90E09F938F930E9469048DB767
:100AE0009EB740960FB6F8949EBF0FBE8DBF81E0B3
:100AF00008950F9302E020E04FEF6FEF85E50E942D
:100B0000E8174FEF6FEF85E50E9491170F91089559
:100B1000811112C0633080F4453070F4E42FF0E0AE
:100B200085E0689FE00DF11D1124EE0FFF1FE150DD
:100B3000FF4F85919491089580E090E008950E9480
:100B40008805089581E008950E945005089508954C
:100B50000E94A7050895A5E0B0E0E1EBF5E00C9454
:100B6000222849835A833091C00189819A813111A9
:100B700019C0662399F0222389F00E94760B182F62
:100B8000682F89819A810E94520B69817A81812F15
:100B90000E94FE112596E3E00C943E280E94640B0F
:100BA000182FF3CF0E94760B69817A81F1CFFC0177
:100BB000262F408151816281738184810E94AB051F
:100BC000089581E00895CF93DF93EC0160E00E94E7
:100BD000D705BE010E94A805DF91CF9108950E941C
:100BE0002F1308950E943213089508950E94210A38
:100BF0000E94F5052FEF84E39CE021508040904057
:100C0000E1F700C0000008950E94F6050E941B2035
:100C100008950E94F6050E943F2008950F931F93A8
:100C2000CF93DF938C0161E00E94D705EC01B801FE
:100C30000E94A405811106C080E0DF91CF911F9131
:100C40000F910895B801CE010E944F1D8823A1F392
:100C5000B801CE010E94F01A882371F3B801CE01C9
:100C60000E94C11C882341F3B801CE010E94631A7F
:100C7000882311F3F8018281882369F0C330FCE7EF
:100C8000DF0781F160F4C130ECE7DE0769F1C0F401
:100C9000C115DC4791F0C8010E94A205CECFCB352B
:100CA000ECE7DE0739F1CC35FCE7DF0701F1CA35A7
:100CB000DC4789F70E948B0FEECF0E940406BCCF61
:100CC00090915A02892F8E7F90FF816080935A0203
:100CD00080FF05C08FE291E00E94D003ADCF8DE18F
:100CE00091E0FACF0E94930F0E940906A5CF0E94BF
:100CF000810FD1CF0E948F0FCECF0E944D1F0E9437
:100D0000BF0608950E94C3060E94521F089582954F
:100D100090E09C01220F331F220F331F2C7C9595EE
:100D20008795959587958373282B30E0C901880FA7
:100D3000991F8A7A359527952575822B08950895F0
:100D40000E949F06089581E008950895CF93DF9350
:100D5000D82F0E94A306C82F882319F08D2F0E9438
:100D6000A5068C2FDF91CF9108950895CF93C82FBA
:100D70000E94A0068C2F0E94A606CF91089580E0C5
:100D80000E94B60608950E949D1D0E94B606089511
:100D9000CF930E949D1DC82F8091BB018C1789F1B4
:100DA000C093BB010E94DC1F6093BC017093BD0126
:100DB0008093BE019093BF0180915A0282FF1EC0B2
:100DC00080FF1CC087E491E00E94D00380915A020A
:100DD00080FF14C01F92CF9382E491E09F938F9382
:100DE0000E94690480915A020F900F900F900F900B
:100DF00080FF04C080E491E00E94D0038C2F0E9409
:100E0000B606CF910895ABE0B0E0E9E0F7E00C94CE
:100E100023284F83588769877A878B8761110E94BF
:100E2000B90E1E821D8285E0FE013796DE01119605
:100E300001900D928A95E1F78C819D81892B61F457
:100E400049815A816B817C818D819E810E94E20D56
:100E50002B96E2E00C943F2889819A8189238F3F69
:100E600079F3CE0101960E94E1058111E9CFF0CF1F
:100E7000FC01808191810E94A80B0895CF93C82F17
:100E80008823B9F08CEF8C0F813AA8F46C2F8091F5
:100E90000101909102010E945B1E882329F08C2F92
:100EA0000E94790E0E94DA0E8C2F0E94710E0E9411
:100EB000DA0ECF91089580E28C0F883048F4C77025
:100EC00081E001C0880FCA95EAF70E949C0EEFCF1F
:100ED000EBE5EC0FE33040F4F0E0EA5BFE4F80819D
:100EE00090E00E94FD1DE5CFC85AC93110F7EC2FE4
:100EF000F0E0EE0FFF1FEC5EFE4F808191810E94BB
:100F0000221ED7CF882339F19CEF980F913A28F40D
:100F10000E94790E0E94DA0E089590E2980F9830A0
:100F200050F4877091E001C0990F8A95EAF7892FF4
:100F30000E94A20EEFCF9BE5980F933028F490E02B
:100F400080E00E94FD1D0895885A893120F490E0C8
:100F500080E00E94221E08951F93CF93DF93182FE5
:100F6000EB010E943E07209739F4812F0E948207EF
:100F7000DF91CF911F9108958FE99FE00197F1F7DD
:100F800000C000002197EFCF70E060E0893311F4DA
:100F900060E570E00E94AC070895882321F00E946C
:100FA0009C0E0E94DA0E0895882321F00E94A20E62
:100FB0000E94DA0E0895B0E0A0E0E1EEF7E00C94B4
:100FC0001C286C01D62FC72FFC011281F580F294EA
:100FD0009FE0F9220E94920EE82E8823B9F0E12EBC
:100FE0001123A1F08C2F807F803421F080E28D0FBF
:100FF0008830D0F08091A20282FF16C082E00E9469
:101000003D0F0E94920E91E0E82EE926BC2EB2948C
:101010008FE0B822FBE0FB1508F468C0EB2DF0E090
:10102000EA53F74D0C940628E12CF0CF0C2F0F70EB
:10103000C07F11F00295007F112399F0002359F031
:1010400080E28D0F883010F0D11107C0802F0E94F0
:101050009C0E0E94DA0E8D2F41C0802F0E94AC0E94
:10106000F8CF8D2F0E948207002309F43FC080E251
:101070008D0F883010F0D11104C0802F0E94A20E75
:1010800003C0802F0E94B20E0E94DA0E2FC00C2FD8
:101090000F70C07FC03211F00295007FDD2381F018
:1010A000D13009F468C0112309F472C0FF2009F49B
:1010B00068C0F601858180FFCECF8F70858361C0C7
:1010C0008091A20282FD33C0112359F0002329F040
:1010D000802F0E949C0E0E94DA0E80E00E943E0744
:1010E00005C080E00E9482070111C7CFEB2DE850B8
:1010F000FF0B349720F40E949D1D0E94B606EE203F
:1011000089F00E948E0E80FD0DC0F60112820E94B1
:10111000880E0E94B00AC6010E94E5090E94880E4E
:101120000E94C00ACDB7DEB7E9E00C94382811233D
:1011300089F0F11006C00E94BC0E802B0E94CD07E2
:10114000D5CF21E0F212F7CF0E94BC0E802B0E9477
:10115000C30ECCCFF11006C00E94D00E802F0E948B
:10116000D407C4CF31E0F31609F2802F0E94D407D0
:101170000E94D00EBBCF112331F085E08F1508F40B
:10118000B5CF802FDBCF94E09F1508F4AFCFE6CF2B
:10119000FF2021F3D93349F4FFEF27EE33E0F1507C
:1011A00020403040E1F700C000008D2F0E948207F0
:1011B0009DCF8C2F86958695837069F0813009F0DC
:1011C00095CF8D2F9C2F9370111102C080E090E07D
:1011D0000E94221E8BCF8D2F9C2F9370111102C065
:1011E00080E090E00E94FD1D81CF8C2F8370A1F5DF
:1011F00011117CCF4D2F429546954770440F440FF7
:101200002D2F2F7030E0042E02C0220F331F0A94BE
:10121000E2F790E080E0D4FF09C08FE090E002C0E8
:10122000880F991F4A95E2F780959095C695C695C7
:10123000C370822B932BC23049F058F4C13019F09F
:101240000E94800A53CF0E94770A50CF0E94890AD9
:101250004DCF0E94740A4ACF8695112311F08C2F2E
:101260008170882309F442CF4D2F429546954770EF
:10127000440F440F2D2F2F7030E0042E02C0220F98
:10128000331F0A94E2F790E080E0D4FF09C08FE0BA
:1012900090E002C0880F991F4A95E2F780959095DB
:1012A000C695C695C370822B932BC23049F058F473
:1012B000C13019F00E94EB0A19CF0E94E20A16CF42
:1012C0000E94F40A13CF0E94980A10CFCF70112306
:1012D00029F08C2F0E94B00A8D2F30CF8D2F0E94C5
:1012E000D4078C2F0E94C00A01CFD23F51F160F485
:1012F000D03FB9F0D13F81F0112309F449C0F1107A
:10130000AACE8C2F8F7121C0D33F11F1D43FA1F70A
:101310008091A20282FD26C08C2F8F71112311F3C0
:1013200014C0112349F084E08F1508F4DFCE8C2F10
:101330008F710E94D20ADACE95E09F1508F4D6CEBE
:10134000F6CF8C2F8F711111CDCF0E94B00ACECE67
:10135000112329F08C2F8F710E94A40AC7CE0E94FE
:101360009F0AC4CE112349F0CF718C2F0E94B00A7E
:1013700063E08C2F0E941F0FB9CE81E00E943D0FC9
:10138000E1E0EF1508F0B2CE82E00E943D0FAECE54
:10139000F11000CF8C2F8F71A5CF0F931F93CF9398
:1013A000DF93EC01688179818A810E94B30B8C0103
:1013B0000E94FD0A0E94730AB801CE010E94DB0759
:1013C000DF91CF911F910F910895CF93DF93EC019F
:1013D0008B819C81892B29F08881998189238F3F7A
:1013E00051F4DF91CF910895CE010E94CD09CE0135
:1013F0000E94E305F6CFCE010E940E068111F4CFC4
:101400000E94920E882369F38A81882351F3809188
:10141000A20282FFE6CF82E00E943D0FE2CF90E081
:1014200080E00E94FD1D90E080E00E94221E0E944C
:10143000B90E0E94DA0E08950E94810E0E940F0AD2
:1014400008950E94A90E0E941C0A089592959F700B
:10145000963091F058F4925F9F70923058F4803F2C
:1014600019F030F4883E30F481E008959A5FF4CFAB
:10147000843FD1F380E00895883EB0F3813FD1F7F7
:10148000F3CFFC0183819481892B29F080819181A4
:1014900089238F3F11F480E00895808191810E941B
:1014A000A80B0E94260A0895A5E0B0E0EAE5FAE05C
:1014B0000C9423282596E2E00C943F28A6E0B0E0A7
:1014C000E4E6FAE00C9423282696E2E00C943F2808
:1014D00008950E94680A08950E94690A9093CC01B9
:1014E0008093CB01089508950E946C0A089520917D
:1014F000CB013091CC01822B932B0E946C0A089572
:101500002091CB013091CC01822393230E946C0A5D
:1015100008952091CB013091CC01822793270E941E
:101520006C0A08950E94680A08950E94920A08951C
:101530000E94950A9093CA018093C901089590E092
:1015400080E00E94980A089521E030E0A90102C0DD
:10155000440F551F8A95E2F7CA010E94980A089520
:1015600021E030E002C0220F331F8A95E2F780911C
:10157000C9019091CA01822B932B0E94980A089569
:1015800021E030E002C0220F331F8A95E2F7209558
:1015900030958091C9019091CA01822393230E94C2
:1015A000980A089521E030E002C0220F331F8A9587
:1015B000E2F78091C9019091CA01822793270E9486
:1015C000980A08952091C9013091CA01822B932B6A
:1015D0000E94980A08952091C9013091CA0182237E
:1015E00093230E94980A08952091C9013091CA015D
:1015F000822793270E94980A08950895262F27701E
:1016000091E001C0990F2A95EAF723E07695679556
:101610002A95E1F7660F771F660F771FFA01E60F2D
:10162000F71F50E040E0682F70E08191DF011197D3
:101630009B01042E02C0369527950A94E2F721708B
:1016400021952827292328272C934F5F5F4F44306B
:10165000510559F70895A82FA77023E0969587950F
:101660002A95E1F7880F991F880F991FFB01E80F52
:10167000F91F50E040E080E0219130E00A2E02C0E6
:10168000369527950A94E2F721703327042E01C07E
:10169000220F0A94EAF7822B4F5F5F4F44305105C7
:1016A00059F70895262F933070F4853060F4682F31
:1016B00070E085E0989F600D711D112441EC51E0B0
:1016C000822F0E94FE0A0895292F933068F48530F6
:1016D00058F490E061EC71E035E0239F800D911D9E
:1016E00011240E942B0B089580E00895B0E0A0E043
:1016F000ECE7FBE00C941C287C010091C9011091DF
:10170000CA018091CB019091CC01082B192BCFE01D
:10171000D0E0CC24C394D12CBC2EC6010C2E02C028
:10172000880F991F0A94E2F780239123892B49F4AB
:10173000219790F7B12C8B2DCDB7DEB7E9E00C9453
:101740003828B7018C2F0E940A12019789F3F3CF32
:10175000CF93DF93EC010E94760BBE010E940A1228
:10176000DF91CF9108951F93CF93DF93EB01909179
:10177000C001992339F0CB010E94A80BDF91CF91D2
:101780001F910895882369F0CB010E94760B182FD2
:10179000682FCE010E94520BBE01812F0E940A12B7
:1017A000EDCFCB010E94640B182FF6CF1F93CF9380
:1017B000DF93C091CD0116E08091CE018C1304C05F
:1017C000DF91CF911F910895D0E01C9FF0011D9FE4
:1017D000F00D1124E153FE4F4081518162817381EC
:1017E000848195810E945E0A2196C770E5CF409161
:1017F000FF015091000260910102709102028091FC
:101800000302909104020E945E0A08951F93CF93F1
:10181000DF9380910402807F09F049C0809101022A
:10182000882309F444C08091CD01C091CE0160911C
:10183000FF0170910002A0910202B0910302D62F25
:10184000D72316E0C81799F190E0109711F0DF3F09
:1018500019F401968770F6CF189F9001199F300DEB
:101860001124F901E153FE4F41814713F2CF40812A
:101870004613EFCF42814111ECCF438154814A1B83
:101880005B0B483C510528F7809104028F70806102
:1018900080930402F901EC52FE4F80818F708061C9
:1018A00080838FEF91E00E94E5090E94D60BDF91C3
:1018B000CF911F910895A1E1B0E0E1E6FCE00C9426
:1018C0001B288C0185E0F801DE011D9601900D9228
:1018D0008A95E1F7F801E2808FEFC82E81E0D82EDB
:1018E00060910202709103026115710509F44EC105
:1018F0009091FF0120910002892F82238F3F09F4EC
:1019000045C140815181A380B480F0900102F5016E
:10191000E61BF70BFF2009F4EAC080910402382F80
:10192000307FE83CF10508F0A3C031116DC0FE2CFA
:10193000251316C0941314C0E11012C08F7080617B
:10194000809304020E94F70BC6010E94E509809172
:101950000402F80185838F2D6196EAE00C94372804
:10196000A114B10429F0842F85238F3F09F027C1EA
:1019700080E0F82FF170DF2E80FF3CC08091CD0118
:101980002091CE0136E0821315C04D875E878D858C
:101990009E850E94A80B292F22952F702230F0F0EF
:1019A000243018F59F70F1F0F8019581907FD1F403
:1019B000D12C1EC090E0389FF001399FF00D11240A
:1019C000E153FE4F6181651306C06081641303C05B
:1019D0006281E6120FC001968770D5CF9F7011F01B
:1019E000882331F3805E883018F3C8010E94E5092E
:1019F000FD2CB1CFEE2009F4AECF809104028160BE
:101A000080930402F12CA7CF251306C0941304C0C1
:101A1000F801EE2009F487C0C8010E94410A88231A
:101A200019F1EE2009F180910402803270F02091CA
:101A3000FF013091000238872F831986BB86AA8662
:101A40008C87CE0107960E94E50986E0F801AFEF8A
:101A5000B1E001900D928A95E1F70E94060C0E9478
:101A6000F70BFF24F39477CFC8010E94E509F9CF63
:101A7000311113C07A2DB98AA88A6E2D89890E94E6
:101A8000540A8FEF91E00E94E50986E0F601119279
:101A90008A95E9F70E94F70BB5CF25130FC0941371
:101AA0000DC0E1100BC0F8018583C8010E94E50953
:101AB00086E0F60111928A95E9F74DCFC8010E94A0
:101AC000410A882389F2EE2079F280910402803263
:101AD00008F4BBCF2091FF01309100023A832983A3
:101AE0001B82BD82AC828E83CE010196ACCFE83CD6
:101AF000F10508F03EC0FE2CEE2009F4B5CF251309
:101B00002AC0941328C08091040280FD1BC0982F26
:101B1000907FC1F0F8018583903F31F0982F907F3E
:101B2000905F8F70892B8583C8010E94E50986E04C
:101B3000F801AFEFB1E001900D928A95E1F70E94B4
:101B4000F70B09CF86E0F801AFEFB1E001900D92FD
:101B50008A95E1F700CFC8010E94410A811175CF33
:101B600080910402816080930402C8010E94E5090B
:101B7000F2CE7A2DB98AA88A6E2D89890E94540ADC
:101B800086E0F60111928A95E9F7D9CFEE2009F4A3
:101B90006BCFC8010E94410AF82E882309F464CF54
:101BA00086E0F801AFEFB1E001900D928A95E1F780
:101BB0008FEF91E00E9438070E94060CC0CF81E0B1
:101BC0008E25D7CEACE0B0E0E8EEFDE00C94222804
:101BD0004F83588769877A878B879C87CE010796C2
:101BE0000E945B0C882369F08A859B85892B39F0DC
:101BF0004F815885842F85238F3F09F06BC016E0F5
:101C00005FC086E0FE013796DE01119601900D92CD
:101C10008A95E1F78A859B85892B89F38F81988541
:101C200089238F3F61F32091CE0130E0C9010196F5
:101C3000877099274091CD014817190671F40E94C9
:101C4000210A1092CE011092CD0186E0EFEFF1E073
:101C5000DF011D928A95E9F7D2CF96E0929FD001DD
:101C6000939FB00D1124A153BE4FFE0131960190F8
:101C70000D929A95E1F78093CE010E94D60BBFCFCB
:101C8000819FC001112481539E4F0E945B0C8823C9
:101C9000E9F0E091CD011E9FF0011124E153FE4FC8
:101CA0004081518162817381848195810E945E0AA5
:101CB0008091CD0190E00196877099278093CD01A6
:101CC0008091CD019091CE018913DACF2C96E3E07B
:101CD0000C943E2869857A858B859C850E945E0AD6
:101CE0008ECF682F80910101909102010E94FD1E0C
:101CF0000895682F80910101909102010E940B1FAD
:101D0000089580910101909102010E94191F089588
:101D10008091250285958595859508958091250268
:101D20008770089590912502977081E009F480E012
:101D3000089580914802089590914802892B8093DC
:101D40004802089580959091480298239093480204
:101D5000089510924802089590914702892B80932C
:101D600047020895809590914702982390934702E7
:101D700008951092470208958091260208950895CB
:101D80000E94BF0E08959091A20292FF08C0909108
:101D90002602981721F0809326020E94C00E089513
:101DA00080912602882329F01092260280E00E946A
:101DB000C00E0895CF93DF93E0910101F0910201ED
:101DC000809148028083E0910101F09102018081BD
:101DD00090914702892B808390912602992381F06C
:101DE000E0910101F09102018081892B8083809133
:101DF0000101909102010E94471E81110E94D00EA4
:101E0000C0910101D091020140E250E065E072E032
:101E1000CE010E946628892B59F080E2FE01A5E0E0
:101E2000B2E001900D928A95E1F7CE010E94AA1DC1
:101E3000DF91CF91089508950E941B0F089590910E
:101E4000A20292FF11C098E0899F90011124622B99
:101E5000609325020E94B00A8091250285958595A0
:101E600085950E941C0F08950E94B00A0895109253
:101E7000250280E00E941C0F089590912502809514
:101E8000892380932502282F277091F4282F082E6C
:101E9000000C330B9217130659F09091A20292FF97
:101EA00007C08595859585950E94C00A0E94370FC9
:101EB0000895CF93C82F8091A20282FB992790F9B1
:101EC0009C17E9F0C0FB82F98093A2028091A102E5
:101ED0009091A2020E94B40F82E00E943D0F809177
:101EE0005A0280FF0CC01F92CF9382E591E09F932E
:101EF0008F930E9469040F900F900F900F90CF91D5
:101F000008958091A20282FB882780F991E08927B9
:101F10000E94590F089581E00E94590F089580E0B2
:101F20000E94590F08956FEF7FEF90E080E00E94CC
:101F3000AE28089590E080E00E948A2821E0873E44
:101F40009E4F09F020E0822F089582E090E00E94E9
:101F50007C28089583E090E00E947C28089584E026
:101F600090E00E948A280895BC0184E090E00E94DD
:101F7000AE280895AB01BC018FE090E00E94A2283A
:101F80000895AB01BC0183E190E00E94A22808956E
:101F900060E070E0CB010E94C10F089560E070E046
:101FA000CB010E94BA0F0E94C80F089567EE7EEF22
:101FB00090E080E00E94AE2860E082E090E00E9425
:101FC000902860E083E090E00E9490281092CC017D
:101FD0001092CB0160E074E184E090E00E94AE28B2
:101FE00060E086E090E00E9490286FEF87E090E04C
:101FF0000E94902840E050E0BA0188E090E00E9402
:10200000A22860E08DE090E00E94902840E050E03F
:10201000BA0188E190E00E94A22860E087E190E0A8
:102020000E94902840E050E0BA018CE190E00E94CC
:10203000A22870E060E080E290E00E94AE2840E0DC
:1020400050E0BA0188E190E00E94A2280E94CE0FE1
:1020500008950E94D60F0895682F8EE090E00E94A8
:10206000902808950E94DC1F6093560270935702D7
:1020700080935802909359026093520270935302D6
:10208000809354029093550208950E94DC1F609340
:1020900056027093570280935802909359026093AE
:1020A0004E0270934F028093500290935102089514
:1020B000089508950E94591008950E947905089581
:1020C0008EEE91E20E94931D0E9458100E945A10B9
:1020D000089581E008950E94691008950895089573
:1020E0000E946E100E946F1008950E9411130E94AA
:1020F000B50608950E94C71F0E94D31B0E941414A6
:102100000E9475100E9442190E945D100895AAE075
:10211000B0E0EDE8F0E10C941B280E942A14109125
:102120004B0280E00E943513811339C010914C029C
:1021300081E00E943513181332C010914D0282E0E5
:102140000E94351318132BC00E94D01F8C01809160
:10215000490290914A0208171907A1F08FEF89836D
:102160008A831B820E94D01F8160782F9D838C837D
:1021700049815A816B818D810E94030710934A0225
:10218000009349020E94EC190E94441C81110E9494
:1021900045100E94C8062A96EAE00C9437288091E0
:1021A0005A0281FD0E943B130E946B10C82E8BE4E3
:1021B000A82E82E0B82E10E0812F0E943513082F40
:1021C000F50181915F01081731F1D02ED826F12C4D
:1021D000EE24E3948D2D8E21B1F0CC20A1F0FE826F
:1021E0001F8391E0802F8E2109F490E098870E9450
:1021F000D01F8160782F9A8789874E815F8168859B
:102200008A850E940307F394EE0CF5E0FF12E2CFFB
:10221000F501319700831F5F133071F60E94321071
:10222000B1CFCF93DF930E940F12EC01811520E50F
:102230009207D0F5811530E4930708F086C0803E00
:10224000910518F58D3C910508F07DC0883A9105FF
:1022500070F4853A910508F06EC08130910501F166
:102260000097F1F00497E0F4D0E0C0E019C0813CA1
:102270009105D0F7C85AD0E0CC0FDD1FC75BDE4F09
:102280000990D881C02DD4640BC08115904208F00C
:10229000A8C0C11581E0D80718F4C83ED10520F7C1
:1022A000CE01DF91CF910895803622E5920710F597
:1022B000803432E5930708F052C08032924508F02E
:1022C00047C0C11582E5D80708F47DC02C2F26959C
:1022D000269540E2249F900111248C2F8370C1E049
:1022E000D0E002C0CC0FDD1F8A95E2F7C22BD32BC2
:1022F000DD68D6CF803A22E5920760F4803832E577
:10230000930708F441C0CF71D0E0DC2FCC27C46F15
:10231000D06AC6CF803C42E5940708F449C0C03E6D
:1023200082E5D80708F0A0CFDC2FCC27CC27DF71BF
:10233000C06FD06AB5CFC55AD0E0C558DE4FC8814E
:10234000D0E0D064ADCFD065ABCFDF70D06AA8CF7E
:10235000CF71D0E0DC2FCC27C16FD06AA1CF282F5E
:1023600026952695277080E2289F900111248C2FB6
:102370008370C1E0D0E002C0CC0FDD1F8A95E2F788
:10238000C22BD32BDC688CCF282F2695269527705F
:1023900040E2249F900111248370C1E0D0E002C08C
:1023A000CC0FDD1F8A95E2F7C22BD32BDA6878CFEA
:1023B0008F710E94B112C82FD0E0DC2FCC27CC2720
:1023C000DF71D0626DCF8C2F8F710E94B11235E01A
:1023D000D695C7953A95E1F7CF709C2FEC01D0695F
:1023E0005FCF8D2F8F710E94B11290E0982F8827B8
:1023F00088279F719C012C2BE901E3CF462F733076
:1024000030F4653020F4672F0E949F05089590E016
:1024100080E008950E94FE110E94111108958238F3
:102420009105B9F1B0F48133910509F47DC048F408
:102430008932910509F46DC08A32910509F47BC097
:1024400008958533910509F45FC08933910509F139
:102450000895833E9105D9F138F4803E910529F124
:10246000823E910579F10895863E9105D9F1873E26
:10247000910509F43EC0843E910541F52091A202E8
:1024800021FF24C08091A10284FD19C087EE90E055
:1024900008952091A102237009F05AC02091A20250
:1024A00023FF14C089E290E008952091A10220FD4D
:1024B00038C03091A20230FF09C024FF43C090E031
:1024C00080E008952091A10222FDF7CF0895209188
:1024D000A10222FD3AC03091A20230FD39C024FF92
:1024E000F5CFEDCF2091A10223FFF0CF24FDE7CF60
:1024F000CDCF2091A10223FD2EC03091A20231FF49
:10250000EECF84EE90E008952091A10225FFDECF6A
:10251000C9CF2091A10225FD21C02091A20223FF55
:10252000D5CF89E390E0D2CF2091A10226FFCECF74
:102530008AE290E008952091A10226FFC7CF81E3AF
:1025400090E0089583EE90E0089582EE90E0089583
:1025500080EE90E0089586EE90E0089585E390E0A7
:1025600008959091A10292FF06C0282F287128306B
:10257000F9F4877F846093FF06C0282F28712831E3
:10258000F1F4877E84612091A20220FF06C0382FDB
:1025900038713830D9F4877F816021FF06C0282F39
:1025A00028712831D1F4877E816194FD877E08955A
:1025B000282F24712430F9F68B7F8860DCCF282FF8
:1025C0002471243101F78B7E8861DDCF382F317182
:1025D000313019F78E7F8860E0CF282F21712131AB
:1025E00021F78E7E8861E1CF0E94930F08950E94AB
:1025F0002A142FEF86E791E0215080409040E1F7C8
:1026000000C000000E942A1480E00E94351380FF61
:1026100004C00E94F4120E941B2008950E94F71229
:1026200008950E949A0F811102C00E9429100E94F1
:10263000A50F80935A020E94AF0F9093A20280933D
:10264000A1020E940E130E94AA0F90E00E94740A39
:102650008091C9019091CA010E94950A08950E9433
:10266000E20408950E944D050895E82FF0E0EA5530
:10267000FD4F80810895B0E0A0E0E1E4F3E10C9427
:102680001D2886E791E00E94D00386EAE82E82E0CA
:10269000F82ED0E0C0E091E7C92E91E0D92E09E6EE
:1026A00011E0DF93CF93DF92CF920E9469048EE610
:1026B00091E00E94D003F70181917F010E9487067B
:1026C0001F928F931F930F930E94690487E691E0F6
:1026D0000E94D00321968DB79EB708960FB6F89446
:1026E0009EBF0FBE8DBFC330D105D9F6CDB7DEB7C3
:1026F000E8E00C94392880EA8A95F1F7089500C043
:1027000008950E947B130895F894E82FE295EF70E6
:10271000F0E031A1282F2F7081E090E001C0880FF8
:102720002A95EAF7982F9095932391A392A1892B4C
:1027300082A378940895CF93DF93CEE7D1E0899177
:102740008F3F11F00E94841381E0C338D807B9F796
:1027500082E30E94841383E30E94841381E30E9436
:102760008413DF91CF910895B0E0A0E0EAEBF3E1AC
:102770000C941D287C01162F042FC62FD0E0CE010B
:1027800082589E4F6C01EC0128812F3F09F444C010
:10279000F894E22FE295EF70F0E031A12F7081E024
:1027A00090E001C0880F2A95EAF7932F982B91A308
:1027B00092A18095892382A378940E947F13A3E835
:1027C000B1E0F70146E851E0F12C602F60959D9152
:1027D00080819F3F31F1292F22952F7030E0E90150
:1027E00028A130E09F7002C0359527959A95E2F7B1
:1027F00020FD17C0802B8083FF24F39431964A1765
:102800005B0729F7F60180818F3F11F00E94841346
:102810006F2D812F0E948113CDB7DEB7E8E00C94B5
:10282000392886238083EACF0E949B1383E0E6EA5F
:10283000F2E0DF01982F1D929A95E9F7E3EAF2E0C2
:10284000DF011D928A95E9F783E00E9466140E94D9
:10285000EF050895A3E0B0E0E0E3F4E10C94212853
:1028600019821A821B8210E001E0402F612FCE01F5
:1028700001960E94B4131F5F000F1530B1F743E0BB
:1028800050E0BE016F5F7F4F83EA92E00E946628AE
:1028900021E0009709F420E0892B49F089819A8191
:1028A000AB818093A3029093A402A093A50243E07E
:1028B00066EA72E083EA92E00E946714182F0E9491
:1028C000F205812F2396E4E00C943D280895CF92E1
:1028D000DF92EF92FF920F931F93CF936C017B01D6
:1028E000042F222349F081E080935D020E94D01FD3
:1028F00090935C0280935B02C0915D02C1110AC09B
:10290000C0E08C2FCF911F910F91FF90EF90DF903F
:10291000CF90089580915B0290915C020E94E81F25
:10292000059770F310E0A801B601C7010E94662860
:10293000892B41F0A801B601C7010E9473281092AB
:102940005D02DFCFC0E0FBCF0E946A220E947A10B6
:102950000E94772208950E947C220E9487100E9484
:102960009A2208950E94691F0E9450220E946010BE
:102970000E94A4140E94AB140E947010FBCFEF922F
:10298000FF920F931F93CF93DF93EB01E82FD111A9
:102990000EC0442321F0F0E0EC5BFB4FE4916E2F7E
:1029A0007E2F8E2FCDB7DEB7E6E00C943B280D2F9F
:1029B00010E0282F30E0442329F02C5B3B4FF90135
:1029C000249130E0F6E0CF9FC0011124EFEFF0E05A
:1029D000BF010E949D27AB018C2F90E0880F991FAB
:1029E000A5E5A49FB001A59F700D1124861B970B30
:1029F000982F990F980FBF01601B710B629FD00138
:102A0000639FB00D729FB00D11248B2F9D9FB0015D
:102A10001124672F7727EF01C61BD70BBE01629FDA
:102A2000E001639FD00D729FD00D11247F01E91A40
:102A3000F108E09EB001E19E700DF09E700D112432
:102A4000672F7727E61BF70BE29F8001E39F100DAE
:102A5000F29F100D1124E12F722F4230510599F091
:102A600048F44115510569F04130510581F0EB2FD3
:102A70008D2F07C04430510569F080F04630510574
:102A8000B1F76E2F8FCFE22F7B2F812FFACFE22F5E
:102A90007D2FF7CFEB2F822F712FF3CF7B2F822F3C
:102AA000ED2FEFCF41E00E94BF14089508950E94DA
:102AB00052150895CF93DF93762FE901682F842F65
:102AC0000E945715798368838A83DF91CF91089597
:102AD000423E08F041EE0E945A1508958091A902E5
:102AE000982F9E7F61F4817082608093A90280910B
:102AF000AC02823E18F081EE8093AC0208958231E0
:102B0000B0F381708061F1CF88E090E00E9484286A
:102B10000895CF92DF92EF92FF926B017C010E94A9
:102B20006E15B701A60188E090E00E94A228FF90F0
:102B3000EF90DF90CF900895E9EAF2E083E08083A0
:102B400011828FEF828381EE838314826081718191
:102B5000828193810E948915089580915A0280FF95
:102B600076C083E294E09F938F930E9469048091E2
:102B70005A020F900F9080FF6AC08091A902817065
:102B80001F928F9386E094E09F938F930E94690435
:102B900080915A020F900F900F900F9080FF57C0B6
:102BA0008091A90286951F928F938BEE93E09F935D
:102BB0008F930E94690480915A020F900F900F909A
:102BC0000F9080FF44C08091AA021F928F9381EDE5
:102BD00093E09F938F930E94690480915A020F9013
:102BE0000F900F900F9080FF32C08091AB021F9228
:102BF0008F9387EB93E09F938F930E94690480915A
:102C00005A020F900F900F900F9080FF20C080917C
:102C1000AC021F928F938DE993E09F938F930E9454
:102C2000690480915A020F900F900F900F9080FFCF
:102C30000EC08091AD021F928F9381E893E09F9325
:102C40008F930E9469040F900F900F900F9008953A
:102C50008091A90280FF02C08695089580E00895C2
:102C60009091AD02933018F49F5F9093AD0288234A
:102C700051F06091A9027091AA028091AB029091EB
:102C8000AC020E948915089581E00E9430160895D3
:102C90009091AD02992319F091509093AD02882341
:102CA00051F06091A9027091AA028091AB029091BB
:102CB000AC020E948915089581E00E94481608958B
:102CC00070E00E94C41A0895609106018091A902E3
:102CD00080FF0BC08091050123E0829FC001112479
:102CE00082559D4F0E946016089580910701909132
:102CF000080123E0829FF0011124E255FD4F89175E
:102D000048F71182108212828F5F3396F8CF90912C
:102D1000A90290FF0EC0909107012091080133E0B5
:102D2000939FF0011124E255FD4F921718F00E9475
:102D3000641608958183608342839F5F3396F5CF45
:102D4000A3E0B0E0E6EAF6E10C9423289091A90212
:102D500090FF0AC09E012F5F3F4F0E9468154B8174
:102D600069818A810E9487162396E2E00C943F28AD
:102D7000CF93DF93EC01E9EAF2E0438162818C8139
:102D80000E94A0168C818F5F8C83DF91CF91089574
:102D9000A3E0B0E0EEECF6E10C941F28182F062F0C
:102DA000F42EE22E8091A90280FF43C0E82FE69521
:102DB000F0E0EA57FE4F9081909367028E7F823059
:102DC000E1F59E012F5F3F4F812F0E9468154B81D7
:102DD00069818A810E9487161093AA020093AB0230
:102DE000F092AC02EE2071F16091A9027091AA02FA
:102DF0008091AB029091AC020E94891580915A0299
:102E000080FF17C08091AC021F928F938091AB021C
:102E10001F928F938091AA021F928F938EED91E063
:102E20009F938F930E9469040FB6F894DEBF0FBE84
:102E3000CDBF2396E6E00C943B28923069F61091C2
:102E4000AA02CACF80915A0280FFF3CF1F92FF924D
:102E50001F920F931F921F9387EB91E0E1CFE9EA56
:102E6000F2E09181282F438162818AE0890F0E94DC
:102E7000C816089581E00E942F170895E9EAF2E04C
:102E80009181282F4381628186EF890F0E94C816A5
:102E9000089581E00E943E170895E9EAF2E0628118
:102EA00021E1620F08F46FEF282F438181810E9496
:102EB000C816089581E00E944D170895E9EAF2E0EE
:102EC000628121E1621B08F460E0282F4381818147
:102ED0000E94C816089581E00E945E170895E9EAED
:102EE000F2E0438121E1420F08F44FEF282F628185
:102EF00081810E94C816089581E00E946F1708958D
:102F0000E9EAF2E0438121E1421B08F440E0282F86
:102F1000628181810E94C816089581E00E94801715
:102F2000089520E00E94C8160895A3E0B0E0EBE900
:102F3000F7E10C9421288C0180915E0281110AC076
:102F40009E012F5F3F4F41EE6FEF0E9468158A810F
:102F500080935E02F8016481613069F080915E02C5
:102F600040E0662361F040E0623011F440915E027F
:102F700080E060E004C060915E0240E080E00E947A
:102F80008716F801848190E0019663E070E00E946A
:102F9000B12784832396E4E00C943D280F9390910D
:102FA000A90290FF13C0201788F4043078F493E04E
:102FB000299FF0011124E255FD4F818360834283F4
:102FC0002F5F33960213F9CF0E9464160F91089574
:102FD000A3E0B0E0EEEEF7E10C942128122F9091DF
:102FE000A90290FF0BC09E012F5F3F4F0E94681502
:102FF000212F4B8169818A810E94CE172396E4E0BC
:103000000C943D280F931F93CF93DF93809107017A
:103010009091080123E0829FF0011124E255FD4FB9
:10302000891740F1C0E0D3E060910901C61740F173
:103030000E9464162091030180915F02820F8093A9
:103040005F0290910401920F90930401191654F4B9
:10305000082E000C990B409109014150550B841723
:1030600095071CF0219520930301DF91CF911F91CB
:103070000F9108951182108212828F5F3396D0CF04
:103080000C2F10E070E0C8010E94B12720910701C9
:10309000820F482F50E020915F02022E000C330B6C
:1030A00002171307BCF020910401022E000C330B11
:1030B000201731077CF08D9F9001112422553D4F40
:1030C0004091AC026091AB028091AA020E94681507
:1030D000CF5FAACFFA01EE0FFF1FE40FF51FE255F5
:1030E000FD4F118210821282F3CF6091A902669582
:1030F00070E041E050E08AE091E00E945928892B7D
:1031000019F481E0809368020E94D01F90936102BD
:103110008093600280915A0280FF08C08EE991E09E
:103120009F938F930E9469040F900F9008951092BF
:10313000680280915A0280FF08C085E891E09F9361
:103140008F930E9469040F900F9008959091A902A7
:1031500090FF3EC0917081113CC092609093A90293
:103160006623F1F16091A9027091AA028091AB02ED
:103170009091AC020E94891580915A0280FF0FC085
:103180008091A90286951F928F9387EC92E09F937E
:103190008F930E9469040F900F900F900F90609191
:1031A000A902669570E041E050E08AE091E00E945B
:1031B0005928892B09F10E94971881E080936302B6
:1031C0004091AC026091AB028091AA020E949117DB
:1031D0000895893010F09061C1CF880F982BBECF31
:1031E00080915A0280FFDBCF8091A90286951F92C1
:1031F0008F9389EA92E0CBCF0E947518DECF682FBB
:103200009091A902969581E0890F893008F081E0BC
:103210000E94A618089581E00E94FF180895682F63
:103220009091A90296958FEF890F09F488E00E948A
:10323000A618089581E00E940F19089561E00E9488
:10324000A61808958091A90281608093A9028091B7
:103250005A0280FF0DC01F9281E08F938BE392E0B2
:103260009F938F930E9469040F900F900F900F907F
:103270008091A90286950E941E19089560E00E941F
:10328000A618089580916602811160C080915A024B
:1032900080FF14C08AE693E09F938F930E94690495
:1032A00080915A020F900F9080FF08C084E593E050
:1032B0009F938F930E9469040F900F900E949A0F22
:1032C000811110C080915A0280FF08C08CE293E007
:1032D0009F938F930E9469040F900F900E94291072
:1032E0000E949C150E9484156093A9027093AA0203
:1032F0008093AB029093AC026E7FC1F480915A022E
:1033000080FF08C083EE92E09F938F930E94690430
:103310000F900F900E949C150E9484156093A90243
:103320007093AA028093AB029093AC020E946E1538
:103330000E94AD15109268028091A90280FF03C01F
:1033400086950E943E1981E08093660208958091DF
:10335000A9028E7F8093A9026091A9027091AA02AE
:103360008091AB029091AC020E94891580915A0223
:1033700080FF0FC08091A90281701F928F9383E01C
:1033800092E09F938F930E9469040F900F900F908B
:103390000F900E9497180E946416089580915A0217
:1033A00080FF10C08091A902809581701F928F9339
:1033B00082E792E09F938F930E9469040F900F9091
:1033C0000F900F908091A90280FF03C00E94A7195F
:1033D00008950E94221908950F931F93CF93DF93AE
:1033E000809168028823B9F180916702E091A90277
:1033F000E695E81BE0936202823091F5F0E0EF5B26
:10340000FB4FE491CE2FD0E008EB16E180916302F0
:10341000882361F0109263020E94D01F9093610292
:103420008093600210926502109264020E94D01F85
:10343000E0916002F09161028E1B9F0B8F3F9F47CE
:1034400050F4CE0FDF1FD0936102C093600280E67C
:1034500092E0F8010995DF91CF911F910F910895A6
:10346000853049F4F0E0E25CFB4FE491CE2FD0E0F0
:1034700002E018E1CBCFC0EDD7E006E515E18830DA
:1034800029F6ECE3F4E0C591D49105E917E1BECF4C
:10349000FA01811101C0FB0109950895CF93DF93D3
:1034A000C82FD62F0E9428168C1748F00E94281685
:1034B0008D1728F40E940B19DF91CF9108958C2F5E
:1034C0000E941E19F9CF1F93CF93DF93EC01FB01EC
:1034D0001281111110C00E94990E8272FE01E052F9
:1034E000F847E531F10508F04DC0EE52F74D0C9468
:1034F00006280E94CE19812FDF91CF911F91089548
:103500004AE159E16BE079E10E94481AF4CF4BE0BF
:1035100059E16AE179E1F8CF49E457E16AE377E1FB
:10352000F3CF4AE357E169E477E1EECF4BE657E1A9
:103530006AE577E1E9CF4AE557E16BE677E1E4CF69
:103540004DE857E16CE777E1DFCF4CE757E16DE8F5
:1035500077E1DACF4CE556E164E476E1D5CF44E497
:1035600056E16CE576E1D0CF81E00E941E19C3CF11
:1035700064E082E00E944E1ABECF67E085E0FACF99
:1035800088E0F3CF11E0B7CF269A45B14F7B55B114
:103590005064EFB7F8949B01220F331F260F371F9B
:1035A000280F391F2817390741F4EFBF8FE594E042
:1035B0000197F1F700C000000895DC016D91CD0185
:1035C00078E055B9000000C067FF45B9660F0000FC
:1035D00000C000C000C045B900C07A9591F7E2CFA5
:1035E000CF93DF93EC01FB018281882309F4D2C0E1
:1035F0009E0130572332310508F0B2C00E94AF0F50
:103600009093A2028093A102FE01E150F047E232C2
:10361000F10520F4E951F74D0C9406288091A102A0
:1036200081608093A10293C08091A2028860809300
:10363000A2028DC08091A1028260F3CF8091A1028D
:103640008460EFCF8091A1028860EBCF8091A202CD
:103650008160EDCF8091A2028260E9CF8091A102CA
:103660008061DFCF8091A1028062DBCF8091A102D7
:103670008064D7CF0E94210A8091A1028068D1CFB7
:103680008091A1028C60CDCF8091A2028360CFCFC8
:103690008091A1028E7FC5CF8091A202877FC7CF84
:1036A0008091A1028D7FBDCF8091A1028B7FB9CF88
:1036B0008091A102877FB5CF8091A2028E7FB7CF84
:1036C0008091A2028D7FB3CF8091A1028F7EA9CF7E
:1036D0008091A1028F7DA5CF8091A1028F7BA1CF88
:1036E0000E94210A8091A1028F779BCF8091A10235
:1036F000837F97CF8091A2028C7F99CF8091A10286
:1037000082FB992790F921E0922790FB82F990FBA8
:1037100083F987CF8091A202982F909591708E7F28
:10372000892B90FB81F983CF9091A102892F8F7B08
:1037300096FF806476CF0E94210A9091A102892F82
:1037400097FB87F980586DCF81E00E942C10809103
:10375000A1029091A2020E94B40F0E94210A80E06F
:10376000DF91CF91089580E0F0CF9091A102892F51
:103770008F7E94FF806155CF9091A102892F8E7F1B
:1037800090FF81604ECF9091A202892F877F93FF97
:1037900088604DCF81E0E4CF8FE891E00197F1F7A9
:1037A00000C000000895FF920F931F93CF93DF9303
:1037B00082E080936B0201EA11E0CFE9D1E0AE0133
:1037C000D80121E030E08D91E82FE295EF70F0E034
:1037D000F1A08F70B90101C0660F8A95EAF7962FA4
:1037E00090959F2191A382A1862B82A3FA018191BA
:1037F000AF01E82FE295EF70F0E0F1A08F70B90112
:1038000001C0660F8A95EAF7962F90959F2191A3A4
:1038100082A1862B82A3F1E0A33ABF07A1F60E9402
:10382000CC1B60916B024EE652E0FA018E2F841B96
:10383000861728F0CDB7DEB7E5E00C943C28D80118
:103840002D918D01A22FA295AF70B0E090968C9132
:1038500090E02F7002C0959587952A95E2F78170C8
:103860009991A92FA295AF70B0E090962C9130E07D
:103870009F7002C0359527959A95E2F790E020FD5C
:1038800092E0892B8193D2CFB0E0A0E0EAE4FCE1A2
:103890000C941D28F12CE12C84E0C82ED12C8091B1
:1038A0006B02F81630F08E2DCDB7DEB7E8E00C9441
:1038B00039280F2D10E0F801EF55FE4F8081E82FD9
:1038C000E295EF70F0E0E0A1F0E08F7002C0F595B6
:1038D000E7958A95E2F7E170D801A156BE4F2C9189
:1038E000A22FA295AF70B0E090968C9190E02F70CF
:1038F00002C0959587952A95E2F780FD40C080E04B
:103900008E2BD801A259BD4FEC919E2F9370981722
:10391000A1F1EE0FEE0FE82BEC93EF70F0E0E15722
:10392000FE4FE801C459DD4F80819881890F88835B
:1039300020E084305CF0F801E759FD4F80818F5F13
:10394000808360E08F2D0E94D10421E088818D3F2B
:103950005CF4F801E759FD4F80818150808361E07C
:103960008F2D0E94D10421E08881082E000C990B34
:10397000B6010E94B1278883E22AF39490CF82E0B7
:10398000BFCFCF93DF93EB0186319C4711F50E94A7
:10399000990E9A81992399F08A7A91E009F490E03E
:1039A00090937002811109C089E20E94710E0E94F9
:1039B000DA0E80E0DF91CF91089585E3F6CF809114
:1039C0007002811104C089E20E94790EF0CF85E374
:1039D000FBCF81E0EFCF0F931F93CF93DF93C42FE3
:1039E000D22FFC0182818823C9F0409373020E9488
:1039F000D01F909372028093710280E28C0F883006
:103A000040F4C77081E001C0880FCA95EAF70E94B0
:103A1000CD07DF91CF911F910F91089510917302FF
:103A2000141332C080917102909172020E94E81FBB
:103A3000883C910548F5C0E2CD0F1D17B9F080E232
:103A4000810F883040F4177081E001C0880F1A950B
:103A5000EAF70E94D407C83048F481E09D2F9770A0
:103A600001C0880F9A95EAF70E94CD07802F0E9427
:103A7000C407C83070F6D77081E001C0880FDA95AE
:103A8000EAF70E94D407C5CF80E28C0F883008F691
:103A9000C77081E001C0880FCA95EAF7F2CF0F9393
:103AA000DB0188519C4787309105A0F5FC01E75F59
:103AB000F64D0C94062806E221EE41EE6AE17CE721
:103AC000CD010E94EB1C80E00F91089507E225EEE6
:103AD00045EE6BE17CE7F4CF06E221EE40EE68E1D3
:103AE0007CE7EECF07E225EE44EE69E17CE7E8CF24
:103AF00006E221EE42EE6CE17CE7E2CF07E225EE42
:103B000046EE6DE17CE7DCCF08E221E045EE6EE1B8
:103B10007CE7D6CF12968C91882319F0109273020D
:103B2000D3CF81E0D1CF9093B3018093B2010895B8
:103B300090937902809378020895E0917802F09151
:103B40007902309729F00190F081E02D09950895D0
:103B500080E00895EF92FF920F931F93CF93DF932E
:103B6000EC01E0917802F0917902309709F440C0BD
:103B700080911301882341F08091A10287FF04C046
:103B80008881898386E088830280F381E02DCE01DD
:103B9000099580915A0282FF2BC080FF04C08CE4FB
:103BA00095E00E94D00310E000E086E4E82E85E076
:103BB000F82E80915A0280FF0EC0FE01E00FF11F27
:103BC00080811F928F93FF92EF920E9469040F9061
:103BD0000F900F900F900F5F1F4F0830110549F79E
:103BE00080915A0280FF04C084E495E00E94D003D3
:103BF000CDB7DEB7E6E00C943B28A3E0B0E0E3E00D
:103C0000FEE10C9423282091760230917702281748
:103C10003907A1F09093770280937602E0917802C1
:103C2000F0917902309751F023E029839B838A83B6
:103C30000680F781E02DCE01019609952396E2E0FA
:103C40000C943F28A3E0B0E0E8E2FEE10C942328C6
:103C5000209174023091750228173907A1F09093D2
:103C6000750280937402E0917802F09179023097A6
:103C700051F024E029839B838A830680F781E02D1D
:103C8000CE01019609952396E2E00C943F28FC01B1
:103C9000329680911301882321F08091A1029EE148
:103CA00087FF96E080E0915008F408952191222347
:103CB000D1F38F5FF8CF662301F120911301222306
:103CC000F1F02091A10227FF1AC0462F4695469594
:103CD00046954E3190F4677021E030E002C0220F2B
:103CE000331F6A95E2F7840F911DFC01828190E0F9
:103CF0002823392381E0232B69F480E00895FC0117
:103D0000329608962191261721F0E817F907D1F786
:103D1000F4CF81E008959C01FC0132969FEF80E092
:103D20004191461751F09F3F19F4411101C0982F5E
:103D30008F5F8630A9F79F3F09F40895290F311D41
:103D400097FD3A95F90162830895FC013296089631
:103D50002191261303C0DF0111971C92E817F90780
:103D6000B9F70895E62FE695E695E695EE3170F4FD
:103D7000E80FF92FF11D677021E030E001C0220F3C
:103D80006A95EAF78281822B8283089580915A0294
:103D900080FF0CC01F926F938CE795E09F938F93E9
:103DA0000E9469040F900F900F900F900895E62FD6
:103DB000E695E695E695EE3178F4E80FF92FF11DDA
:103DC000677021E030E001C0220F6A95EAF7209584
:103DD000828128232283089580915A0280FF0CC09B
:103DE0001F926F938EE595E09F938F930E946904D5
:103DF0000F900F900F900F900895209113012223A0
:103E000039F02091A10227FF03C00E94B21E08953D
:103E10000E948B1E089520911301222339F02091D6
:103E2000A10227FF03C00E94D71E08950E94A51E6D
:103E30000895FC01329680911301882351F08091FE
:103E4000A10287FF06C08EE1DF011D928A95E9F786
:103E5000089586E0F9CF08950E942B1F08958111DF
:103E600006C081E080937A020E942C1F089582E0B0
:103E7000F9CF83E080937A020E942C1F08950E945C
:103E80002F1F089581E080937A020E942C1F0895CD
:103E90000E94421F0895089508950E944C1F08959E
:103EA000089508950E944B1F0895CF930E94501FBC
:103EB0000E942A140E94511FC0E08C2F0E943513CB
:103EC000811105C0CF5FC330C1F7CF91089581E064
:103ED000FCCF85B7806885BF85B7806885BF0895AA
:103EE0001F921FB61F9211248F939F93AF93BF937E
:103EF00080917B02811113C08091B7029091B8022A
:103F0000A091B902B091BA024196A11DB11D809352
:103F1000B7029093B802A093B902B093BA02BF91CE
:103F2000AF919F918F911F901FBE1F901895809108
:103F3000BF02843031F10E947D0610927B0288E13D
:103F400090E020E40FB6F894A895809360000FBE2F
:103F50002093600083B7817F846083BF83B78160D3
:103F600083BF7894889583B78E7F83BF0FB6F8940C
:103F7000A895809160008861809360001092600035
:103F80000FBE08950E94210A0E948206089582E0D1
:103F900084BD93E095BD9AEF97BD80936E00089520
:103FA0002FB7F8948091B7029091B802A091B9020E
:103FB000B091BA022FBF08952FB7F8946091B7025D
:103FC0007091B8028091B9029091BA022FBF089502
:103FD0009C014FB7F8948091B7029091B802A091DC
:103FE000B902B091BA024FBF821B930B0895789427
:103FF0001F921FB61F9211248F939F93AF93BF936D
:104000008091B7029091B802A091B902B091BA0222
:104010000196A11DB11D8093B7029093B802A093A1
:10402000B902B093BA02BF91AF919F918F911F9047
:104030001FBE1F90189581E08093E00080E280937E
:10404000D8001092C9008FE19EE40197F1F700C0FB
:10405000000087E090EBDC018093C8029093C902D6
:10406000A093CA02B093CB0288E19CE00FB6F8940B
:10407000A895809360000FBE90936000FFCF88E109
:104080009CE00FB6F894A895809360000FBE9093C3
:104090006000FFCF80919F02089508959B01BA01AF
:1040A0009091BF029430E9F48F708093E9009FEF04
:1040B0008091E800915085FD06C085ED8A95F1F765
:1040C00000009111F5CF8091E80085FF0AC050E013
:1040D00040E0C9010E940B238091E8008E77809315
:1040E000E800089543E050E0BC0182E00E944E20C9
:1040F0000895CF93DF93EC0180911301811111C0DA
:1041000048E050E0BE0181E00E944E2080E2FE01C6
:10411000AFE7B2E001900D928A95E1F7DF91CF9180
:1041200008958091A10287FF05C040E282E050E03F
:10413000BE01EACF48E081E0FACF8EEA95E00E9426
:10414000D0038091BE02811109C00E949B240E946D
:10415000F8248091E20084608093E20008958AEA66
:1041600095E00E94D0031092BE02089586EA95E081
:104170000E94D0030E94421F089582EA95E00E94A7
:10418000D0036091BB0281E0611101C080E00E9418
:10419000391F08958EE995E00E94D0039091BF02E7
:1041A00081E0943009F080E06091BB020E943F1FE3
:1041B000089520917D022F5F822F62E30E94912754
:1041C000992319F020937D02089510927D02809129
:1041D0007E028823F1F08091BF028430C1F4909177
:1041E000E9009F702091EC00822F817020FD80E813
:1041F000892B93E09093E9009091EB0090FF04C02D
:104200009091EE0097FD08C08F708093E9001092A6
:104210007E0208951092F1009091E80095FDFACF8A
:104220009091E80090FFF0CF9091E8009E779093F6
:10423000E800EACF42E061EC81E00E94172442E20C
:1042400061EC82E00E94172442E261EC83E00E946C
:1042500017249091BF0281E0943009F080E06091D2
:10426000BB020E942F1F08958091C102833009F480
:1042700061C030F48130D1F1823009F49EC00895DC
:104280008A3009F48AC08B3009F46FC0893009F094
:1042900050C08091C002813209F04BC08091C402AD
:1042A0009091C502029708F044C08091E800877F92
:1042B0008093E8008091E80082FF37C09091F3007E
:1042C0008091F200029731F48091F100813011F079
:1042D000863021F48091F10080939F028091E80064
:1042E0008B778093E8000E944B2423C08091C0020A
:1042F000813AF9F48091E800877F8093E80080910B
:10430000C4029091C502892B61F460E28FE792E0CC
:1043100070E00E945A238091E8008B778093E80038
:10432000089560E090E080E0F3CF8091BF028111BA
:10433000C1CF08958091C002813AD9F78091C4021B
:104340009091C502892BA9F78091E800877F80931F
:10435000E8008091E80080FFFCCF809113018093FA
:10436000F1008091E8008E77BCCF8091C00281324D
:1043700001F78091C4029091C502892BD1F68091FA
:10438000E800877F8093E8000E944B248091C2025E
:10439000809313010E94210A08958091C002813206
:1043A00041F68091E800877F8093E8000E944B24CB
:1043B0008091C3028093A00208958091C002813A47
:1043C00009F0B7CF8091E800877F8093E800809163
:1043D000E80080FFFCCF8091A002C1CF9FB7F89486
:1043E00010927E029FBF9091BF02943009F048C0A6
:1043F0002091E9002F703091EC00932F917030FDE7
:1044000090E8922B23E02093E9002091EB0020FF1D
:1044100034C02091EE0027FF30C020917C0222237F
:1044200021F02091E80025FF28C010927C0226E0B0
:104430003091E80035FF14C08093F1008091E800CE
:1044400085FD27C08091E80080FFFCCF8091E800C7
:104450008E778093E8009F709093E90080E0089544
:104460003091BF02343049F43091EB0035FD05C086
:10447000215041F481E080937C029F709093E90089
:104480008FEF0895EFE9FFE03197F1F700C00000EA
:10449000CFCF8FB7F89421E020937E028FBFDBCF80
:1044A00084B7877F84BF0FB6F894A8958091600089
:1044B000886180936000109260000FBE80E890E0F9
:1044C0000FB6F89480936100909361000FBE0E9434
:1044D000481F08950E949B240E94F824E2EEF0E019
:1044E00080818460808378940E94762708958BE091
:1044F00091E00E94981D08958091BF02853051F48B
:104500008AE995E00E94D0038091BF02853019F0BE
:104510000E94C21F08950E94971F8091BD028823A8
:1045200099F30E94551F882379F30E94F5220E9477
:10453000210AEACF08950E949E220895292F332749
:104540002330310521F168F42130310509F443C0ED
:104550002230310509F444C090E080E030E020E0F2
:1045600026C02132310551F122323105A9F76330DD
:10457000710590F7FB01EE0FFF1FEA55FE4F2081FA
:1045800031816D557E4FFB01808190E010C09927ED
:104590008130910581F0009729F00297E9F6E2EB6E
:1045A000F5E002C0E4EDF5E0849190E09F01FA01AE
:1045B000318320830895E6ECF5E0F6CF6330710592
:1045C00058F6660F771FFB01E455FE4F20813181BD
:1045D00089E090E0ECCF82E190E023E336E0E7CFA2
:1045E0008BE590E028ED35E0E2CF80E189BD82E106
:1045F00089BD09B400FEFDCF8091D8008F7D8093E6
:10460000D8008091E00082608093E0008091E0001B
:1046100081FDFCCF0895AF92BF92CF92DF92FF92BF
:104620000F931F93CF93DF936C01EB018A010E94DC
:104630006A24F82E811123C00115110539F0F80103
:1046400080819181C81BD90BC80ED91EB12CA12C19
:104650002097A9F08091E80085FD22C08091E800B4
:104660008E778093E80001151105A1F0F801808193
:104670009181A80EB91EB182A08285E0F82E8F2DFF
:10468000DF91CF911F910F91FF90DF90CF90BF905E
:10469000AF9008950E946A248823D1F2F82EEFCFBC
:1046A000F60181916F018093F1002197FFEFAF1A1E
:1046B000BF0ACECFFC018091C6029091C702861737
:1046C0009707A0F06115710529F49091E8009E7795
:1046D0009093E80090E06115710551F4911108C0C4
:1046E0008091E80082FF34C080E00895BC01F2CFE1
:1046F0008091BF028823C1F18530C1F18091E8002B
:1047000083FD30C08091E80082FDEACF8091E8000F
:1047100080FFE1CF8091F3002091F200382F6115E6
:10472000710519F02830310558F091E02830310535
:1047300009F090E02091E8002E772093E800CBCF9D
:1047400081918093F100615071092F5F3F4FE7CF56
:104750008091BF02882341F0853041F08091E800CC
:1047600083FFBECF81E0089582E0089583E008953D
:10477000FC018091C6029091C70286179707A0F0AE
:104780006115710529F48091E8008E778093E80027
:1047900090E06115710551F4911108C08091E80015
:1047A00082FF35C080E00895BC01F2CF8091BF0246
:1047B0008823C9F18530C9F18091E80083FD31C0BB
:1047C0008091E80082FDEACF8091E80080FFE1CF90
:1047D0008091F3002091F200382F6115710519F0D6
:1047E0002830310558F091E02830310509F090E08B
:1047F0008091E8008E778093E800CBCF84918093FE
:10480000F1003196615071092F5F3F4FE6CF8091E3
:10481000BF02882341F0853041F08091E80083FF9A
:10482000BDCF81E0089582E0089583E00895982F38
:10483000973028F08F708093E90081E0089590937D
:10484000E900242F762F50E0981731F07091EC009A
:104850002091ED005091F00021FD02C09F5FE8CF54
:104860003091EB003E7F3093EB003091ED003D7FC7
:104870003093ED003091EB0031603093EB0070939A
:10488000EC002093ED005093F0002091EE0027FD06
:10489000E5CF80E008958091C00287FF13C080912A
:1048A000E80082FF06C08091E8008B778093E800E3
:1048B00004C08091BF028111F2CF08958091BF02A0
:1048C0008823D9F38091E80080FFF8CF8091E80039
:1048D0008E77ECCF2091E4003091E50095E6A901B8
:1048E0002091EC00822F817020FF06C08091E800AB
:1048F00080FF06C080E008952091E80022FD1AC0E4
:104900008091BF02882389F0853089F08091EB0087
:1049100085FD0FC02091E4003091E5004217530758
:10492000F9F29150E1F684E0089582E0089583E081
:10493000089581E008950E940A250E941225E0EE64
:10494000F0E0808181608083E8EDF0E080818F7706
:10495000808319BCA7EDB0E08C918E7F8C93808111
:104960008F7E80831092BE0208950F931F93CF9382
:10497000DF930E940A250E941225C8EDD0E08881AD
:104980008F77888388818068888388818F7D8883FA
:1049900019BC1092BF021092BB021092BD0210927D
:1049A000BC0200EE10E0F80180818B7F808388815B
:1049B0008160888342E060E080E00E941724E1EE9D
:1049C000F0E080818E7F8083E2EEF0E08081816084
:1049D0008083808188608083F80180818E7F8083DE
:1049E000888180618883DF91CF911F910F91089515
:1049F000E8EDF0E080818F7E8083E7EDF0E080815C
:104A00008160808384E082BF81E08093BE020E9447
:104A1000B5240895E8EDF0E080818E7F80831092C8
:104A2000E20008951092DA001092E10008951F92BA
:104A30000F920FB60F9211242F933F934F935F93D2
:104A40006F937F938F939F93AF93BF93EF93FF9356
:104A50008091E10082FF0BC08091E20082FF07C0DD
:104A60008091E1008B7F8093E1000E94D9208091AA
:104A7000DA0080FF19C08091D80080FF15C08091B6
:104A8000DA008E7F8093DA008091D90080FF96C093
:104A900080E189BD82E189BD09B400FEFDCF81E0DE
:104AA0008093BF020E949D208091E10080FF19C089
:104AB0008091E20080FF15C08091E2008E7F80939C
:104AC000E2008091E20080618093E2008091D80052
:104AD00080628093D80019BC85E08093BF020E9459
:104AE000BD208091E10084FF2BC08091E20084FF13
:104AF00027C080E189BD82E189BD89B5982F917079
:104B000080FFFBCF8091D8008F7D8093D80080916B
:104B1000E1008F7E8093E1008091E2008F7E8093A0
:104B2000E2008091E20081608093E2008091BB020C
:104B3000882309F449C084E08093BF020E94CA2000
:104B40008091E10083FF29C08091E20083FF25C0AE
:104B50008091E100877F8093E10082E08093BF0233
:104B60001092BB028091E1008E7F8093E1008091E2
:104B7000E2008E7F8093E2008091E200806180936A
:104B8000E20042E060E080E00E9417248091F000A3
:104B900088608093F0000E94B620FF91EF91BF9152
:104BA000AF919F918F917F916F915F914F913F91C5
:104BB0002F910F900FBE0F901F90189519BC109257
:104BC000BF020E94AF2070CF8091E30087FD93E089
:104BD0009093BF02B3CF1F920F920FB60F92112482
:104BE0002F933F934F935F936F937F938F939F93F5
:104BF000AF93BF93CF93DF93EF93FF93D091E900EF
:104C0000DF708091EC00C82FC17080FDC0E8109269
:104C1000E9008091F000877F8093F00078940E94F3
:104C20002F261092E9008091F00088608093F000B8
:104C3000CD2BCF70C093E900FF91EF91DF91CF9121
:104C4000BF91AF919F918F917F916F915F914F91A4
:104C50003F912F910F900FBE0F901F901895AAE2D1
:104C6000B0E0E5E3F6E20C94222880EC92E020919B
:104C7000F100FC012193CF01F2E0883C9F07B9F7D6
:104C80000E9434218091E80083FF1EC18091C00200
:104C90009091C1029A3008F017C1E92FF0E0E05F6F
:104CA000F64D0C940628803899F0823809F00CC132
:104CB0008091C4028F70873008F006C18093E900AC
:104CC0008091EB0085FB882780F91092E90006C0EF
:104CD0008091BC029091BD02911182609091E80098
:104CE000977F9093E8008093F1001092F1008091FB
:104CF000E8008E77E5C0882309F4D3C0823009F03C
:104D0000E3C08091C2028111D6C08091C4028F702D
:104D10002FEF280F263008F0D7C08093E9002091AC
:104D2000EB0020FFC8C0933031F48091EB0080622B
:104D30008093EB00C0C09091EB0090619093EB00EA
:104D400021E030E001C0220F8A95EAF72093EA00C3
:104D50001092EA008091EB008860EACF8111B4C024
:104D60001091C2021F778091E3008078812B80939D
:104D7000E3008091E800877F8093E8000E944B2445
:104D80008091E80080FFFCCF8091E30080688093F1
:104D9000E30082E0111183E08093BF0295C0805848
:104DA000823008F091C08091C2029091C3028C3D84
:104DB00023E09207A1F583E08A838AE289834FB7D3
:104DC000F894DE01139620E03EE051E2E32FF0E09C
:104DD00050935700E49120FF03C0E295EF703F5FCE
:104DE000EF708E2F90E0EA30C0F0C7968D939D93C0
:104DF0002F5F243159F74FBF8091E800877F809360
:104E0000E8006AE270E0CE0101960E945A23809188
:104E1000E8008B778093E80057C0C096E7CF609199
:104E2000C4027091C502AE014F5F5F4F0E949B228A
:104E3000BC01892B09F448C09091E800977F9093BA
:104E4000E80089819A810E94B823E1CF8038E1F59A
:104E50008091E800877F8093E8008091BB02809377
:104E6000F10045CF811130C09091C202923060F5BF
:104E70008091E800877F8093E8009093BB020E94B6
:104E80004B248091BB02882311F084E005C08091FF
:104E9000E30087FDFACF81E08093BF020E941A21D0
:104EA00013C08091C202813079F481E0933009F01F
:104EB00080E08093BD021092E9008091E800877F36
:104EC0008093E8000E944B248091E80083FF0AC091
:104ED0008091E800877F8093E8008091EB008062FA
:104EE0008093EB00AA96E3E00C943E28CF93809148
:104EF000BF028823A1F0C091E900CF709091EC002F
:104F0000892F817090FD80E8C82B1092E900809174
:104F1000E80083FD0E942F26CF70C093E900CF9157
:104F20000895991B79E004C0991F961708F0961B05
:104F3000881F7A95C9F780950895AA1BBB1B51E17C
:104F400007C0AA1FBB1FA617B70710F0A61BB70BF9
:104F5000881F991F5A95A9F780959095BC01CD019E
:104F6000089597FB072E16F4009407D077FD09D01B
:104F70000E949D2707FC05D03EF4909581959F4F98
:104F80000895709561957F4F0895A1E21A2EAA1B8E
:104F9000BB1BFD010DC0AA1FBB1FEE1FFF1FA217E9
:104FA000B307E407F50720F0A21BB30BE40BF50BE6
:104FB000661F771F881F991F1A9469F7609570956F
:104FC000809590959B01AC01BD01CF010895052E00
:104FD00097FB1EF400940E94FE2757FD07D00E9405
:104FE000C52707FC03D04EF40C94FE27509540953E
:104FF000309521953F4F4F4F5F4F08959095809585
:10500000709561957F4F8F4F9F4F0895EE0FFF1F53
:105010000590F491E02D09940E944A28B7FF089565
:10502000821B930B08952F923F924F925F926F9243
:105030007F928F929F92AF92BF92CF92DF92EF9228
:10504000FF920F931F93CF93DF93CDB7DEB7CA1BA9
:10505000DB0B0FB6F894DEBF0FBECDBF09942A88D4
:10506000398848885F846E847D848C849B84AA847C
:10507000B984C884DF80EE80FD800C811B81AA8109
:10508000B981CE0FD11D0FB6F894DEBF0FBECDBFD4
:10509000ED010895A29FB001B39FC001A39F700DC1
:1050A000811D1124911DB29F700D811D1124911D30
:1050B0000895FC014150504030F001900616D1F7A0
:1050C0003197CF010895882799270895FB01DC01C6
:1050D00004C08D910190801921F441505040C8F7CF
:1050E000881B990B0895FB01DC0102C001900D9211
:1050F00041505040D8F70895F999FECF92BD81BD37
:10510000F89A992780B50895A6E1B0E044E050E010
:105110000C94B628A8E1B0E042E050E00C94B62828
:10512000262FF999FECF92BD81BDF89A019700B460
:10513000021639F01FBA20BD0FB6F894FA9AF99A00
:105140000FBE08950396272F0E9491280E94902851
:10515000252F0E949128242F0C9491280196272F07
:105160000E9491280C949028DC01CB01FC01F99954
:10517000FECF06C0F2BDE1BDF89A319600B40D92A3
:1051800041505040B8F70895F894FFCF160816081C
:1051900047084708D908760876087608F5086609AA
:1051A00075097509791A801A871A8C1A911A961A34
:1051B0009B1AA01AA51AAA1AAF1AB41A7B1AB81AFF
:1051C0007B1A7B1ABD1A7B1A7B1AC01A7B1A481BE2
:1051D000BC1B501B1A1B1E1B541B221B581B641B81
:1051E0002E1BB51B321B681B361B6C1B941B3A1BFA
:1051F000701B9B1B401B761B7E1B261B5C1B2A1BEC
:10520000601B441B7A1B8A1BA41BB31B141B4C1B67
:10521000C31B6C1D721D5B1D661D781D7E1D841DCC
:1052200053267B2664277B266427AE26CF26642759
:0452300026273227D4
:1052340040270201020003000303014A2079204DA4
:1052440020722001E200E900EA00B500B600B700D0
:10525400CD008301CC008A01920194012102230232
:1052640024022502260227022A02B300B4006F009A
:1052740070009F01CB01818283E200E900EA00B55E
:1052840000B600B700CD008301CC008A01920194DE
:10529400012102230224022502260227022A02B344
:1052A40000B4006F0070009F01CB0181828335340C
:1052B400C697663233310001020202050505080073
:1052C400FF0100010000FFFF0000010001FF00F5E5
:1052D400F7F4F6406D22D40667064506EA05030690
:0252E4001C06A6
:1070000055C00000B7C00000B5C00000B3C000000C
:10701000B1C00000AFC00000ADC00000ABC00000B8
:10702000A9C00000A7C00000F0C00000A3C000007D
:10703000A1C000009FC000009DC000009BC00000D8
:1070400099C0000097C0000095C0000093C00000E8
:107050000FC300008FC000008DC000008BC0000077
:1070600089C0000087C0000085C0000083C0000008
:1070700081C000007FC000007DC000007BC0000018
:1070800079C0000077C0000075C0000073C0000028
:1070900071C000006FC000006DC000006BC0000038
:1070A00069C0000067C0000065C0000011241FBE59
:1070B000CFEFDAE0DEBFCDBF89E0E3E0F0E0809320
:1070C0005700849180FD12C004B601FE0AC081E021
:1070D00020918B0130918C0122343C4D19F080E0DD
:1070E00001C081E094B79D7F94BF11C004B603FE38
:1070F0000AC081E020918B0130918C0122343C4DFB
:1071000019F080E001C080E094B7977F94BF30E031
:1071100020E0F901459154918823B9F04F3F5F4F2A
:10712000A1F084B7877F84BF0FB6F894A8958091AB
:107130006000886180936000109260000FBE109222
:107140008C0110928B01F901099511E0A0E0B1E0EA
:10715000EAEEFEE702C005900D92AE36B107D9F710
:1071600021E0AEE6B1E001C01D92AB38B207E1F715
:107170008DD2B9C645CF8091820187FF11C0809121
:10718000E80082FF06C08091E8008B7F8093E800D2
:1071900003C08EB38111F3CF08958EB38823E1F33A
:1071A0008091E80080FFF9CF8091E8008E7FEECFDC
:1071B000EAE7F1E082819381582F492F84819581FC
:1071C00098278927982750937901409378019093C5
:1071D0007701809376010895815098F09091F300A3
:1071E0002091F200392F232B69F49091E8009B7FC6
:1071F0009093E8009091E80092FDEECF9EB391113C
:10720000F9CF08959091F100E7CF0F920FB60F924A
:107210001F9211248F939F938091DA0080FF16C0F4
:107220008091D80080FF12C08091DA008E7F809319
:10723000DA008091D90080FF83C080E189BD82E1BE
:1072400089BD09B400FEFDCF81E08EBB8091E100D5
:1072500080FF16C08091E20080FF12C08091E200A2
:107260008E7F8093E2008091E20080618093E20053
:107270008091D80080628093D80019BC85E08EBBD5
:107280008091E10084FF27C08091E20084FF23C049
:1072900080E189BD82E189BD89B5982F917080FF19
:1072A000FBCF8091D8008F7D8093D8008091E10042
:1072B0008F7E8093E1008091E2008F7E8093E200D8
:1072C0008091E20081608093E20080918A018823AE
:1072D000D1F184E08EBB8091E10083FF2AC08091D0
:1072E000E20083FF26C08091E100877F8093E10068
:1072F00082E08EBB10928A018091E1008E7F8093A4
:10730000E1008091E2008E7F8093E2008091E200B4
:1073100080618093E2008091EB0081608093EB00BC
:107320001092ED001092EC0082E28093ED008091CB
:10733000EE009F918F911F900F900FBE0F901895A8
:1073400019BC1EBA83CF8091E30087FD93E09EBBFA
:10735000C2CF9FB7F89407B600FCFDCFF999FECFD6
:10736000809529E0E1E0F0E0082E20935700E895B1
:107370009FBF089589E0E1E0F0E080935700849199
:10738000089529E0FC01209357008491089521E29B
:10739000FC01209357008491089507B600FCFDCFAF
:1073A000F999FECF21E0FB010A0120935700E895EF
:1073B000112408950F931F93611520E7720781052B
:1073C000910550F48B019C010F7711272227332759
:1073D000012B022B032B19F01F910F9108952FB74A
:1073E000F89407B600FCFDCFF999FECF35E0FB011C
:1073F00030935700E89507B600FCFDCF81E18093FC
:107400005700E8952FBFE8CF0F931F93611520E732
:1074100072078105910550F48B019C010F771127AC
:1074200022273327012B022B032B19F01F910F91D9
:1074300008952FB7F89407B600FCFDCFF999FECF59
:1074400033E0FB0130935700E89507B600FCFDCF11
:1074500081E180935700E8952FBFE8CFCF92DF926C
:10746000EF92FF921F93CF93DF9300D00F92CDB78F
:10747000DEB780917A0190917501992309F442C099
:10748000843039F580917B01811126C080917C0187
:107490008F3F11F580917B01833009F09EC081E020
:1074A0008093710180917C01E0918001F0918101D4
:1074B000309709F477C08130D1F480917E019091AA
:1074C0007F019827892798279093700180936F01F7
:1074D0000EC0853009F49CC08AE08093010183E0EE
:1074E000809374018091EB0080628093EB000F9099
:1074F0000F900F90DF91CF911F91FF90EF90DF9051
:10750000CF900895843031F260F48130E1F083301F
:1075100071F780917B01982F9D7F49F549DE89E0C5
:1075200023C0853009F474C0863009F780917B014F
:107530008330E9F680917C018111D9CF80917D0162
:1075400080937301D4CF10917B01123080F630DE2E
:10755000111109C060917801709179012091730136
:10756000822F90E051DF85E080930101C0CF813010
:1075700009F0BDCFF0E0E0E084918F3F69F0109218
:107580007301F0937901E09378018AE0809301011F
:1075900085E080937401ABCF3196E11520E7F207C7
:1075A00059F7A5CF811111C082E49CED90938C0115
:1075B00080938B0188E19CE00FB6F894A8958093A6
:1075C00060000FBE9093600092CF859194910196D8
:1075D00009F08DCF109200018ACF811188CF809160
:1075E0007C018F3F09F083CFC12CD12C7601C701DC
:1075F000B6010ADF80E8C80ED11CE11CF11CC114E1
:1076000020E7D206E104F10491F7109275016FCFE3
:107610008091020190910301A091040189839A83D2
:10762000AB83E0917C0180917B01811109C0E33043
:1076300080F4EC0FFD2FF11D81818093720157CFF3
:10764000813009F054CFE13379F040F488E5E0333C
:10765000A1F38AE08093010188E09BCFE03631F00E
:1076600087E8E13651F3F5CF8EE1E7CF85E9E5CF45
:107670001F921FB61F9211248F9381E083B910923D
:107680001F008F911F901FBE1F90189500D000D033
:1076900000D00F92CDB7DEB784B7877F84BF0FB617
:1076A000F894A895809160008861809360001092A2
:1076B00060000FBE80E890E00FB6F8948093610000
:1076C000909361000FBE81E085BF92E095BF229A42
:1076D0002A9A259A9091D8009F7E9093D8009091F5
:1076E000D70091609093D70094E092BF80936E0191
:1076F0009091D8009E7F9093D8001092E200109253
:10770000DA001092E1009091D8009F779093D80012
:107710009091D80090689093D8009091D8009F7D68
:107720009093D80019BC1EBA10928A019091E00083
:107730009B7F9093E0009091D80091609093D80047
:107740009091EB0091609093EB001092ED001092FD
:10775000EC0092E29093ED009091EE009091E100A8
:107760009E7F9093E1009091E20091609093E200FF
:107770009091E20098609093E2009091E0009E7FEB
:107780009093E0009091D80090619093D800209A57
:10779000289A90B190B991B191B980936F0083E02C
:1077A00080938100289808987894312C212CD8C295
:1077B000853009F4D1C108F4C6C1863009F00AC386
:1077C0008091E800877F8093E80082E08093010148
:1077D000C1C18091E800877F8093E80080917101AA
:1077E000882319F03BDE1092710180918001909105
