:100000000C94A3010C94C0010C94C0010C94C00189
:100010000C94C0010C94C0010C94C0010C94C0015C
:100020000C94C0010C94C0010C9462220C943623F1
:100030000C94871D0C94C0010C94C0010C94C00159
:100040000C94C0010C94C0010C94C0010C94C0012C
:100050000C94C0010C940E1E0C94C0010C94C001B1
:100060000C94C0010C94C0010C94C0010C94C0010C
:100070000C94C0010C94C0010C94C0010C94C001FC
:100080000C94C0010C94C0010C94C0010C94C001EC
:100090000C94C0010C94C0010C94C0010C94C001DC
:1000A0000C94C0010C94C0010C94C001D900DA007A
:1000B000BD00BE002900AB00AE00AB00AE002D7845
:1000C000337830782078AE003A003B003C0069007D
:1000D000000000047F3F1F643214783C1E000101C1
:1000E00001010101010101020202020202020202F7
:1000F00003030303030303030404040404040405C7
:10010000050505050606060606070707070708088A
:100110000808090909090A0A0A0B0B0B0C0C0C0D3B
:100120000D0D0E0E0E0F0F0F1010111111121213D4
:10013000131414151516161717181819191A1A1B4F
:100140001B1C1D1D1E1E1F202021222223242425AE
:100150002626272829292A2B2C2D2D2E2F303132E7
:1001600032333435363738393A3B3C3D3E3F4041F7
:1001700042434445464748494A4C4D4E4F505153DF
:1001800054555658595A5B5D5E5F61626465666896
:10019000696B6C6D6F7072737577787A7B7D7E801A
:1001A00082838587888A8C8E8F91939596989A9C66
:1001B0009EA0A2A3A5A7A9ABADAFB1B3B5B7BABC7A
:1001C000BEC0C2C4C6C9CBCDCFD1D4D6D8DBDDDF4B
:1001D000E2E4E7E9EBEEF0F3F5F8FAFDFF12035481
:1001E000006100700065006400650063006B000042
:1001F000000C0347006F0077006C006100000004F2
:1002000003090409023B00020100A0FA09040000EE
:10021000010301010009211101000122400007052D
:100220008103080001090401000103000000092105
:100230001101000122B6000705820320000112010E
:10024000000200000008EDFE0000000101020001B4
:1002500005010902A10185020901A1000509190191
:10026000290815002501950875018102050109304D
:1002700009311581257F9502750881060938158198
:10028000257F950175088106050C0A380215812520
:100290007F950175088106C0C005010980A101850F
:1002A0000319012AB700150126B7009501751081C1
:1002B00000C0050C0901A101850419012AA002153D
:1002C0000126A002950175108100C005010906A153
:1002D000018506050719E029E71500250195087530
:1002E0000181020507190029EF1500250195F07518
:1002F00001810205081901290595057501910295ED
:100300000175039101C005010906A101050719E066
:1003100029E71500250195087501810295017508E9
:1003200081010507190029FF150026FF00950675B4
:1003300008810005081901290595057501910295A7
:100340000175039101C011241FBECFEFDAE0DEBFBB
:10035000CDBF11E0A0E0B1E0E4EBFCE402C0059009
:100360000D92A23BB107D9F722E0A2EBB1E001C0A8
:100370001D92A63DB207E1F70E941C110C940426C1
:100380000C94000080E40E948E1B0E94DC0F0895F4
:10039000CF93DF938091B40191E0980F9093B401D3
:1003A00081113CC084E90E94E81B9093BA018093BC
:1003B000B90121E330E0DC010E944C252FEF33E04E
:1003C00040E050E00E942725BA01A9014F5F5F4F2E
:1003D0006F4F7F4F5093B6014093B501C091B70165
:1003E000D091B8019E012F5F3F4F24173507CCF005
:1003F0008091B7019091B801C091B501D091B6013B
:100400009C0121503109C217D307D4F08091B50166
:100410009091B6019093B8018093B701DF91CF918D
:1004200008954C175D0721F38091B5019091B601B5
:10043000C817D907ECF689EA0E945A042196F4CF2E
:100440008C179D0719F38091B7019091B801C817D7
:10045000D907E4F68AEA0E945A042196F4CF0E9452
:10046000C8010E94DD0F0895811112C0633080F42D
:10047000453070F4E42FF0E085E0689FE00DF11D59
:100480001124EE0FFF1FEC54FF4F859194910895B6
:1004900080E090E008950E9434020895811111C017
:1004A000623078F470E0660F771FE1E0E427E60F32
:1004B000F72FF11DEE0FFF1FE455FF4F859194912B
:1004C000089580E090E008950E944E02089581E032
:1004D000089581E008950E946902089508950E9498
:1004E0006E020895A5E0B0E0E8E7F2E00C94622522
:1004F00049835A833091C00189819A81311119C091
:10050000662399F0222389F00E942408182F682F6F
:1005100089819A810E94F10769817A81812F0E94E5
:100520009C0E2596E3E00C947E250E940B08182F64
:10053000F3CF0E94240869817A81F1CFFC01262F34
:10054000408151816281738184810E947202089589
:1005500081E00895CF93DF93EC0160E00E949E025A
:10056000BE010E946F02DF91CF9108950E94C201E7
:1005700008950E942F02089508950E94C0060E94C7
:10058000BC022FEF84E39CE0215080409040E1F7D3
:1005900000C0000008950E94BD020E94321E08950E
:1005A0000E94BD020E94431E08950F931F93CF9394
:1005B000DF938C0161E00E949E02EC01B8010E9471
:1005C0006B02811106C080E0DF91CF911F910F91E6
:1005D0000895B801CE010E944A1B8823A1F3B801F7
:1005E000CE010E94AD18882371F3B801CE010E949C
:1005F000BC1A882341F3B801CE010E941D1888233C
:1006000011F3F8018281882361F0C330FCE7DF0732
:10061000E9F058F4C115ECE7DE07A9F0C130DC477A
:10062000B9F0C8010E946702CFCFCB358CE7D8075D
:10063000A9F0CC35ECE7DE0771F0CA35DC4789F765
:100640000E94260CEECF0E94CB02BDCF0E942E0C42
:100650000E94D002B8CF0E941C0CE3CF0E942A0C4B
:10066000E0CF0E94641D0E945B0308950E945F0317
:100670000E94691D089508950E943B03089581E03A
:1006800008950895CF93DF93D82F0E943F03C82F7A
:10069000882319F08D2F0E9441038C2FDF91CF9179
:1006A00008950895CF93C82F0E943C038C2F0E9479
:1006B0004203CF91089580E00E94520308950E9462
:1006C000F71B0E9452030895CF930E94F71BC82F77
:1006D0008091BB018C1779F0C093BB010E94F31D80
:1006E0006093BC017093BD018093BE019093BF01E4
:1006F0008C2F0E945203CF910895ABE0B0E0E3E865
:10070000F3E00C9463254F83588769877A878B873A
:1007100061110E94670B1E821D8285E0FE013796E3
:10072000DE01119601900D928A95E1F78C819D81F1
:10073000892B61F449815A816B817C818D819E81F5
:100740000E94900A2B96E2E00C947F2589819A8181
:1007500089238F3F79F3CE0101960E94A80281116F
:10076000E9CFF0CFFC01808191810E945608089565
:10077000662329F00E94A0110E94731208950E941E
:10078000FA11FACFCF93C82F8823B9F08CEF8C0FD2
:10079000813AA8F46C2F80910001909101010E9490
:1007A0008A1C882329F08C2F0E94270B0E94880B1B
:1007B0008C2F0E941F0B0E94880BCF91089580E21E
:1007C0008C0F883048F4C77081E001C0880FCA954B
:1007D000EAF70E944A0BEFCFEBE5EC0FE33040F471
:1007E000F0E0E25BFE4F808190E00E942C1CE5CFA0
:1007F000E8E5EC0FE93150F4F0E0EE0FFF1FE45EA6
:10080000FE4F808191810E94511CD7CF83E38C0FD2
:10081000833198F661E08C2F0E94B803CECF8823F5
:1008200081F19CEF980F913A28F40E94270B0E94C7
:10083000880B089590E2980F983050F4877091E0FB
:1008400001C0990F8A95EAF7892F0E94500BEFCFCC
:100850009BE5980F933028F490E080E00E942C1CD8
:10086000089598E5980F993128F490E080E00E946F
:10087000511C089593E3980F933118F460E00E949F
:10088000B80308951F93CF93DF93182FEB010E94B5
:10089000C203209739F4812F0E940F04DF91CF917A
:1008A0001F9108958FE99FE00197F1F700C00000C4
:1008B0002197EFCF70E060E0893311F460E570E0DC
:1008C0000E9442040895882321F00E944A0B0E944E
:1008D000880B0895882321F00E94500B0E94880BFA
:1008E0000895B0E0A0E0E7E7F4E00C945C256C012B
:1008F000D62FC72FFC011281F580F2949FE0F922D8
:100900000E94400BE82E8823B9F0E12E1123A1F0BC
:100910008C2F807F803421F080E28D0F8830D0F0E2
:100920008091B00282FF16C082E00E94EB0B0E9411
:10093000400B91E0E82EE926BC2EB2948FE0B8225D
:10094000FBE0FB1508F468C0EB2DF0E0EA5FF94D21
:100950000C944625E12CF0CF0C2F0F70C07F11F0C6
:100960000295007F112399F0002359F080E28D0F4A
:10097000883010F0D11107C0802F0E944A0B0E94CE
:10098000880B8D2F41C0802F0E945A0BF8CF8D2FDE
:100990000E940F04002309F43FC080E28D0F8830CD
:1009A00010F0D11104C0802F0E94500B03C0802F83
:1009B0000E94600B0E94880B2FC00C2F0F70C07F0D
:1009C000C03211F00295007FDD2381F0D13009F4AF
:1009D00068C0112309F472C0FF2009F468C0F60151
:1009E000858180FFCECF8F70858361C08091B002FA
:1009F00082FD33C0112359F0002329F0802F0E947B
:100A00004A0B0E94880B80E00E94C20305C080E070
:100A10000E940F040111C7CFEB2DE850FF0B349754
:100A200020F40E94F71B0E945203EE2089F00E94DE
:100A30003C0B80FD0DC0F60112820E94360B0E9415
:100A40004F07C6010E9480060E94360B0E945F0776
:100A5000CDB7DEB7E9E00C947825112389F0F110C9
:100A600006C00E946A0B802B0E946304D5CF21E050
:100A7000F212F7CF0E946A0B802B0E94710BCCCF31
:100A8000F11006C00E947E0B802F0E946A04C4CF22
:100A900031E0F31609F2802F0E946A040E947E0B57
:100AA000BBCF112331F085E08F1508F4B5CF802F2F
:100AB000DBCF94E09F1508F4AFCFE6CFFF2021F302
:100AC000D93349F4FFEF27EE33E0F15020403040B6
:100AD000E1F700C000008D2F0E940F049DCF8C2FE6
:100AE00086958695837069F0813009F095CF8D2FBA
:100AF0009C2F9370111102C080E090E00E94511C65
:100B00008BCF8D2F9C2F9370111102C080E090E04D
:100B10000E942C1C81CF612F8D2F0E94B8037CCFA7
:100B20008C2F8370A1F5111177CF4D2F42954695EB
:100B30004770440F440F2D2F2F7030E0042E02C059
:100B4000220F331F0A94E2F790E080E0D4FF09C03F
:100B50008FE090E002C0880F991F4A95E2F78095D8
:100B60009095C695C695C370822B932BC23049F0E1
:100B700058F4C13019F00E941F074ECF0E9416078B
:100B80004BCF0E94280748CF0E94130745CF869578
:100B9000112311F08C2F8170882309F43DCF4D2F44
:100BA000429546954770440F440F2D2F2F7030E02B
:100BB000042E02C0220F331F0A94E2F790E080E077
:100BC000D4FF09C08FE090E002C0880F991F4A95BA
:100BD000E2F780959095C695C695C370822B932BAE
:100BE000C23049F058F4C13019F00E948A0714CF7E
:100BF0000E94810711CF0E9493070ECF0E943707F2
:100C00000BCFCF70112329F08C2F0E944F078D2F0F
:100C10002BCF8D2F0E946A048C2F0E945F07FCCE81
:100C2000D23F51F160F4D03FB9F0D13F81F01123B0
:100C300009F449C0F110A5CE8C2F8F7121C0D33F8C
:100C400011F1D43FA1F78091B00282FD26C08C2F14
:100C50008F71112311F314C0112349F084E08F1513
:100C600008F4DACE8C2F8F710E947107D5CE95E0F3
:100C70009F1508F4D1CEF6CF8C2F8F711111CDCFE7
:100C80000E944F07C9CE112329F08C2F8F710E942B
:100C90004307C2CE0E943E07BFCE112349F0CF7159
:100CA0008C2F0E944F0763E08C2F0E94CD0BB4CE97
:100CB00081E00E94EB0BE1E0EF1508F0ADCE82E0A1
:100CC0000E94EB0BA9CEF110FBCE8C2F8F71A5CF1C
:100CD0000F931F93CF93DF93EC01688179818A8111
:100CE0000E9461088C010E949C070E941207B801B3
:100CF000CE010E947104DF91CF911F910F91089551
:100D0000CF93DF93EC018B819C81892B29F0888123
:100D1000998189238F3F51F4DF91CF910895CE01BE
:100D20000E946806CE010E94AA02F6CFCE010E9460
:100D3000D5028111F4CF0E94400B882369F38A8188
:100D4000882351F38091B00282FFE6CF82E00E94B7
:100D5000EB0BE2CF90E080E00E942C1C90E080E062
:100D60000E94511C0E94670B0E94880B0E948F12E8
:100D70000E94731208950E942F0B0E94AA060895E4
:100D80000E94570B0E94BB06089592959F70963063
:100D900091F058F4925F9F70923058F4803F19F0B0
:100DA00030F4883E30F481E008959A5FF4CF843FB8
:100DB000D1F380E00895883EB0F3813FD1F7F3CFBF
:100DC000FC0183819481892B29F080819181892381
:100DD0008F3F11F480E00895808191810E94560830
:100DE0000E94C5060895A5E0B0E0E9EFF6E00C9496
:100DF00063252596E2E00C947F25A6E0B0E0E3E0D1
:100E0000F7E00C9463252696E2E00C947F25089584
:100E10000E94070708950E9408079093D0018093CD
:100E2000CF01089508950E940B0708952091CF01E6
:100E30003091D001822B932B0E940B0708952091B3
:100E4000CF013091D001822393230E940B07089594
:100E50002091CF013091D001822793270E940B0768
:100E600008950E94070708950E94310708950E947F
:100E700034079093CE018093CD01089590E080E0F7
:100E80000E943707089521E030E0A90102C0440F15
:100E9000551F8A95E2F7CA010E943707089521E09D
:100EA00030E002C0220F331F8A95E2F78091CD0116
:100EB0009091CE01822B932B0E943707089521E059
:100EC00030E002C0220F331F8A95E2F7209530955B
:100ED0008091CD019091CE01822393230E94370708
:100EE000089521E030E002C0220F331F8A95E2F717
:100EF0008091CD019091CE01822793270E943707E0
:100F000008952091CD013091CE01822B932B0E9428
:100F1000370708952091CD013091CE01822393238C
:100F20000E94370708952091CD013091CE0182278C
:100F300093270E94370708950895262F277091E080
:100F400001C0990F2A95EAF723E0769567952A95CF
:100F5000E1F7660F771F660F771FFA01E60FF71F9D
:100F600050E040E0682F70E08191DF0111979B0114
:100F7000042E02C0369527950A94E2F72170219538
:100F80002827292328272C934F5F5F4F4430510592
:100F900059F70895A82FA77023E0969587952A956D
:100FA000E1F7880F991F880F991FFB01E80FF91FC0
:100FB00050E040E080E0219130E00A2E02C03695FA
:100FC00027950A94E2F721703327042E01C0220FDF
:100FD0000A94EAF7822B4F5F5F4F4430510559F76F
:100FE0000895282F862F933070F4253058F4622FFF
:100FF00070E025E0929F600D711D112445EC51E0D9
:101000000E949D0708959C5F9230E0F7622F70E088
:1010100041EC51E0F5CF292F933068F4853090F4FE
:1010200090E065EC71E035E0239F800D911D112467
:101030000E94CA0708952C5F223020F461EC71E011
:1010400090E0F6CF80E00895B0E0A0E0EAE2F8E0BA
:101050000C945C257C010091CD011091CE01809112
:10106000CF019091D001082B192BCFE0D0E0CC24F8
:10107000C394D12CBC2EC6010C2E02C0880F991F20
:101080000A94E2F780239123892B49F4219790F762
:10109000B12C8B2DCDB7DEB7E9E00C947825B701E4
:1010A0008C2F0E94B50E019789F3F3CFCF93DF9376
:1010B000EC010E942408BE010E94B50EDF91CF9181
:1010C00008951F93CF93DF93EB019091C001992373
:1010D00039F0CB010E945608DF91CF911F910895FE
:1010E000882369F0CB010E942408182F682FCE01B5
:1010F0000E94F107BE01812F0E94B50EEDCFCB01FA
:101100000E940B08182FF6CF1F93CF93DF93C09147
:10111000D10116E08091D2018C1304C0DF91CF91F0
:101120001F910895D0E01C9FF0011D9FF00D112428
:10113000ED52FE4F4081518162817381848195819E
:101140000E94FD062196C770E5CF409103025091A1
:10115000040260910502709106028091070290914D
:1011600008020E94FD0608951F93CF93DF9380919C
:101170000802807F09F049C080910502882309F4A4
:1011800044C08091D101C091D2016091030270915D
:101190000402A0910602B0910702D62FD72316E0D1
:1011A000C81799F190E0109711F0DF3F19F40196FC
:1011B0008770F6CF189F9001199F300D1124F90107
:1011C000ED52FE4F41814713F2CF40814613EFCFDE
:1011D00042814111ECCF438154814A1B5B0B483C57
:1011E000510528F7809108028F7080618093080272
:1011F000F901E852FE4F80818F708061808383E027
:1012000092E00E9480060E948408DF91CF911F9196
:101210000895A1E1B0E0EFE0F9E00C945B258C01CA
:1012200085E0F801DE011D9601900D928A95E1F7A7
:10123000F801E28083E0C82E82E0D82E6091060299
:10124000709107026115710509F44EC19091030276
:1012500020910402892F82238F3F09F445C14081E8
:101260005181A380B480F0900502F501E61BF70BD5
:10127000FF2009F4EAC080910802382F307FE83C53
:10128000F10508F0A3C031116DC0FE2C251316C066
:10129000941314C0E11012C08F7080618093080213
:1012A0000E94A508C6010E94800680910802F801EC
:1012B00085838F2D6196EAE00C947725A114B10403
:1012C00029F0842F85238F3F09F027C180E0F82F74
:1012D000F170DF2E80FF3CC08091D1012091D201BE
:1012E00036E0821315C04D875E878D859E850E94EE
:1012F0005608292F22952F702230F0F0243018F54F
:101300009F70F1F0F8019581907FD1F4D12C1EC02F
:1013100090E0389FF001399FF00D1124ED52FE4FFF
:101320006181651306C06081641303C06281E612A7
:101330000FC001968770D5CF9F7011F0882331F3CD
:10134000805E883018F3C8010E948006FD2CB1CF62
:10135000EE2009F4AECF80910802816080930802EC
:10136000F12CA7CF251306C0941304C0F801EE207A
:1013700009F487C0C8010E94E006882319F1EE2015
:1013800009F180910802803270F0209103023091BF
:10139000040238872F831986BB86AA868C87CE01E4
:1013A00007960E94800686E0F801A3E0B2E0019073
:1013B0000D928A95E1F70E94B4080E94A508FF24C7
:1013C000F39477CFC8010E948006F9CF311113C082
:1013D0007A2DB98AA88A6E2D89890E94F30683E046
:1013E00092E00E94800686E0F60111928A95E9F764
:1013F0000E94A508B5CF25130FC094130DC0E110AE
:101400000BC0F8018583C8010E94800686E0F601C2
:1014100011928A95E9F74DCFC8010E94E006882312
:1014200089F2EE2079F280910802803208F4BBCF75
:1014300020910302309104023A8329831B82BD82EA
:10144000AC828E83CE010196ACCFE83CF10508F06A
:101450003EC0FE2CEE2009F4B5CF25132AC094130C
:1014600028C08091080280FD1BC0982F907FC1F09A
:10147000F8018583903F31F0982F907F905F8F70B7
:10148000892B8583C8010E94800686E0F801A3E0CD
:10149000B2E001900D928A95E1F70E94A50809CF6C
:1014A00086E0F801A3E0B2E001900D928A95E1F7A1
:1014B00000CFC8010E94E006811175CF809108021B
:1014C000816080930802C8010E948006F2CE7A2DC6
:1014D000B98AA88A6E2D89890E94F30686E0F601F2
:1014E00011928A95E9F7D9CFEE2009F46BCFC801A4
:1014F0000E94E006F82E882309F464CF86E0F80104
:10150000A3E0B2E001900D928A95E1F783E092E0CA
:101510000E94B2030E94B408C0CF81E08E25D7CECE
:10152000ACE0B0E0E6E9FAE00C9462254F8358871E
:1015300069877A878B879C87CE0107960E94090965
:10154000882369F08A859B85892B39F04F815885DE
:10155000842F85238F3F09F06BC016E05FC086E0C3
:10156000FE013796DE01119601900D928A95E1F702
:101570008A859B85892B89F38F81988589238F3F65
:1015800061F32091D20130E0C9010196877099275B
:101590004091D1014817190671F40E94C0061092BB
:1015A000D2011092D10186E0E3E0F2E0DF011D926A
:1015B0008A95E9F7D2CF96E0929FD001939FB00D24
:1015C0001124AD52BE4FFE01319601900D929A95B5
:1015D000E1F78093D2010E948408BFCF819FC001B0
:1015E00011248D529E4F0E9409098823E9F0E09151
:1015F000D1011E9FF0011124ED52FE4F4081518117
:1016000062817381848195810E94FD068091D10160
:1016100090E00196877099278093D1018091D10144
:101620009091D2018913DACF2C96E3E00C947E25B9
:1016300069857A858B859C850E94FD068ECF682FF3
:1016400080910001909101010E940A1D0895682F68
:1016500080910001909101010E94181D08958091D0
:101660000001909101010E94261D08958091290298
:1016700085958595859508958091290287700895AF
:1016800090912902977081E009F480E0089580919B
:101690004C02089590914C02892B80934C0208953E
:1016A000809590914C02982390934C02089510924B
:1016B0004C02089590914B02892B80934B02089520
:1016C000809590914B02982390934B02089510922D
:1016D0004B02089580912A02089508950E946D0B8F
:1016E00008959091B00292FF08C090912A02981735
:1016F00021F080932A020E946E0B089580912A02A5
:10170000882329F010922A0280E00E946E0B08952F
:10171000CF93DF93E0910001F091010180914C02A1
:101720008083E0910001F0910101808190914B0252
:10173000892B808390912A02992381F0E091000106
:10174000F09101018081892B80838091000190912B
:1017500001010E94761C81110E947E0BC091000144
:10176000D091010140E250E069E072E0CE010E94B8
:10177000A625892B59F080E2FE01A9E0B2E0019094
:101780000D928A95E1F7CE010E94041CDF91CF9162
:10179000089508950E94C90B08959091B00292FF98
:1017A00011C098E0899F90011124622B6093290257
:1017B0000E944F07809129028595859585950E9405
:1017C000CA0B08950E944F0708951092290280E0E5
:1017D0000E94CA0B089590912902809589238093D5
:1017E0002902282F277091F4282F082E000C330B84
:1017F0009217130659F09091B00292FF07C0859599
:10180000859585950E945F070E94E50B089590914C
:10181000B00292FB222720F9281769F080FB92F989
:101820009093B0028091AF029091B0020E944F0C51
:1018300082E00E94EB0B08958091B00282FB882722
:1018400080F991E089270E94070C089581E00E94A9
:10185000070C089580E00E94070C08956FEF7FEF5A
:1018600090E080E00E94EE25089590E080E00E94E4
:10187000CA2521E0873E9E4F09F020E0822F08957F
:1018800082E090E00E94BC25089583E090E00E94F1
:10189000BC25089584E090E00E94CA250895BC010B
:1018A00084E090E00E94EE250895AB01BC018FE03A
:1018B00090E00E94E2250895AB01BC0183E190E035
:1018C0000E94E225089560E070E0CB010E945C0C6C
:1018D000089560E070E0CB010E94550C0E94630CFB
:1018E000089567EE7EEF90E080E00E94EE2560E0D4
:1018F00082E090E00E94D02560E083E090E00E94CA
:10190000D0251092D0011092CF0160E074E184E004
:1019100090E00E94EE2560E086E090E00E94D025F5
:101920006FEF87E090E00E94D02540E050E0BA01E0
:1019300088E090E00E94E22560E08DE090E00E9467
:10194000D02540E050E0BA0188E190E00E94E22515
:1019500060E087E190E00E94D02540E050E0BA01CD
:101960008CE190E00E94E22570E060E080E290E08F
:101970000E94EE2540E050E0BA0188E190E00E942C
:10198000E2250E94690C08950E94710C0895682F49
:101990008EE090E00E94D02508950E94F31D609390
:1019A0005A0270935B0280935C0290935D02609395
:1019B00056027093570280935802909359020895EB
:1019C0000E94F31D60935A0270935B0280935C0245
:1019D00090935D026093520270935302809354027D
:1019E000909355020895089508950E94F40C089567
:1019F00008950E94F80C08958FE99FE00E94ED1B66
:101A00000E94F30C0E94F50C089581E008950E9455
:101A1000050D0895089508950E940A0D0E940B0D6A
:101A200008950E94BE0F0E94510308950E94DE1D7A
:101A30000E9490190E947E100E94110D0E9466174C
:101A40000E94F90C0895AAE0B0E0E9E2FDE00C94F0
:101A50005B250E94941010914F0280E00E94DE0FDF
:101A600081133BC01091500281E00E94DE0F1813D9
:101A700034C01091510282E00E94DE0F18132DC075
:101A80000E94E71D8C0180914D0290914E02081733
:101A90001907A1F08FEF89838A831B820E94E71DBB
:101AA0008160782F9D838C8349815A816B818D81E0
:101AB0000E947D0310934E0200934D020E949917DD
:101AC0000E94011A81110E94E00C0E94B1120E9432
:101AD00064032A96EAE00C94772580915E0281FDEA
:101AE0000E94E40F0E94070DC82E8FE4A82E82E00A
:101AF000B82E10E0812F0E94DE0F082FF501819192
:101B00005F01081731F1D02ED826F12CEE24E39492
:101B10008D2D8E21B1F0CC20A1F0FE821F8391E0AB
:101B2000802F8E2109F490E098870E94E71D816044
:101B3000782F9A8789874E815F8168858A850E9480
:101B40007D03F394EE0CF5E0FF12E2CFF50131973F
:101B500000831F5F133071F60E94CD0CAFCFCF937F
:101B6000DF930E94BA0EEC01811520E59207D0F5B3
:101B7000811530E4930708F086C0803E910518F582
:101B80008D3C910508F07DC0883A910570F4853A46
:101B9000910508F06EC08130910501F10097F1F0D8
:101BA0000497E0F4D0E0C0E019C0813C9105D0F783
:101BB000C85AD0E0CC0FDD1FCF5ADE4F0990D88134
:101BC000C02DD4640BC08115904208F0A8C0C11587
:101BD00081E0D80718F4C83ED10520F7CE01DF9187
:101BE000CF910895803622E5920710F5803432E5D2
:101BF000930708F052C08032924508F047C0C115E3
:101C000082E5D80708F47DC02C2F2695269540E262
:101C1000249F900111248C2F8370C1E0D0E002C07A
:101C2000CC0FDD1F8A95E2F7C22BD32BDD68D6CF10
:101C3000803A22E5920760F4803832E5930708F491
:101C400041C0CF71D0E0DC2FCC27C46FD06AC6CFA3
:101C5000803C42E5940708F449C0C03E82E5D807BD
:101C600008F0A0CFDC2FCC27CC27DF71C06FD06A63
:101C7000B5CFC55AD0E0CD57DE4FC881D0E0D06493
:101C8000ADCFD065ABCFDF70D06AA8CFCF71D0E039
:101C9000DC2FCC27C16FD06AA1CF282F269526959F
:101CA000277080E2289F900111248C2F8370C1E05F
:101CB000D0E002C0CC0FDD1F8A95E2F7C22BD32BF8
:101CC000DC688CCF282F26952695277040E2249F2C
:101CD000900111248370C1E0D0E002C0CC0FDD1F61
:101CE0008A95E2F7C22BD32BDA6878CF8F710E94E6
:101CF0005C0FC82FD0E0DC2FCC27CC27DF71D0625F
:101D00006DCF8C2F8F710E945C0F35E0D695C795F3
:101D10003A95E1F7CF709C2FEC01D0695FCF8D2F02
:101D20008F710E945C0F90E0982F882788279F7101
:101D30009C012C2BE901E3CF733038F4653050F46B
:101D4000462F672F0E944B0208957D3F31F441E0FA
:101D5000623040F090E080E008957C3FD9F7623037
:101D6000C8F740E00E94640208950E949C0E0E9401
:101D7000AF0D089582389105B9F1B0F48133910522
:101D800009F47DC048F48932910509F46DC08A32A6
:101D9000910509F47BC008958533910509F45FC06E
:101DA0008933910509F10895833E9105D9F138F4FD
:101DB000803E910529F1823E910579F10895863E94
:101DC0009105D9F1873E910509F43EC0843E910505
:101DD00041F52091B00221FF24C08091AF0284FD23
:101DE00019C087EE90E008952091AF02237009F0AA
:101DF0005AC02091B00223FF14C089E290E00895F8
:101E00002091AF0220FD38C03091B00230FF09C0F0
:101E100024FF43C090E080E008952091AF0222FDAE
:101E2000F7CF08952091AF0222FD3AC03091B00261
:101E300030FD39C024FFF5CFEDCF2091AF0223FF55
:101E4000F0CF24FDE7CFCDCF2091AF0223FD2EC0F0
:101E50003091B00231FFEECF84EE90E008952091F2
:101E6000AF0225FFDECFC9CF2091AF0225FD21C0F3
:101E70002091B00223FFD5CF89E390E0D2CF20910B
:101E8000AF0226FFCECF8AE290E008952091AF0204
:101E900026FFC7CF81E390E0089583EE90E0089598
:101EA00082EE90E0089580EE90E0089586EE90E056
:101EB000089585E390E008959091AF0292FF06C0E7
:101EC000282F28712830F9F4877F846093FF06C09B
:101ED000282F28712831F1F4877E84612091B00287
:101EE00020FF06C0382F38713830D9F4877F8160E1
:101EF00021FF06C0282F28712831D1F4877E816107
:101F000094FD877E0895282F24712430F9F68B7F65
:101F10008860DCCF282F2471243101F78B7E886103
:101F2000DDCF382F3171313019F78E7F8860E0CFE7
:101F3000282F2171213121F78E7E8861E1CF80E049
:101F400008950E942E0C08950E9494102FEF86E7AA
:101F500091E0215080409040E1F700C000000E94D5
:101F6000941080E00E94DE0F80FF04C00E94A10F49
:101F70000E94321E08950E94A40F08950E94350CFD
:101F8000811102C00E94C40C0E94400C80935E022A
:101F90000E944A0C9093B0028093AF020E94BB0F44
:101FA0000E94450C90E00E9413078091CD01909112
:101FB000CE010E943407089508950895E82FF0E0B7
:101FC000EC54FD4F80810895089580EA8A95F1F7D9
:101FD000089500C008950E94E50F0895F894E82F31
:101FE000E295EF70F0E031A1282F2F7081E090E0B2
:101FF00001C0880F2A95EAF7982F9095932391A313
:1020000092A1892B82A378940895CF93DF93C6E899
:10201000D1E089918F3F11F00E94EE0F81E0CB3823
:10202000D807B9F782E30E94EE0F83E30E94EE0F18
:1020300081E30E94EE0FDF91CF910895B0E0A0E020
:10204000E4E2F0E10C945D257C01162F042FC62FED
:10205000D0E0CE018A579E4F6C01EC0128812F3FC2
:1020600009F444C0F894E22FE295EF70F0E031A15A
:102070002F7081E090E001C0880F2A95EAF7932F36
:10208000982B91A392A18095892382A378940E9492
:10209000E90FABE8B1E0F7014EE851E0F12C602F19
:1020A00060959D9180819F3F31F1292F22952F705E
:1020B00030E0E90128A130E09F7002C035952795F6
:1020C0009A95E2F720FD17C0802B8083FF24F394BC
:1020D00031964A175B0729F7F60180818F3F11F08F
:1020E0000E94EE0F6F2D812F0E94EB0FCDB7DEB750
:1020F000E8E00C94792586238083EACF0E940510BE
:1021000083E0E4EBF2E0DF01982F1D929A95E9F766
:10211000E1EBF2E0DF011D928A95E9F783E00E948E
:10212000D0100E94B6020895A3E0B0E0EAE9F0E121
:102130000C94612519821A821B8210E001E0402F65
:10214000612FCE0101960E941E101F5F000F1530F7
:10215000B1F743E050E0BE016F5F7F4F81EB92E04B
:102160000E94A62521E0009709F420E0892B49F080
:1021700089819A81AB818093B1029093B202A0933E
:10218000B30243E064EB72E081EB92E00E94D11075
:10219000182F0E94B902812F2396E4E00C947D252C
:1021A0000895CF92DF92EF92FF920F931F93CF93F8
:1021B0006C017B01042F222349F081E080936102AE
:1021C0000E94E71D9093600280935F02C0916102BC
:1021D000C1110AC0C0E08C2FCF911F910F91FF90C9
:1021E000EF90DF90CF90089580915F029091600210
:1021F0000E94FF1D059770F310E0A801B601C7010A
:102200000E94A625892B41F0A801B601C7010E94B2
:10221000B32510926102DFCFC0E0FBCF0E94B81F50
:102220000E94160D0E94C51F08950E94CA1F0E9499
:10223000230D0E94E41F08950E94801D0E949E1F8E
:102240000E94FC0C0E940E110E9415110E940C0DA0
:10225000FBCF8091680280FF0DC06091070170E0A4
:10226000660F771F6038710570F56115710569F1AA
:10227000862F089581FF07C06091070184E0689F61
:10228000B0011124EFCF6091070182FD0AC0809157
:1022900067028823A9F02091060160910701821747
:1022A00010F088E0ECCF869FC001112433E0880F46
:1022B000991F3A95E1F7622F70E00E94F124D2CF86
:1022C00068E070E0D5CF8FE7089581E008958091B0
:1022D000680280FF0CC06091030170E075956795FE
:1022E000759567956115710549F1862F089581FFF0
:1022F00006C06091030170E075956795F3CF60911A
:10230000030182FD0BC0909166029923A1F06091B8
:10231000020180910301961738F0682F70E0603851
:10232000710500F38FE70895899FC001112470E0C3
:102330000E94F124F4CF61E070E0D7CF81E00895EE
:102340008D3C31F40E942911819580936C0208958F
:102350008E3C19F40E942911F8CF8F3C31F40E9471
:102360002911819580936B020895803D19F40E9494
:102370002911F8CF893D29F40E94671180936D02DD
:1023800008958A3D21F40E9467118195F7CF8B3D16
:1023900031F40E946711819580936E0208958C3DFF
:1023A00019F40E946711F8CF9FE2980F983070F4EB
:1023B000815D990B21E030E001C0220F8A95EAF798
:1023C00080916A02822B80936A0208958D3D31F4D8
:1023D0008091680281608093680208958E3D21F4A7
:1023E000809168028260F7CF8F3DB9F780916802D3
:1023F0008460F1CF40916B028D3C59F480916C0266
:1024000087FF0DC010926C0241110BC01092670241
:1024100008C08E3C81F480916C0218169CF3442312
:1024200081F080916D0290916E02892B09F05AC063
:102430001092660208958F3C49F447FFF0CF109246
:102440006B0280916C028111ECCFE0CF803D19F4DA
:102450001416ACF3E4CF90916D02893D29F419165E
:10246000F4F610926D02DBCF8A3D19F497FFD7CFB7
:10247000F8CF90916E028B3D29F497FFD0CF109248
:102480006E02CDCF8C3D19F41916CCF3C8CF9FE264
:10249000980F983090F4815D990B21E030E0B901FC
:1024A00002C0660F771F8A95E2F7CB018095909165
:1024B0006A02892380936A02B2CF8D3D31F4809104
:1024C00068028E7F80936802AACF8E3D21F48091AE
:1024D00068028D7FF7CF8F3D09F0A1CF8091680210
:1024E0008B7FF0CF08950E94E71D9C0190916B02B5
:1024F00080916C02982B21F0309365022093640246
:1025000090916D0280916E02982B21F030936302BE
:102510002093620289E692E00E941E1C089586E0E4
:10252000E9E6F2E0DF011D928A95E9F71092670271
:1025300010926602109268020895FC018281811156
:102540000EC0838181110BC08481811108C091E08C
:102550008581811101C090E0892F8170089581E00B
:10256000FCCFA6E0B0E0E7EBF2E10C94622586E058
:10257000E9E6F2E0DE01119601900D928A95E1F70D
:1025800010926B0210926C0210926D0210926E0209
:102590008B819C81892B89F08091640290916502E6
:1025A0000E94FF1DAC01909167029923C9F18091AF
:1025B00008018417150608F440C08D819E81892B7F
:1025C00091F080916202909163020E94FF1DAC0124
:1025D00090916602992309F471C0809104018417D7
:1025E000150608F479C0BE016F5F7F4F89E692E05F
:1025F0000E94381D811105C089E692E00E949D125B
:1026000081110E94731286E0FE013196A9E6B2E0C4
:1026100001900D928A95E1F72696E3E00C947E25D1
:10262000209109018AE0289F900111242417350781
:1026300020F69F5F9093670202C09F3FD1F71B81F6
:10264000112359F00E9429119FEF11160CF491E00B
:10265000899F802D112480936B021C81112359F0D6
:102660000E9429119FEF11160CF491E0899F802D93
:10267000112480936C0230916B02332309F49DCFB7
:1026800020916C02222309F498CF45EB3403C0015A
:102690001124992359F090936B0245EB2403900188
:1026A0001124332339F030936C0287CF81E080937B
:1026B0006B02F3CF81E080936C027FCF2091050104
:1026C0008AE0289F900111242417350708F08BCF4A
:1026D0009F5F9093660202C09F3FD1F71D81112337
:1026E00059F00E9467119FEF11160CF491E0899F39
:1026F000802D112480936D021E81112359F00E94B8
:1027000067119FEF11160CF491E0899F802D112421
:1027100080936E0230916D02332309F464CF2091CF
:102720006E02222309F45FCF45EB3403C00111246C
:10273000992359F090936D0245EB240390011124E5
:10274000332339F030936E024ECF81E080936D02D7
:10275000F3CF81E080936E0246CFEF92FF920F930A
:102760001F93CF93DF93EB01E82FD1110EC04423C9
:1027700021F0F0E0E352FF4FE4916E2F7E2F8E2F79
:10278000CDB7DEB7E6E00C947B250D2F10E0282FA7
:1027900030E0442329F023523F4FF901249130E0E7
:1027A000F6E0CF9FC0011124EFEFF0E0BF010E94DF
:1027B000DD24AB018C2F90E0880F991FA5E5A49F25
:1027C000B001A59F700D1124861B970B982F990FB0
:1027D000980FBF01601B710B629FD001639FB00D0A
:1027E000729FB00D11248B2F9D9FB0011124672F74
:1027F0007727EF01C61BD70BBE01629FE001639FE5
:10280000D00D729FD00D11247F01E91AF108E09ECE
:10281000B001E19E700DF09E700D1124672F772797
:10282000E61BF70BE29F8001E39F100DF29F100D56
:102830001124E12F722F4230510599F048F44115CF
:10284000510569F04130510581F0EB2F8D2F07C004
:102850004430510569F080F046305105B1F76E2FD4
:102860008FCFE22F7B2F812FFACFE22F7D2FF7CF53
:10287000EB2F822F712FF3CF7B2F822FED2FEFCFF6
:1028800041E00E94AD13089508950E9440140895F8
:10289000CF93DF93762FE901682F842F0E94451490
:1028A000798368838A83DF91CF910895423E08F04F
:1028B00041EE0E94481408958091B702982F9E7FA0
:1028C00061F4817082608093B7028091BA02823E87
:1028D00018F081EE8093BA0208958E31B0F38170C2
:1028E0008C61F1CF88E090E00E94C4250895CF92DA
:1028F000DF92EF92FF926B017C010E945C14B701A2
:10290000A60188E090E00E94E225FF90EF90DF9022
:10291000CF900895E7EBF2E083E0808311828FEFA0
:10292000828381EE838314826081718182819381AD
:102930000E94771408958091B70280FF02C08695A7
:10294000089580E008959091BB02933018F49F5F42
:102950009093BB02882351F06091B7027091B80246
:102960008091B9029091BA020E947714089581E093
:102970000E94A31408959091BB02992319F09150DD
:102980009093BB02882351F06091B7027091B80216
:102990008091B9029091BA020E947714089581E063
:1029A0000E94BB14089570E00E9481180895609100
:1029B0000D018091B70280FF0BC080910C0123E0D4
:1029C000829FC001112484549D4F0E94D314089506
:1029D00080910E0190910F0123E0829FF00111245C
:1029E000E454FD4F891748F71182108212828F5FDD
:1029F0003396F8CF9091B70290FF0EC090910E01E0
:102A000020910F0133E0939FF0011124E454FD4F16
:102A1000921718F00E94D71408958183608342832F
:102A20009F5F3396F5CFA3E0B0E0E9E1F5E10C94C8
:102A300063259091B70290FF0AC09E012F5F3F4F20
:102A40000E9456144B8169818A810E94FA14239650
:102A5000E2E00C947F25CF93DF93EC01E7EBF2E00B
:102A6000438162818C810E9413158C818F5F8C83DE
:102A7000DF91CF910895A3E0B0E0E1E4F5E10C949B
:102A80005F25182FF62E042FE22E8091B70280FFCB
:102A900028C0E82FE695F0E0E257FE4F9081909332
:102AA00078028E7F823009F59E012F5F3F4F812F84
:102AB0000E9456144B8169818A810E94FA141093F6
:102AC000B802F092B9020093BA02EE2051F0609180
:102AD000B7027091B8028091B9029091BA020E9437
:102AE00077142396E6E00C947B25923019F410912C
:102AF000B802E5CF953019F7FACFE7EBF2E0918114
:102B0000282F4381628188E0890F0E943B15089538
:102B100081E00E947D150895E7EBF2E09181282F76
:102B20004381628188EF890F0E943B15089581E0FF
:102B30000E948C150895E7EBF2E0628121E1620FBB
:102B400008F46FEF282F438181810E943B1508957F
:102B500081E00E949B150895E7EBF2E0628121E19C
:102B6000621B08F460E0282F438181810E943B159D
:102B7000089581E00E94AC150895E7EBF2E04381EF
:102B800021E1420F08F44FEF282F628181810E94DA
:102B90003B15089581E00E94BD150895E7EBF2E032
:102BA000438121E1421B08F440E0282F62818181AA
:102BB0000E943B15089581E00E94CE15089520E003
:102BC0000E943B150895A3E0B0E0E9EEF5E10C9416
:102BD00061258C0180916F0281110AC09E012F5FD7
:102BE0003F4F41EE6FEF0E9456148A8180936F022F
:102BF000F8016481613069F080916F0240E06623E2
:102C000061F040E0623011F440916F0280E060E0DA
:102C100004C060916F0240E080E00E94FA14F80165
:102C2000848190E0019663E070E00E94F124848347
:102C30002396E4E00C947D25EF92FF921F93CF93AF
:102C4000DF93EC0110E0EE24EA94F12C6091100186
:102C5000161770F00E94D7149A818C8190FF27C0BC
:102C60008F5F8C83DF91CF911F91FF90EF9008953C
:102C700020910E01422F410F5527551FCA019A017D
:102C8000220F331F280F391F24543D4F70E0C70116
:102C90000E94F124962F8C814091BA026091B90272
:102CA000199F800D11240E9456141F5FCFCF8150B1
:102CB000D8CF0F931F93CF93DF9380910E01909104
:102CC0000F0123E0829FF0011124E454FD4F891786
:102CD00040F1C0E0D3E060911001C61740F10E94BE
:102CE000D71420910A0180917002820F80937002A4
:102CF00090910B01920F90930B01191654F4082E2A
:102D0000000C990B409110014150550B8417950709
:102D10001CF0219520930A01DF91CF911F910F9113
:102D200008951182108212828F5F3396D0CF0C2FBC
:102D300010E070E0C8010E94F12420910E01820F82
:102D4000482F50E020917002022E000C330B021726
:102D50001307BCF020910B01022E000C330B20173F
:102D600031077CF08D9F9001112424543D4F4091F8
:102D7000BA026091B9028091B8020E945614CF5FE6
:102D8000AACFFA01EE0FFF1FE40FF51FE454FD4F29
:102D9000118210821282F3CFE7EBF2E080818E7F06
:102DA000808360817181828193810E947714109267
:102DB00079020E94D71408956091B702669570E079
:102DC00041E050E081E191E00E949925892B19F4BE
:102DD00081E0809379020E94E71D909372028093B4
:102DE000710208959091B70290FF2BC091708111EC
:102DF00029C092609093B702662351F06091B702A8
:102E00007091B8028091B9029091BA020E94771431
:102E10006091B702669570E041E050E081E191E099
:102E20000E949925892BA9F01092790281E0809364
:102E300074024091BA026091B9028091B8020E9476
:102E4000DF1508958F3010F09C61D4CF880F982B38
:102E5000D1CF0E94DC16EACF682F9091B7029695E9
:102E600081E0890F8F3008F081E00E94F21608950A
:102E700081E00E942C170895682F9091B7029695D3
:102E80008FEF890F09F48EE00E94F216089581E019
:102E90000E943C17089561E00E94F2160895E7EB46
:102EA000F2E080818160808386950E944B170895AF
:102EB0008091B70280FF03C00E94CC1608950E9443
:102EC0004F17089560E00E94F216089580917702EE
:102ED00081112EC00E94350C811104C00E94C40CC7
:102EE0000E948A140E9472146093B7027093B80211
:102EF0008093B9029093BA026E7F61F40E948A14A3
:102F00000E9472146093B7027093B8028093B90262
:102F10009093BA020E945C14109279028091B702D9
:102F200080FF03C086950E94621781E0809377023C
:102F300008950F931F93CF93DF9380917902882395
:102F4000B9F180917802E091B702E695E81BE09331
:102F50007302823091F5F0E0E652FF4FE491CE2FFC
:102F6000D0E00BE215E180917402882361F01092A9
:102F700074020E94E71D9093720280937102109276
:102F80007602109275020E94E71DE0917102F091A5
:102F900072028E1B9F0B8F3F9F4750F4CE0FDF1F97
:102FA000D0937202C093710281E792E0F801099513
:102FB000DF91CF911F910F910895853051F4E695DF
:102FC000F0E0E952FF4FE491CE2FD0E00CE116E1A2
:102FD000CACF8B3049F4F0E0EC52FF4FE491CE2F92
:102FE000D0E009E516E1BFCFC0EDD7E004E414E17D
:102FF0008E3009F0B8CFE2EDF0E0C591D49103EE48
:1030000015E1B1CFFA01811101C0FB0109950895C5
:10301000CF93DF93C82FD62F0E949B148C1748F0B4
:103020000E949B148D1728F40E943817DF91CF91CE
:1030300008958C2F0E944B17F9CF1F93CF93DF93E6
:10304000EC01FB011281111110C00E94470B82722A
:10305000FE01E052F847E531F10508F050C0EE5EA0
:10306000F94D0C9446250E945817812FDF91CF917E
:103070001F91089547E457E168E377E10E94021841
:10308000F4CF48E357E167E477E1F8CF47E955E14A
:1030900068E875E1F3CF48E855E167E975E1EECFFF
:1030A00049EB55E168EA75E1E9CF48EA55E169EB9A
:1030B00075E1E4CF4BED55E16AEC75E1DFCF4AEC09
:1030C00055E16BED75E1DACF4FEC54E167EB74E15C
:1030D000D5CF47EB54E16FEC74E1D0CF81E00E9493
:1030E0004B17C3CF64E082E00E940818BECF6AE0AD
:1030F00085E0FACF6DE08BE0F7CF8EE0F0CF11E006
:10310000B4CF269A45B14F7B55B15064EFB7F894D0
:103110009B01220F331F260F371F280F391F281737
:10312000390741F4EFBF8FE594E00197F1F700C054
:1031300000000895DC016D91CD0178E055B90000E3
:1031400000C067FF45B9660F000000C000C000C0A6
:1031500045B900C07A9591F7E2CFCF93DF93EC01A8
:10316000FB018281882309F4D2C09E0130572332AB
:10317000310508F0B2C00E944A0C9093B0028093CF
:10318000AF02FE01E150F047E232F10520F4E95DC3
:10319000F94D0C9446258091AF0281608093AF0277
:1031A00093C08091B00288608093B0028DC08091FE
:1031B000AF028260F3CF8091AF028460EFCF809145
:1031C000AF028860EBCF8091B0028160EDCF80913B
:1031D000B0028260E9CF8091AF028061DFCF809141
:1031E000AF028062DBCF8091AF028064D7CF0E94B4
:1031F000C0068091AF028068D1CF8091AF028C6011
:10320000CDCF8091B0028360CFCF8091AF028E7F0F
:10321000C5CF8091B002877FC7CF8091AF028D7FED
:10322000BDCF8091AF028B7FB9CF8091AF02877FF6
:10323000B5CF8091B0028E7FB7CF8091B0028D7FE5
:10324000B3CF8091AF028F7EA9CF8091AF028F7DE7
:10325000A5CF8091AF028F7BA1CF0E94C006809145
:10326000AF028F779BCF8091AF02837F97CF809102
:10327000B0028C7F99CF8091AF0282FB992790F9A1
:1032800021E0922790FB82F990FB83F987CF809110
:10329000B002982F909591708E7F892B90FB81F9C9
:1032A00083CF9091AF02892F8F7B96FF806476CF7A
:1032B0000E94C0069091AF02892F97FB87F9805832
:1032C0006DCF81E00E94C70C8091AF029091B00257
:1032D0000E944F0C0E94C00680E0DF91CF910895BC
:1032E00080E0F0CF9091AF02892F8F7E94FF8061B4
:1032F00055CF9091AF02892F8E7F90FF81604ECF86
:103300009091B002892F877F93FF88604DCF81E035
:10331000E4CF8FE891E00197F1F700C00000089535
:10332000FF920F931F93CF93DF9382E080937C02F1
:103330000FEA11E0CDEAD1E0AE01D80121E030E0A2
:103340008D91E82FE295EF70F0E0F1A08F70B90158
:1033500001C0660F8A95EAF7962F90959F2191A359
:1033600082A1862B82A3FA018191AF01E82FE29519
:10337000EF70F0E0F1A08F70B90101C0660F8A957F
:10338000EAF7962F90959F2191A382A1862B82A385
:10339000F1E0A13BBF07A1F60E94891960917C0270
:1033A0004FE752E0FA018E2F841B861728F0CDB725
:1033B000DEB7E5E00C947C25D8012D918D01A22F7C
:1033C000A295AF70B0E090968C9190E02F7002C003
:1033D000959587952A95E2F781709991A92FA295E5
:1033E000AF70B0E090962C9130E09F7002C03595A0
:1033F00027959A95E2F790E020FD92E0892B819342
:10340000D2CFA4E1B0E0E7E0FAE10C94582510E057
:1034100000E084E0C82ED12C9DEF992E882483945F
:103420002CEF722E80917C02181728F0802F649662
:10343000EDE00C947425E12EF12CF701E155FE4FDF
:103440008081E82FE295EF70F0E0E0A1F0E08F706E
:1034500002C0F595E7958A95E2F7E170D701A3558B
:10346000BE4F2C91A22FA295AF70B0E090968C9198
:1034700090E02F7002C0959587952A95E2F780FD20
:1034800079C080E08E2BD701A158BD4FEC919E2FC3
:103490009370981709F46CC0EE0FEE0FE82BEC93C5
:1034A000EF70F0E0E356FE4FC70183589D4F5C017B
:1034B0008081F5019081890F808320E084302CF198
:1034C000F701E658FD4F80818F5F80830E94E71DE2
:1034D0001B877C868D868160782F9F878E87412F02
:1034E0005CEF61E08F850E947D030E94E71D188BD1
:1034F000798A1A8A8160782F9C8B8B8B412F5CEFA5
:1035000060E08C890E947D0321E0F50180818D3F80
:103510002CF5F701E658FD4F8081815080830E9491
:10352000E71D19839A828B828160782F9D838C831B
:10353000412F5DEF61E08D810E947D030E94E71DB8
:103540001E839F8218868160782F9A878987412FF2
:103550005DEF60E08A850E947D0321E0F5018081B6
:10356000082E000C990BB6010E94F1248083022BD7
:103570001F5F58CF82E086CFCF93DF93EB01863178
:103580009C4711F50E94470B9A81992399F08A7AFA
:1035900091E009F490E090938102811109C089E2E1
:1035A0000E941F0B0E94880B80E0DF91CF9108954D
:1035B00085E3F6CF80918102811104C089E20E94E7
:1035C000270BF0CF85E3FBCF81E0EFCF0F931F9365
:1035D000CF93DF93C42FD22FFC0182818823C9F0BF
:1035E000409384020E94E71D90938302809382029D
:1035F00080E28C0F883040F4C77081E001C0880FF2
:10360000CA95EAF70E946304DF91CF911F910F9151
:10361000089510918402141332C080918202909117
:1036200083020E94FF1D883C910548F5C0E2CD0F42
:103630001D17B9F080E2810F883040F4177081E0E7
:1036400001C0880F1A95EAF70E946A04C83048F44E
:1036500081E09D2F977001C0880F9A95EAF70E942C
:103660006304802F0E945A04C83070F6D77081E03E
:1036700001C0880FDA95EAF70E946A04C5CF80E29C
:103680008C0F883008F6C77081E001C0880FCA959A
:10369000EAF7F2CF0F93DB0188519C478730910501
:1036A000A0F5FC01E75BF94D0C94462506E221EEFE
:1036B00041EE6AE17CE7CD010E94E61A80E00F91BD
:1036C000089507E225EE45EE6BE17CE7F4CF06E2D4
:1036D00021EE40EE68E17CE7EECF07E225EE44EE16
:1036E00069E17CE7E8CF06E221EE42EE6CE17CE79F
:1036F000E2CF07E225EE46EE6DE17CE7DCCF08E2A3
:1037000021E045EE6EE17CE7D6CF12968C918823BE
:1037100019F010928402D3CF81E0D1CF807C8093C6
:1037200012010895873901F178F48633F9F030F405
:103730008433F1F08533F1F08FE108958439E1F0BD
:103740008639D1F781E20895843FC1F030F4803F9B
:10375000B9F0813F89F781E00895863F99F0A0F0A4
:10376000873F51F787E0089582E2089585E2089542
:1037700083E2089584E2089580E2089584E0089544
:1037800080E0089586E0089585E0089596E8909396
:103790007A00982F9072906890937B008F7190912F
:1037A0001201892B80937C0080917A008064809341
:1037B0007A0080917A0086FDFCCF8091780020917C
:1037C000790090917A009F7790937A00922F0895D4
:1037D0000E94921B0E94C61B08959093B301809390
:1037E000B201089590938A02809389020895E0912E
:1037F0008902F0918A02309729F00190F081E02D42
:103800000995089580E00895E0918902F0918A0277
:10381000309799F020911B01222359F02091AF029B
:1038200027FF07C0DC012C9111962C93119726E0FD
:103830002C930280F381E02D09950895E09189028F
:10384000F0918A02309739F022E0DC012C93048059
:10385000F581E02D09950895A3E0B0E0E2E3FCE1F5
:103860000C9463252091870230918802281739072C
:10387000A1F09093880280938702E0918902F091F1
:103880008A02309751F023E029839B838A83068044
:10389000F781E02DCE01019609952396E2E00C9484
:1038A0007F25A3E0B0E0E7E5FCE10C9463252091DF
:1038B00085023091860228173907A1F0909386027D
:1038C00080938502E0918902F0918A02309751F04D
:1038D00024E029839B838A830680F781E02DCE0133
:1038E000019609952396E2E00C947F25FC0132961F
:1038F00080911B01882321F08091AF029EE187FF18
:1039000096E080E0915008F4089521912223D1F3AC
:103910008F5FF8CF662301F120911B012223F1F084
:103920002091AF0227FF1AC0462F4695469546952F
:103930004E3190F4677021E030E002C0220F331F57
:103940006A95E2F7840F911DFC01828190E02823A3
:10395000392381E0232B69F480E00895FC0132963D
:1039600008962191261721F0E817F907D1F7F4CF2F
:1039700081E008959C01FC0132969FEF80E0419127
:10398000461751F09F3F19F4411101C0982F8F5FE6
:103990008630A9F79F3F09F40895290F311D97FD3F
:1039A0003A95F90162830895FC01329608962191B7
:1039B000261303C0DF0111971C92E817F907B9F726
:1039C0000895E62FE695E695E695EE3168F4E80F62
:1039D000F92FF11D677021E030E001C0220F6A95D8
:1039E000EAF78281822B82830895E62FE695E69599
:1039F000E695EE3170F4E80FF92FF11D677021E0C4
:103A000030E001C0220F6A95EAF7209582812823D1
:103A10002283089520911B01222339F02091AF02C7
:103A200027FF03C00E94E11C08950E94BA1C08955C
:103A300020911B01222339F02091AF0227FF03C000
:103A40000E94F51C08950E94D41C0895FC01329632
:103A500080911B01882351F08091AF0287FF06C03F
:103A60008EE1DF011D928A95E9F7089586E0F9CF8E
:103A700046E050E00E94A62521E0892B09F420E0D1
:103A8000822F089508950E94421D0895811106C055
:103A900081E080938B020E94431D089582E0F9CF5C
:103AA00083E080938B020E94431D08950E94461D6F
:103AB000089581E080938B020E94431D08950E9427
:103AC000591D0895089508950E94631D089508954D
:103AD00008950E94621D0895CF930E94671D0E9461
:103AE00094100E94681DC0E08C2F0E94DE0F81118F
:103AF00005C0CF5FC330C1F7CF91089581E0FCCFFF
:103B000085B7806885BF85B7806885BF08951F9297
:103B10001FB61F9211248F939F93AF93BF938091F1
:103B20008C02811113C08091C5029091C602A091B0
:103B3000C702B091C8024196A11DB11D8093C50274
:103B40009093C602A093C702B093C802BF91AF91F1
:103B50009F918F911F901FBE1F9018958091CD024D
:103B6000843031F10E94310310928C0288E190E0A0
:103B700020E40FB6F894A895809360000FBE2093C0
:103B8000600083B7817F846083BF83B7816083BF18
:103B90007894889583B78E7F83BF0FB6F894A895E5
:103BA00080916000886180936000109260000FBE79
:103BB00008950E94C0060E943603089582E084BDE5
:103BC00093E095BD9AEF97BD80936E0008952FB74F
:103BD000F8948091C5029091C602A091C702B0915D
:103BE000C8022FBF08952FB7F8946091C502709155
:103BF000C6028091C7029091C8022FBF08959C0110
:103C00004FB7F8948091C5029091C602A091C70267
:103C1000B091C8024FBF821B930B089578941F92F6
:103C20001FB61F9211248F939F93AF93BF938091E0
:103C3000C5029091C602A091C702B091C802019638
:103C4000A11DB11D8093C5029093C602A093C70227
:103C5000B093C802BF91AF919F918F911F901FBEEB
:103C60001F90189587E797E79093010880930008C5
:103C700088E19AE00FB6F894A895809360000FBE93
:103C800090936000FFCF88E19AE00FB6F894A89572
:103C9000809360000FBE90936000FFCF8091AD02D3
:103CA00008959B01BA019091CD029430E9F48F7090
:103CB0008093E9009FEF8091E800915085FD06C058
:103CC00085ED8A95F1F700009111F5CF8091E8001C
:103CD00085FF0AC050E040E0C9010E945620809153
:103CE000E8008E778093E800089543E050E0BC013F
:103CF00082E00E94511E089546E050E0BC0182E03F
:103D00000E94511E0895CF93DF93EC0180911B0117
:103D1000811111C048E050E0BE0181E00E94511EB7
:103D200080E2FE01ADE8B2E001900D928A95E1F7E4
:103D3000DF91CF9108958091AF0287FF05C040E2E7
:103D400082E050E0BE01EACF48E081E0FACF809106
:103D5000CC02811109C00E94E6210E944322809179
:103D6000E20084608093E20008951092CC020895EE
:103D70000E94591D08956091C90281E0611101C03E
:103D800080E00E94501D08959091CD0281E0943012
:103D900009F080E06091C9020E94561D089542E03A
:103DA00061EC81E00E94622142E261EC82E00E94CB
:103DB00062219091CD0281E0943009F080E0609121
:103DC000C9020E94461D08958091CF02833009F4F4
:103DD00061C030F48130D1F1823009F49EC0089581
:103DE0008A3009F48AC08B3009F46FC0893009F039
:103DF00050C08091CE02813209F04BC08091D20236
:103E00009091D302029708F044C08091E800877F28
:103E10008093E8008091E80082FF37C09091F30022
:103E20008091F200029731F48091F100813011F01D
:103E3000863021F48091F1008093AD028091E800FA
:103E40008B778093E8000E94962123C08091CE0258
:103E5000813AF9F48091E800877F8093E8008091AF
:103E6000D2029091D302892B61F460E28DE892E056
:103E700070E00E94A5208091E8008B778093E80095
:103E8000089560E090E080E0F3CF8091CD02811151
:103E9000C1CF08958091CE02813AD9F78091D202A4
:103EA0009091D302892BA9F78091E800877F8093B6
:103EB000E8008091E80080FFFCCF80911B01809397
:103EC000F1008091E8008E77BCCF8091CE028132E4
:103ED00001F78091D2029091D302892BD1F6809183
:103EE000E800877F8093E8000E9496218091D002AD
:103EF00080931B010E94C00608958091CE028132FA
:103F000041F68091E800877F8093E8000E94962127
:103F10008091D1028093AE0208958091CE02813AC1
:103F200009F0B7CF8091E800877F8093E800809107
:103F3000E80080FFFCCF8091AE02C1CF84B7877FBD
:103F400084BF0FB6F894A895809160008861809333
:103F50006000109260000FBE80E890E00FB6F89409
:103F600080936100909361000FBE0E945F1D0895D1
:103F70000E94E6210E944322E2EEF0E0808184600C
:103F8000808378940E94C224089583E191E00E9486
:103F9000F21B08958091CD02853031F48091CD02DD
:103FA000853019F00E94D91D08950E94AE1D8091A0
:103FB000CB02882399F30E946C1D882379F30E9419
:103FC00040200E94C006EACF08950E94E81F08958D
:103FD000292F33272330310519F168F421303105B9
:103FE00009F444C02230310509F445C090E080E076
:103FF00030E020E025C02132310549F1223231057F
:10400000A9F780E490E026E033E061157105C1F086
:1040100086EB90E020E532E06130710589F0E6CF73
:1040200099278130910581F0009729F00297F1F6E8
:10403000EDEDF1E002C0EFEFF1E0849190E09F013F
:10404000FA01318320830895E1EFF1E0F6CF89E0B2
:1040500090E025E132E06115710591F389E090E08F
:104060002EE232E06130710559F3C0CF82E190E079
:104070002EE332E0E5CF8BE390E023E032E0E0CFC7
:1040800080E189BD82E189BD09B400FEFDCF809148
:10409000D8008F7D8093D8008091E000826080936B
:1040A000E0008091E00081FDFCCF0895AF92BF92C7
:1040B000CF92DF92FF920F931F93CF93DF936C0108
:1040C000EB018A010E94B521F82E811123C0011550
:1040D000110539F0F80180819181C81BD90BC80EF8
:1040E000D91EB12CA12C2097A9F08091E80085FD64
:1040F00022C08091E8008E778093E80001151105B9
:10410000A1F0F80180819181A80EB91EB182A08230
:1041100085E0F82E8F2DDF91CF911F910F91FF90A9
:10412000DF90CF90BF90AF9008950E94B521882373
:10413000D1F2F82EEFCFF60181916F018093F1005B
:104140002197FFEFAF1ABF0ACECFFC018091D402B6
:104150009091D50286179707A0F06115710529F493
:104160009091E8009E779093E80090E061157105CA
:1041700051F4911108C08091E80082FF34C080E0C2
:104180000895BC01F2CF8091CD028823C1F1853022
:10419000C1F18091E80083FD30C08091E80082FD8C
:1041A000EACF8091E80080FFE1CF8091F300209179
:1041B000F200382F6115710519F02830310558F0DB
:1041C00091E02830310509F090E02091E8002E7749
:1041D0002093E800CBCF81918093F1006150710969
:1041E0002F5F3F4FE7CF8091CD02882341F085308C
:1041F00041F08091E80083FFBECF81E0089582E026
:10420000089583E00895FC018091D4029091D50235
:1042100086179707A0F06115710529F48091E800D1
:104220008E778093E80090E06115710551F491114B
:1042300008C08091E80082FF35C080E00895BC018D
:10424000F2CF8091CD028823C9F18530C9F18091E8
:10425000E80083FD31C08091E80082FDEACF8091C3
:10426000E80080FFE1CF8091F3002091F200382F29
:104270006115710519F02830310558F091E02830AA
:10428000310509F090E08091E8008E778093E80096
:10429000CBCF84918093F1003196615071092F5FEB
:1042A0003F4FE6CF8091CD02882341F0853041F029
:1042B0008091E80083FFBDCF81E0089582E00895FA
:1042C00083E00895982F973028F08F708093E9004D
:1042D00081E008959093E900242F762F50E09817FD
:1042E00031F07091EC002091ED005091F00021FD33
:1042F00002C09F5FE8CF3091EB003E7F3093EB0030
:104300003091ED003D7F3093ED003091EB00316056
:104310003093EB007093EC002093ED005093F0008D
:104320002091EE0027FDE5CF80E008958091CE0238
:1043300087FF13C08091E80082FF06C08091E800EB
:104340008B778093E80004C08091CD028111F2CF79
:1043500008958091CD028823D9F38091E80080FFF1
:10436000F8CF8091E8008E77ECCF2091E400309177
:10437000E50095E6A9012091EC00822F817020FFD5
:1043800006C08091E80080FF06C080E0089520917B
:10439000E80022FD1AC08091CD02882389F0853083
:1043A00089F08091EB0085FD0FC02091E4003091F1
:1043B000E50042175307F9F29150E1F684E00895C1
:1043C00082E0089583E0089581E008950E945522D7
:1043D0000E945D22E0EEF0E0808181608083E8ED64
:1043E000F0E080818F77808319BCA7EDB0E08C91DD
:1043F0008E7F8C9380818F7E80831092CC02089573
:104400000F931F93CF93DF930E9455220E945D224A
:10441000C8EDD0E088818F77888388818068888321
:1044200088818F7D888319BC1092CD021092C902B9
:104430001092CB021092CA0200EE10E0F8018081C7
:104440008B7F808388818160888342E060E080E0A8
:104450000E946221E1EEF0E080818E7F8083E2EEB7
:10446000F0E0808181608083808188608083F801B2
:1044700080818E7F8083888180618883DF91CF9166
:104480001F910F910895E8EDF0E080818F7E808389
:10449000E7EDF0E080818160808384E082BF81E08D
:1044A0008093CC020E9400220895E8EDF0E0808124
:1044B0008E7F80831092E20008951092DA001092AD
:1044C000E10008951F920F920FB60F9211242F93BF
:1044D0003F934F935F936F937F938F939F93AF938C
:1044E000BF93EF93FF938091E10082FF0BC0809117
:1044F000E20082FF07C08091E1008B7F8093E100A2
:104500000E94C1248091DA0080FF19C08091D800F8
:1045100080FF15C08091DA008E7F8093DA00809151
:10452000D90080FF96C080E189BD82E189BD09B4D0
:1045300000FEFDCF81E08093CD020E94A71E8091F6
:10454000E10080FF19C08091E20080FF15C08091DA
:10455000E2008E7F8093E2008091E2008061809390
:10456000E2008091D80080628093D80019BC85E079
:104570008093CD020E94BB1E8091E10084FF2BC07E
:104580008091E20084FF27C080E189BD82E189BD7E
:1045900089B5982F917080FFFBCF8091D8008F7DD7
:1045A0008093D8008091E1008F7E8093E10080911C
:1045B000E2008F7E8093E2008091E2008160809330
:1045C000E2008091C902882309F449C084E0809305
:1045D000CD020E94C41E8091E10083FF29C080911A
:1045E000E20083FF25C08091E100877F8093E10096
:1045F00082E08093CD021092C9028091E1008E7F0B
:104600008093E1008091E2008E7F8093E2008091B0
:10461000E20080618093E20042E060E080E00E947E
:1046200062218091F00088608093F0000E94B81EA3
:10463000FF91EF91BF91AF919F918F917F916F917A
:104640005F914F913F912F910F900FBE0F901F9050
:10465000189519BC1092CD020E94B51E70CF8091A2
:10466000E30087FD93E09093CD02B3CF1F920F92AA
:104670000FB60F9211242F933F934F935F936F9335
:104680007F938F939F93AF93BF93CF93DF93EF93DA
:10469000FF93D091E900DF708091EC00C82FC170CA
:1046A00080FDC0E81092E9008091F000877F809340
:1046B000F00078940E947A231092E9008091F00033
:1046C00088608093F000CD2BCF70C093E900FF91FC
:1046D000EF91DF91CF91BF91AF919F918F917F919A
:1046E0006F915F914F913F912F910F900FBE0F905F
:1046F0001F901895AAE2B0E0E0E8F3E20C9462257E
:104700008EEC92E02091F100FC012193CF01F2E0C8
:10471000863D9F07B9F70E94E41E8091E80083FF61
:104720001EC18091CE029091CF029A3008F017C13D
:10473000E92FF0E0E05BF94D0C944625803899F0C4
:10474000823809F00CC18091D2028F70873008F056
:1047500006C18093E9008091EB0085FB882780F9F2
:104760001092E90006C08091CA029091CB0291118B
:1047700082609091E800977F9093E8008093F10029
:104780001092F1008091E8008E77E5C0882309F44B
:10479000D3C0823009F0E3C08091D0028111D6C02D
:1047A0008091D2028F702FEF280F263008F0D7C0EB
:1047B0008093E9002091EB0020FFC8C0933031F4D2
:1047C0008091EB0080628093EB00C0C09091EB0081
:1047D00090619093EB0021E030E001C0220F8A95B8
:1047E000EAF72093EA001092EA008091EB008860DB
:1047F000EACF8111B4C01091D0021F778091E300FD
:104800008078812B8093E3008091E800877F8093FC
:10481000E8000E9496218091E80080FFFCCF809103
:10482000E30080688093E30082E0111183E08093CD
:10483000CD0295C08058823008F091C08091D0029E
:104840009091D1028C3D23E09207A1F583E08A8309
:104850008AE289834FB7F894DE01139620E03EE0A8
:1048600051E2E32FF0E050935700E49120FF03C0A2
:10487000E295EF703F5FEF708E2F90E0EA30C0F06E
:10488000C7968D939D932F5F243159F74FBF809129
:10489000E800877F8093E8006AE270E0CE0101962D
:1048A0000E94A5208091E8008B778093E80057C094
:1048B000C096E7CF6091D2027091D302AE014F5FF4
:1048C0005F4F0E94E51FBC01892B09F448C09091FD
:1048D000E800977F9093E80089819A810E940321E4
:1048E000E1CF8038E1F58091E800877F8093E80090
:1048F0008091C9028093F10045CF811130C0909121
:10490000D002923060F58091E800877F8093E800C4
:104910009093C9020E9496218091C902882311F0C8
:1049200084E005C08091E30087FDFACF81E08093A9
:10493000CD020E94CF1E13C08091D002813079F445
:1049400081E0933009F080E08093CB021092E9007F
:104950008091E800877F8093E8000E9496218091F3
:10496000E80083FF0AC08091E800877F8093E80019
:104970008091EB0080628093EB00AA96E3E00C94B8
:104980007E250895CF938091CD028823A1F0C09118
:10499000E900CF709091EC00892F817090FD80E844
:1049A000C82B1092E9008091E80083FD0E947A23D1
:1049B000CF70C093E900CF910895AA1BBB1B51E1B2
:1049C00007C0AA1FBB1FA617B70710F0A61BB70B7F
:1049D000881F991F5A95A9F780959095BC01CD0124
:1049E000089597FB072E16F4009407D077FD09D0A1
:1049F0000E94DD2407FC05D03EF4909581959F4FE1
:104A00000895709561957F4F0895A1E21A2EAA1B13
:104A1000BB1BFD010DC0AA1FBB1FEE1FFF1FA2176E
:104A2000B307E407F50720F0A21BB30BE40BF50B6B
:104A3000661F771F881F991F1A9469F760957095F4
:104A4000809590959B01AC01BD01CF010895052E85
:104A500097FB1EF400940E943E2557FD07D00E944C
:104A6000052507FC03D04EF40C943E255095409547
:104A7000309521953F4F4F4F5F4F0895909580950A
:104A8000709561957F4F8F4F9F4F0895EE0FFF1FD9
:104A90000590F491E02D09940E948A25B7FF0895AE
:104AA000821B930B08952F923F924F925F926F92C9
:104AB0007F928F929F92AF92BF92CF92DF92EF92AE
:104AC000FF920F931F93CF93DF93CDB7DEB7CA1B2F
:104AD000DB0B0FB6F894DEBF0FBECDBF09942A885A
:104AE000398848885F846E847D848C849B84AA8402
:104AF000B984C884DF80EE80FD800C811B81AA818F
:104B0000B981CE0FD11D0FB6F894DEBF0FBECDBF59
:104B1000ED010895A29FB001B39FC001A39F700D46
:104B2000811D1124911DB29F700D811D1124911DB5
:104B30000895FC014150504030F001900616D1F725
:104B40003197CF010895882799270895FB01DC014B
:104B500004C08D910190801921F441505040C8F754
:104B6000881B990B0895FB01DC0102C001900D9296
:104B700041505040D8F70895F999FECF92BD81BDBC
:104B8000F89A992780B50895A6E1B0E044E050E096
:104B90000C94F625A8E1B0E042E050E00C94F62534
:104BA000262FF999FECF92BD81BDF89A019700B4E6
:104BB000021639F01FBA20BD0FB6F894FA9AF99A86
:104BC0000FBE08950396272F0E94D1250E94D0255D
:104BD000252F0E94D125242F0C94D1250196272F13
:104BE0000E94D1250C94D025DC01CB01FC01F99960
:104BF000FECF06C0F2BDE1BDF89A319600B40D9229
:104C000041505040B8F70895F894FFCFAC04AC047D
:104C1000DD04DD046F058B050C050C059005010610
:104C20001006100633183A18411846184B18501839
:104C300055185A185F18641869186E1835187218C4
:104C4000771835187A18351835187D18351805195C
:104C500079190D19D718DB181119DF181519211931
:104C6000EB187219EF182519F31829195119F718AB
:104C70002D195819FD1833193B19E3181919E7189C
:104C80001D1901193719471961197019D118091916
:104C90008019671B6D1B561B611B731B791B7F1BC8
:104CA0009E23C623AF24C623AF24F9231A24AF249E
:044CB00071247D24CA
:104CB4002B02280850011E0A1401010200030003FC
:104CC4000301404E1E831E7C1E751E01E200E90096
:104CD400EA00B500B600B700CD008301CC008A011C
:104CE40092019401210223022402250226022702B2
:104CF4002A02B300B4006F0070009F01CB018182CF
:104D040083E200E900EA00B500B600B700CD0083F5
:104D140001CC008A0192019401210223022402257C
:104D240002260227022A02B300B4006F0070009F1B
:104D340001CB018182833534C69766323331000159
:104D44000202020505050505050B0B0B0E00FF010C
:104D540000010000FFFF0000010001FF00F5F7F46F
:024D6400F60057
:00000001FF
