:100000000C9484010C94CB010C94CB010C94CB0187
:100010000C94CB010C94CB010C94CB010C94CB0130
:100020000C94CB010C94CB010C94051D0C94D91DA0
:100030000C9435180C94CB010C94CB010C94CB018F
:100040000C94CB010C94CB010C94CB010C94CB0100
:100050000C94CB010C9480180C94CB010C94CB0124
:100060000C94CB010C94CB010C94CB010C94CB01E0
:100070000C94CB010C94CB010C94CB010C94CB01D0
:100080000C94CB010C94CB010C94CB010C94CB01C0
:100090000C94CB010C94CB010C94CB010C94CB01B0
:1000A0000C94CB010C94CB010C94CB01AC41AB0074
:1000B000AE00720052007300500051004F00290042
:1000C000AE00005C5F0059003A003B003C003D0080
:1000D000000400010101010101010101020202020B
:1000E00002020202020303030303030303040404E2
:1000F00004040404050505050506060606060707AB
:1001000007070708080808090909090A0A0A0B0B62
:100110000B0C0C0C0D0D0D0E0E0E0F0F0F10101101
:100120001111121213131414151516161717181887
:1001300019191A1A1B1B1C1D1D1E1E1F20202122EF
:1001400022232424252626272829292A2B2C2D2D35
:100150002E2F30313232333435363738393A3B3C52
:100160003D3E3F404142434445464748494A4C4D45
:100170004E4F50515354555658595A5B5D5E5F610E
:100180006264656668696B6C6D6F707273757778A1
:100190007A7B7D7E8082838587888A8C8E8F9193FF
:1001A0009596989A9C9EA0A2A3A5A7A9ABADAFB126
:1001B000B3B5B7BABCBEC0C2C4C6C9CBCDCFD1D40B
:1001C000D6D8DBDDDFE2E4E7E9EBEEF0F3F5F8FAB1
:1001D000FDFF040330000000220347006F0077009A
:1001E0006C00610020004D006100630072006F0030
:1001F0002000650052004700420000000C03470049
:100200006F0077006C00610000000403090409021C
:100210003B00020100A0FA090400000103010100F3
:100220000921110100012240000705810308000A8D
:10023000090401000103000000092111010001224D
:100240006D000705820320000A1201100100000062
:1002500008EDFE070001000102030105010980A16C
:1002600001850319012AB700150126B7009501750C
:10027000108100C0050C0901A101850419012AA003
:1002800002150126A002950175108100C005010923
:1002900006A1018505050719E029E7150025019547
:1002A00008750181020507190029EF150025019540
:1002B000F07501810205081901290595057501915F
:1002C00002950175039101C005010906A101050709
:1002D00019E029E7150025019508750181029501AE
:1002E000750881010507190029FF150026FF0095F3
:1002F0000675088100050819012905950575019104
:1003000002950175039101C011241FBECFEFDAE001
:10031000DEBFCDBF04B603FE27C080916802909176
:100320006902A0916A02B0916B028730904BA7409E
:10033000B04BD1F4109268021092690210926A02D6
:1003400010926B0214BE84B7877F84BF0FB6F894F7
:10035000A895809160008861809360001092600091
:100360000FBEE0E0F8E3099511E0A0E0B1E0E8E9B4
:10037000F0E402C005900D92AE38B107D9F722E043
:10038000AEE8B1E001C01D92A836B207E1F70E94C5
:10039000361A0C940E200C940000811106C089EAD4
:1003A000611101C08AEA0C94D20D08950F9302E006
:1003B00020E04FEF6FEF80E80E9408084FEF6FEFEB
:1003C00080E80F910C94A60781E0089581E00895DC
:1003D0000C94E60108950C94EA011F93CF93DF93E8
:1003E00000D000D00F92CDB7DEB749835A836B831C
:1003F0003091AC0189819A8131111DC06623B9F019
:100400002223A9F00E943D15182F682F89819A8117
:100410000E94E81469817A81812F0F900F900F90CC
:100420000F900F90DF91CF911F910C94A3020E9427
:100430001515182FEFCF0E943D1569817A81EDCFF8
:10044000FC01262F408151816281738184810C944B
:10045000ED01CF93DF93EC0160E00E942002BE012A
:10046000DF91CF910C94EB010E948116811102C0A3
:100470000E941E170C94A6040C94A90408950C94D1
:100480003E0281E008950C944102CF93C82F0E9450
:100490003F028C2FCF910C94430208950E9452107A
:1004A0000E944D022FEF84E39CE021508040904059
:1004B000E1F700C000000C94A4180F931F93CF9392
:1004C000DF93EC0161E00E9420028C01BE010E94DA
:1004D000E801882359F1BE01C8010E94910A8823CE
:1004E00029F1BE01C8010E94D20A8823F9F0BE0199
:1004F000C8010E94F50B8823C9F0BE01C8010E9403
:100500004A09882399F08A81882339F001158CE5FE
:10051000180751F00E3D1C4579F0CE01DF91CF91C7
:100520001F910F910C94E4010E944E0280E0DF9134
:10053000CF911F910F9108950E941E17F7CF90E061
:1005400080E008950895972F70E023E0929F600D5A
:10055000711D1124FB0199E0899FE00DF11D11240B
:10056000EE0FFF1FE455FF4F859194910895FC0114
:10057000EE0FFF1FE053FF4F859194910895CF93A5
:10058000DF930E94A3020E94CB03EC01811520E5BA
:10059000920708F041C0811530E4930708F0B4C019
:1005A000803E910518F5803C910508F09DC0883A81
:1005B000910570F4853A910508F08EC0813091055F
:1005C000F9F00097E9F00497D8F4D0E0C0E018C043
:1005D0008F3B9105D0F7C85AD0E0CC0FDD1FCD5E20
:1005E000DE4F0990D881C02DD4640AC08115904295
:1005F00058F4C11581E0D80718F4C83ED10528F792
:10060000CE01DF91CF910895C11590E3D90708F08D
:1006100071C0CE019F706AC0811525E5920758F51B
:10062000811534E5930708F09EC0811542E59407D3
:1006300050F4C11581E5D80708F469C0DC2FCC2738
:10064000C16FD06ADDCF982F969596959E01237045
:100650003327C115D34508F077C0C1E0D0E002C010
:10066000CC0FDD1F2A95E2F720E2929FC0011124F2
:10067000C82BD92B67C0C11589E5D807A8F4C115C7
:1006800098E5D90708F074C0C11526E5D20708F02F
:100690009CCF8C2F0E946204C82FD0E0DC2FCC2787
:1006A000CC27DF71D062ACCFC1153AE5D30708F48F
:1006B00064C0CE0190568115904208F086CF8D2FF0
:1006C0008F710E94620490E0982F882788279F717D
:1006D0009C012C2BE901E6CFC55AD0E0CF5BDE4F61
:1006E000C881D0E0D0648CCF805C91090E94B702B1
:1006F000EC0186CFCE019927D3FF03C0EC01D86C63
:100700007FCFEC01D06C7CCFDF70D06A79CFCE0187
:10071000E4E096958795EA95E1F783702C2F26956E
:100720002695237090E2299F90011124382B8C2F5D
:100730008370C1E0D0E002C0CC0FDD1F8A95E2F7E4
:10074000C22BD32BDC685CCFC1E0D0E002C0CC0F61
:10075000DD1F2A95E2F730E2939FC0011124C82BD8
:10076000D92BDA684DCFD82FCC27C46FD06A48CFA9
:10077000DC2FCC27C06FD06A43CF8C2F8F700E94A4
:10078000620434E0D695C7953A95E1F7CF709C2F77
:10079000EC01D06935CF82389105B1F1B0F48133E5
:1007A000910509F475C048F48932910509F469C0CE
:1007B0008A32910509F473C008958533910509F4CF
:1007C00059C08933910501F10895833E9105A9F13E
:1007D00038F4803E9105F9F0823E910549F1089583
:1007E000863E9105A9F1873E9105C9F1843E9105A8
:1007F00019F520915A0221FF1FC08091590284FDF2
:1008000014C087EE90E00895209159022370A1F062
:1008100080EE90E008952091590220FD47C030916C
:100820005A0230FF09C024FF44C090E080E004C0B9
:100830002091590222FDF7CF08952091590222FDFF
:100840003BC030915A0230FDE3CF24FFF5CFEDCF0E
:100850002091590223FFF0CF24FDE7CFD2CF209182
:10086000590223FD2CC030915A0231FFEECF84EEA5
:1008700090E008952091590225FFDECF89E290E0B3
:1008800008952091590225FFD7CF85E390E0089580
:100890002091590226FFD0CF8AE290E0089520915E
:1008A000590226FFC9CF81E390E0089589E390E0E3
:1008B000089583EE90E0089582EE90E0089586EE2C
:1008C00090E008959091590292FF06C0282F287158
:1008D0002830F9F4877F846093FF06C0282F2871A1
:1008E0002831F1F4877E846120915A0220FF06C0EE
:1008F000382F38713830D9F4877F816021FF06C0E6
:10090000282F28712831D1F4877E816194FD877E5C
:100910000895282F24712430F9F68B7F8860DCCF6E
:10092000282F2471243101F78B7E8861DDCF382F89
:100930003171313019F78E7F8860E0CF282F217117
:10094000213121F78E7E8861E1CF08950C94A504B2
:1009500008950C94A804E82FF0E0EC5BFD4F808133
:100960000895089580EA8A95F1F70895CF93DF936B
:10097000A4E4B1E047E451E0C1E0D0E08D91E82F7C
:10098000E295EF70F0E061A18F709E0101C0220F2F
:100990008A95EAF7922F9095962391A382A1822BB4
:1009A00082A34A175B0751F7A7E4B1E04AE451E09C
:1009B000C1E0D0E08D91E82FE295EF70F0E061A109
:1009C0008F709E0101C0220F8A95EAF7922F9095B1
:1009D000962391A382A1822B82A34A175B0751F72A
:1009E000109241021092440210924202109245026B
:1009F000109243021092460283E00E949305DF9119
:100A0000CF910C9434024F925F926F927F928F92AB
:100A10009F92AF92BF92CF92DF92EF92FF920F938D
:100A20001F93CF93DF9394E4C92E91E0D92E10E069
:100A300000E0712C88248394912C34E4A32E32E0BE
:100A4000B32ED6018D916D01C82FC295CF70D0E025
:100A500099A18F70740101C0EE0C8A95EAF7892F75
:100A60008E2989A38AA16E2C609486218AA30E9474
:100A7000B2049401002E01C0220F0A94EAF7622FFB
:100A80002095E1E4F2E087E4482E81E0582E40E032
:100A90005191D2013D912D01832F82958F7090E06D
:100AA000DC0190968C9190E03F7002C095958795FF
:100AB0003A95E2F7362F352B80FF02C0322F3523CF
:100AC000531729F0CF010197DC013C9341E0AE16AA
:100AD000BF06F1F689A1682269A28AA1E82AEAA2E2
:100AE000742A0F5F1F4F0330110509F0AACF272D7D
:100AF00043E064E472E081E492E00E9494050E9485
:100B00003C02872DDF91CF911F910F91FF90EF90C5
:100B1000DF90CF90BF90AF909F908F907F906F901D
:100B20005F904F9008950895FF920F931F93CF9376
:100B3000DF93F82E092F162FD72FC42F222349F029
:100B400081E0809390010E94651890938F018093BB
:100B50008E01809190018823A1F080918E01909167
:100B60008F010E947118069760F0EF2DF02FA12FD2
:100B7000BD2FCE0FDF2FD11DEC17FD0741F41092D2
:100B80009001DF91CF911F910F91FF900895819176
:100B90008D93F2CFAF92BF92CF92DF92FF920F93DD
:100BA0001F93CF93DF93362F472FE82FF0E0EE52BD
:100BB000FF4F71110DC06491762F862FDF91CF9179
:100BC0001F910F91FF90DF90CF90BF90AF9008954D
:100BD000C72FD0E02491F22E022F10E056E0659F3F
:100BE000C0011124EFEFF0E0BF010E948B1F832FA3
:100BF00090E0880F991F35E5369FD001379FB00DE3
:100C000011248A1B9B0B982F990F980F6F01CC1AF8
:100C1000DD0AC09ED001C19EB00DD09EB00D112442
:100C20008B2F949FA0011124452F55276F01C41AC3
:100C3000D50AC09EA001C19E500DD09E500D11241A
:100C40005F01A91AB108AC9E6001AD9ED00CBC9E9C
:100C5000D00C1124CD2CDD24EC19FD09E09FE0011E
:100C6000E19FD00DF09FD00D1124ED2F6230710562
:100C7000A1F048F46115710569F06130710589F0E2
:100C8000EB2F852F07C06430710571F088F0663056
:100C90007105B1F76E2F722F91CFE22F2B2F8D2F71
:100CA000F9CFE22F252FF6CFEB2F822F2D2FF2CF6A
:100CB0002B2F8F2DE52FEECF0895CF93DF93762F37
:100CC000E901682F842F0E94CA05798368838A838B
:100CD000DF91CF910895423E08F041EE0C945D06FD
:100CE00080914702982F9E7F61F48170826080938B
:100CF000470280914A02823E18F081EE80934A02B8
:100D000008958630B0F381708460F1CF88E090E080
:100D10000C94CE1FCF92DF92EF92FF926B017C0179
:100D20000E947006B701A60188E090E0FF90EF9066
:100D3000DF90CF900C94EC1FE7E4F2E083E0808337
:100D400011828FEF828381EE8383148260817181AF
:100D5000828193810C948A0680914B02833018F42F
:100D60008F5F80934B02609147027091480280919F
:100D7000490290914A020C948A0680914B02882382
:100D800019F0815080934B026091470270914802A4
:100D90008091490290914A020C948A0670E00C946A
:100DA000A409609101018091470280FF0AC08091EF
:100DB000000123E0829FC0011124845B9D4F0C94AD
:100DC000CE06809102019091030123E0829FF00101
:100DD0001124E45BFD4F891750F7118210821282B3
:100DE0008F5F3396F8CF9091470290FF14C0909197
:100DF00002012091030133E0939FF0011124E45B91
:100E0000FD4F921710F00C94D106818360834283CA
:100E10009F5F3396F6CF0895EF92FF920F931F9343
:100E2000CF93DF9300D00F92CDB7DEB7F82E062F09
:100E3000142FE22E8091470280FF28C0E82FE6950C
:100E4000F0E0E65BFE4F9081909399018E7F8230B7
:100E500059F49E012F5F3F4F8F2D0E946B064B81EF
:100E600069818A810E94F306F09248020093490248
:100E700010934A02EE2051F06091470270914802AF
:100E80008091490290914A020E948A060F900F9029
:100E90000F90DF91CF911F910F91FF90EF900895E8
:100EA000E7E4F2E09181282F438162818AE0890F93
:100EB0000C940C0781E00C945007E7E4F2E0918178
:100EC000282F4381628186EF890F0C940C0781E003
:100ED0000C945D07E7E4F2E0628121E1620F08F41F
:100EE0006FEF282F438181810C940C0781E00C94D3
:100EF0006A07E7E4F2E0628121E1621B08F460E046
:100F0000282F438181810C940C0781E00C94790790
:100F1000E7E4F2E0438121E1420F08F44FEF282F8C
:100F2000628181810C940C0781E00C948807E7E4CE
:100F3000F2E0438121E1421B08F440E0282F628166
:100F400081810C940C0781E00C94970720E00C94AD
:100F50000C070F931F93CF93DF9300D00F92CDB761
:100F6000DEB78C018091910181110AC09E012F5F33
:100F70003F4F41EE6FEF0E946B068A818093910193
:100F8000F8016481613069F08091910140E066234D
:100F900061F040E0623011F44091910180E060E046
:100FA00004C06091910140E080E00E94F306F801E6
:100FB000848190E0019663E070E00E949F1F84832B
:100FC0000F900F900F90DF91CF911F910F91089587
:100FD0000F939091470290FF19C02017B8F4043086
:100FE000A8F493E0299FF0011124E45BFD4F818375
:100FF000608342832F5F33960213F9CF0E94D1069C
:101000008FE99FE00197F1F700C000000F9108956C
:101010000F931F93CF93DF9300D00F92CDB7DEB71E
:10102000122F9091470290FF0BC09E012F5F3F4F00
:101030000E946B06212F4B8169818A810E94E807FB
:101040000F900F900F90DF91CF911F910F91089506
:10105000E7E4F2E080818E7F80836081718182810C
:1010600093810E948A0610929A012FEF80E792E006
:10107000215080409040E1F700C000000C94D10660
:1010800060914702669570E041E050E085E091E0B4
:101090000E94B91F892B19F481E080939A010E9464
:1010A000651890939301809392010895909147025F
:1010B00090FF35C09170811128C0926090934702D3
:1010C000662351F060914702709148028091490275
:1010D00090914A020E948A0660914702669570E0EC
:1010E00041E050E085E091E00E94B91F892BA1F01A
:1010F00010929A0181E08093950140914A0260919B
:101100004902809148020C94A607833010F0946045
:10111000D5CF880F982BD2CF0E944008EBCF0895EF
:10112000682F90914702969581E0890F833008F0EF
:1011300081E00C94560881E00C949008682F9091FF
:10114000470296958FEF890F09F482E00C945608B8
:1011500081E00C949E0861E00C945608E7E4F2E00C
:1011600080818160808386950C94AB0880914702D2
:1011700080FD0C9428080C94AE0860E00C9456088E
:101180008091980181112EC00E948116811104C0A6
:101190000E941E170E949C060E94860660934702CA
:1011A000709348028093490290934A026E7F61F4E3
:1011B0000E949C060E948606609347027093480234
:1011C0008093490290934A020E94700610929A01FD
:1011D0008091470280FF03C086950E94BD0881E090
:1011E0008093980108950F931F93CF93DF9380917D
:1011F0009A01882309F444C0909199018091470293
:101200008695891B80939401C0EDD7E00CE516E02C
:10121000923031F4E0EDF0E0C591D49109EA17E0A5
:1012200080919501882389F0109295010E9465189C
:101230009E0120953095820F931F90939301809388
:1012400092011092970110929601809192019091D3
:1012500093010E9471188C179D0790F08091920164
:1012600090919301C80FD91FD0939301C09392011D
:1012700082E991E0F801DF91CF911F910F910994DC
:10128000DF91CF911F910F910895FA01811101C053
:10129000FB0109940F931F93CF938C01FB01C28133
:1012A000CC2309F44FC00E94D2158272F801E25C8F
:1012B000FC45E431F10538F4E05FFF4D0C94B31FB9
:1012C0000E94B608C0E08C2FCF911F910F91089516
:1012D00048EA58E06BE978E00E944509F3CF4BE912
:1012E00058E068EA78E0F8CF47E657E06AE577E04B
:1012F000F3CF4AE557E067E677E0EECF45E857E001
:1013000066E777E0E9CF46E757E065E877E0E4CFC6
:1013100043EA57E064E977E0DFCF44E957E063EA66
:1013200077E0DACF4DEB56E06CEA76E0D5CF4CEAC9
:1013300056E06DEB76E0D0CF81E00E94AB08C2CFE3
:1013400082E0FBCFC1E0BFCF269A45B14F7B55B1BC
:101350005064EFB7F8949B01220F331F260F371FFD
:10136000280F391F2817390741F4EFBF8FE594E0A4
:101370000197F1F700C000000895DC016D91CD01E7
:1013800078E055B9000000C067FF45B9660F00005E
:1013900000C000C000C045B900C07A9591F7E2CF07
:1013A00022982A9A23982B9A83B182FB882780F966
:1013B0001B9905C090E0892B80939D01089592E0D0
:1013C000FACFE0919D01EE0FEE0FE0939D0143B146
:1013D00042FB882780F943B143FB222720F943FFD2
:1013E00002C022E030E0822BE82BE0939D01EF70F9
:1013F000F0E0E35BFE4F808190919C01890F809328
:101400009C0184304CF080919B018F5F80939B0105
:1014100060E080E00E94CD0180919C018D3F4CF402
:1014200080919B01815080939B0161E080E00E944C
:10143000CD0180919C01837887FF03C081508C6F20
:101440008F5F80939C0108950F931F93CF93DF9339
:10145000C62FD42F022FFC0182818823C9F060930C
:10146000A0010E94651890939F0180939E0180E2E5
:101470008C0F883008F050C0C77081E001C0880F21
:10148000CA95EAF7DF91CF911F910F910C94E50D6A
:101490001091A001161335C080919E0190919F017B
:1014A0000E947118883C910560F5C0E2CD0F1D17B0
:1014B000B9F080E2810F883040F4177081E001C0FC
:1014C000880F1A95EAF70E94EC0DC83048F481E0C5
:1014D0009D2F977001C0880F9A95EAF70E94E50D3D
:1014E000802F0E94D20DC830B8F4D77081E001C0BF
:1014F000880FDA95EAF7DF91CF911F910F910C9445
:10150000EC0D80E28C0F883038F4C77081E001C0A8
:10151000880FCA95EAF7EFCFDF91CF911F910F9116
:1015200008959C01CB01233F4CE5340731F190F441
:10153000283DFCE53F07E9F0293D4CE5340769F11A
:10154000273D3C4579F426E241EE61EE0E94240AF3
:1015500080E00895253FFCE53F07B9F090F0263F75
:101560003C45B9F0FC0182818823D1F01092A001A2
:10157000089527E245EE65EEE9CF26E241EE60EE02
:10158000E5CF27E245EE64EEE1CF26E241EE62EEE2
:10159000DDCF27E245EE66EED9CF28E241E0EBCF82
:1015A00081E00895CF93DF93EC01FB0182818823D2
:1015B00009F419C1C230FCE5DF07C0F1C6319CE572
:1015C000D90730F09E012A5F3C452930310570F57E
:1015D0000E94941690935A0280935902C031ECE510
:1015E000DE0709F4CFC008F05BC0C8308CE5D8072F
:1015F00009F4B6C088F5C430ECE5DE0709F4A8C0EC
:10160000C0F4C2308CE5D80709F49CC0809159021F
:101610008260C330DC4509F498C0809159029091F2
:101620005A020E94A2160E94521080E0DF91CF91D0
:101630000895809159028061C630ECE5DE0709F417
:1016400084C0809159028860C730DC4508F47DC0B1
:1016500080915902806279C0CC308CE5D80709F4BA
:1016600089C070F4809159028C60CA30ECE5DE07C5
:1016700009F46BC008F478C0809159028E7F65C070
:10168000CE308CE5D80709F479C0809159028B7F60
:10169000CF30DC4508F459C0809159028F7E55C087
:1016A000CB3FECE5DE0709F457C030F5C3318CE5DC
:1016B000D80709F46FC078F4C131ECE5DE0709F40E
:1016C00065C0C231DC4509F0A8CF0E94521080915C
:1016D00059028F773AC0C5318CE5D80709F462C04A
:1016E00008F476C080915A028160CA3FDC4509F057
:1016F00094CF80935A0291CFCF3FFCE5DF0709F4E6
:101700004DC088F480915A028D7FCD3F9CE5D9076A
:1017100081F380915A028E7FCE3FDC4550F3809159
:101720005A028360E6CFC130FDE5DF0709F459C0F6
:1017300008F444C080E0C230DD4509F06ECF0E945D
:1017400020176BCF8091590281608093590265CF39
:10175000809159028460F9CF80915A028260C9CF8A
:10176000809159028064F1CF0E94521080915902F9
:101770008068EBCF809159028D7FE7CF809159022D
:10178000877FE3CF809159028F7DDFCF809159020F
:101790008F7BDBCF80915902837FD7CF80915A0214
:1017A0008C7FA7CF8091590282FB992790F921E085
:1017B000922790FB82F990FB83F9C7CF80915A0260
:1017C000982F909591708E7F892B90FB81F991CF06
:1017D0000E94521090915902892F97FB87F98058E7
:1017E000B4CF81E0ACCF81E021CFCF93DF93EB0189
:1017F00086319C4511F50E94D2159A81992399F062
:101800008A7A91E009F490E09093A101811109C0D6
:1018100089E20E94AD150E941E1680E0DF91CF91F3
:10182000089585E3F6CF8091A101811104C089E27A
:101830000E94B415F0CF85E3FBCF81E0EFCF90930A
:10184000A7018093A6010895E091A601F091A70158
:10185000309721F00190F081E02D099480E0089507
:10186000E091A601F091A701309799F02091120123
:10187000222359F02091590227FF07C0DC012C9147
:1018800011962C93119725E02C930280F381E02D83
:10189000099408952091A4013091A50128173907D2
:1018A00071F09093A5018093A401E091A601F091BD
:1018B000A701309721F00680F781E02D0994089563
:1018C0002091A2013091A3012817390771F090935C
:1018D000A3018093A201E091A601F091A7013097A6
:1018E00021F00084F185E02D0994089585B7806882
:1018F00085BF85B7806885BF0895089508950C94C5
:101900007D0C0C94D6010E94760C0E947E0C0C94E7
:101910007F0C81E008950C94890C0E945C180E9451
:10192000B6040E94B5180E94C0080E94D0090C9409
:10193000810CAF92BF92CF92DF92EF92FF920F9302
:101940001F93CF93DF93CDB7DEB72A970FB6F894E6
:10195000DEBF0FBECDBF0E9403050E948B0C882303
:1019600009F461C089EAA82E81E0B82E10E000E0F9
:10197000C02E802F0E94AB04E82EF501D1905F01AC
:10198000D81609F44AC080911C0281FD0E94B1045E
:1019900080E0FF24F394DE249D2D9F21C9F18E83E6
:1019A000CF82EF2081E009F480E088870E946518EB
:1019B0008160782F9A8789874E815F8168858A85C3
:1019C0000E94350DF801E755FE4F8081F826F08220
:1019D0000E94F3080E94E1090E94240C9091A80142
:1019E000891791F10E94240C8093A8012A960FB6C2
:1019F000F894DEBF0FBECDBFDF91CF911F910F9145
:101A0000FF90EF90DF90CF90BF90AF900C94450285
:101A10008F5FFF0C833009F0BFCF0F5F1F4F033084
:101A2000110509F0A5CF8FEF89838A831B820E945D
:101A300065188160782F9D838C8349815A816B81E1
:101A40008D810E94350DC4CF2A960FB6F894DEBF63
:101A50000FBECDBFDF91CF911F910F91FF90EF90FF
:101A6000DF90CF90BF90AF900895CF93DF93CDB725
:101A7000DEB72B970FB6F894DEBF0FBECDBF4F83F6
:101A8000588769877A878B871E821D8285E0FE01D1
:101A90003796DE01119601900D928A95E1F7498102
:101AA0005A816B817C818D819E812B960FB6F89433
:101AB000DEBF0FBECDBFDF91CF910C94C812FC01E9
:101AC000808191810C947F15CF93C82F882309F4CE
:101AD0003FC08CEF8C0F813AA0F46C2F80910601EF
:101AE000909107010E943917882329F08C2F0E94BA
:101AF000B4150E941E168C2F0E94AD15CF910C9428
:101B00001E1680E28C0F883048F4C77081E001C057
:101B1000880FCA95EAF70E94D515F0CFEBE5EC0FD8
:101B2000E33040F4F0E0E557FE4F808190E0CF9144
:101B30000C944A0CC85AC73158F4EC2FF0E0EE0F61
:101B4000FF1FE35AFE4F80819181CF910C94600C6E
:101B5000CF910895882329F19CEF980F913A20F4B2
:101B60000E94B4150C941E1690E2980F983050F411
:101B7000877091E001C0990F8A95EAF7892F0E943A
:101B8000DB15F0CF9BE5980F933020F490E080E0D8
:101B90000C944A0C885A873120F490E080E00C9431
:101BA000600C0895CF93C82F0E94640DC93349F487
:101BB0002FEF87EE93E0215080409040E1F700C086
:101BC00000008C2FCF910C94AA0D882321F00E9445
:101BD000D5150C941E160895882321F00E94DB155C
:101BE0000C941E160895BF92CF92DF92EF92FF924F
:101BF0000F931F93CF93DF936C01D62FC72FFC0158
:101C0000058102950F70128111110E94F2150E9438
:101C1000CB15E82E882391F01123D1F08C2F807FF3
:101C2000803421F080E28D0F883090F082E00E94B5
:101C300069160E94CB1591E0E82EE926BC2EB294DD
:101C40009FE0B922EB2DF0E0EC5DFF4D0C94B31F4B
:101C5000E12CF4CF0C2F0F70C07F11F00295007FA4
:101C60001123A9F0002359F080E28D0F883010F085
:101C7000D11109C0802F0E94D5150E941E168D2FEC
:101C80000E94640D14C0802F0E94E515F6CF8D2FA1
:101C90000E94AA0D002359F080E28D0F883010F0C9
:101CA000D1112CC0802F0E94DB150E941E162B2DF7
:101CB0002850330B2430310520F40E94240C0E945C
:101CC0004502EE2009F493C10E94C71580FD8FC123
:101CD000F60112820E94C1150E944C14C6010E9496
:101CE00018100E94C115DF91CF911F910F91FF90A5
:101CF000EF90DF90CF90BF900C946D14802F0E94D6
:101D0000EB15D3CFFC2FFF70FF2EC07FC03219F030
:101D1000F29480EFF822DD2369F0D13049F11123EC
:101D200091F1002351F1F601858180FFA8CF8F70DA
:101D3000858323C0112381F0011106C00E9405167E
:101D40008F290E94E50DB3CF0130C1F70E9405161F
:101D50008F290E940B16ABCF011106C00E941416EA
:101D60008F2D0E94EC0DA3CF013009F4A0CFF6CF48
:101D7000112329F0063008F09ACF8F2DE2CF0530DD
:101D800008F095CFEDCF002359F3D93349F4FFEF95
:101D900027EE33E0F15020403040E1F700C0000072
:101DA0008D2F0E94AA0D83CF8C2F869586958370E8
:101DB00069F0813009F07BCF8D2F9C2F937011112A
:101DC00002C090E080E00E94600C71CF8D2F9C2FAC
:101DD0009370111102C090E080E00E944A0C67CF1E
:101DE0008C2F837009F041C0111161CF4D2F4295A6
:101DF00046954770440F440F0D2F0F7010E030E0F0
:101E000020E0042E04C0000F111F221F331F0A946C
:101E1000D2F760E070E0CB01D4FF0FC06FE070E05C
:101E200080E090E004C0660F771F881F991F4A95D5
:101E3000D2F76095709580959095C695C695C370BC
:101E4000602B712B822B932BC23049F058F4C13098
:101E500019F00E94FE132BCF0E94EC1328CF0E9492
:101E6000101425CF0E94EA1322CF8695112311F07A
:101E70008C2F8170882309F41ACF4D2F42954695F7
:101E80004770440F440F0D2F0F7010E030E020E03A
:101E9000042E04C0000F111F221F331F0A94D2F713
:101EA00060E070E0CB01D4FF0FC06FE070E080E035
:101EB00090E004C0660F771F881F991F4A95D2F7DC
:101EC0006095709580959095C695C695C370602B6A
:101ED000712B822B932BC23049F058F4C13019F08A
:101EE0000E94C314E4CE0E94B114E1CE0E94D51426
:101EF000DECE0E942614DBCECF70112329F08C2F6A
:101F00000E944C148D2F1DCF8D2F0E94EC0D8C2F15
:101F10000E946D14CCCED23F89F160F4D03FC9F05D
:101F2000D13F29F1112309F442C00111A8CE8C2F11
:101F30008F7121C0D33F39F1D43FA1F7112369F14B
:101F4000CF718C2F0E944C1463E08C2F0E9454168A
:101F5000AECE112341F0053008F0A9CE8C2F8F7141
:101F60000E949014A4CE063008F0A1CEF7CF8C2F9B
:101F70008F71112369F20E944C1499CE8C2F8F71AE
:101F80001123C9F3C5CF112329F08C2F8F710E9423
:101F900037148DCE0E9432148ACE81E00E946916D9
:101FA000023008F484CE82E00E94691680CE0023BD
:101FB00059F0D93309F0F4CE8FEF97EEE3E081507A
:101FC0009040E040E1F7EACE8C2F8F71A1CF4C2FEB
:101FD0004F706D2FC6010E949F020E94621367CE50
:101FE0004C2F4F706D2FC6010E94A20260CEDF9170
:101FF000CF911F910F91FF90EF90DF90CF90BF9006
:1020000008950F931F93CF93DF93EC01688179813B
:102010008A810E9489158C010E94E7140E94E913AD
:10202000B801CE01DF91CF911F910F910C94F30D68
:10203000CF93DF93EC018B819C81892B29F08881E0
:10204000998189238F3F59F4DF91CF910895CE0173
:102050000E940110CE01DF91CF910C942902CE0194
:102060000E945D028111F3CF0E94CB15882361F39A
:102070008A81882349F382E0DF91CF910C9469161D
:102080000E94F2150E9402160E941E1690E080E047
:102090000E944A0C90E080E00C94600C0E94BB15FA
:1020A0000C9440100E94E2150C944E10E92FE2951A
:1020B000EF70E250EE3070F4F0E0EC5CFF4D0C9409
:1020C000B31F803F19F020F4883E20F481E008958A
:1020D000843FE1F380E00895883EC0F3813FD1F76B
:1020E000F5CF93FB882780F908950E947F150C9403
:1020F0005610CF93DF9300D000D00F92CDB7DEB74C
:102100000F900F900F900F900F90DF91CF91089547
:10211000CF93DF9300D000D000D0CDB7DEB72696A6
:102120000FB6F894DEBF0FBECDBFDF91CF910895FB
:102130001F93CF93DF93C091AD0116E08091AE0164
:102140008C1304C0DF91CF911F910895D0E01C9FA4
:10215000F0011D9FF00D1124E155FE4F408151818A
:1021600062817381848195810E9488102196C77055
:10217000E5CF4091DF015091E0016091E101709164
:10218000E2018091E3019091E4010C9488101F9387
:10219000CF93DF938091E401807FA9F48091E101E6
:1021A000882389F08091AD01C091AE016091DF017B
:1021B0007091E001A091E201B091E301D62FD72305
:1021C00016E0C81304C0DF91CF911F91089590E0ED
:1021D000109711F0DF3F19F401968770F2CF189F26
:1021E0009001199F300D1124F901E155FE4F4181F5
:1021F0004713F2CF40814613EFCF42814111ECCF1C
:10220000438154814A1B5B0B483C510528F7809160
:10221000E4018F7080618093E401F901EC54FE4F7A
:1022200080818F70806180838FED91E00E94181013
:10223000DF91CF911F910C949810AF92BF92CF92E3
:10224000DF92EF92FF920F931F93CF93DF93CDB75F
:10225000DEB761970FB6F894DEBF0FBECDBF8C011D
:1022600085E0F801DE011D9601900D928A95E1F757
:10227000F80140815181E2808FEDC82E81E0D82E97
:102280006091E2017091E3016115710509F461C18A
:102290009091DF012091E001892F82238F3F09F483
:1022A00058C1A380B480F090E101F501E61BF70B63
:1022B000FF2009F4FCC08091E401382F307FE83C16
:1022C000F10508F0B2C0311179C0FE2C251323C0EE
:1022D000941321C0E1101FC08F7080618093E401CE
:1022E0000E94B910C6010E9418108091E401F80103
:1022F00085838F2D61960FB6F894DEBF0FBECDBFDC
:10230000DF91CF911F910F91FF90EF90DF90CF90D1
:10231000BF90AF900895AB2829F0842F85238F3F7D
:1023200009F033C180E0F82FF170DF2E80FF3CC050
:102330008091AD012091AE0136E0821315C04D872A
:102340005E878D859E850E947F15292F22952F708F
:102350002230F0F0243018F59F70F1F0F8019581EB
:10236000907FD1F4D12C1EC090E0389FF001399FAE
:10237000F00D1124E155FE4F6181651306C06081A7
:10238000641303C062816E110FC001968770D5CFB0
:102390009F7011F0882331F3805E883018F3C801F4
:1023A0000E941810FD2CA5CFEE2009F4A2CF809139
:1023B000E40181608093E401F12C9BCF251306C0DA
:1023C000941304C0F801EE2009F48DC04D875E8798
:1023D0008D859E850E947510882319F1EE2009F1E4
:1023E0008091E401803270F02091DF013091E001B2
:1023F00038872F831986BB86AA868C87CE010796DD
:102400000E94181086E0F801AFEDB1E001900D9246
:102410008A95E1F70E94C7100E94B910FF24F39437
:1024200068CFC8010E941810F9CF311113C07A2D5E
:10243000B98AA88A6E2D89890E9479108FED91E062
:102440000E94181086E0F60111928A95E9F70E9421
:10245000B910B2CF25130FC094130DC0E1100BC0FB
:10246000F8018583C8010E94181086E0F6011192D8
:102470008A95E9F73ECF4D875E878D859E850E94C0
:102480007510882371F2EE2061F28091E4018032B0
:1024900008F4B8CF2091DF013091E0013A8329831D
:1024A0001B82BD82AC828E83CE010196A9CFE83C0F
:1024B000F10508F041C0FE2CEE2009F4B2CF25133F
:1024C0002AC0941328C08091E40180FD1BC0982F7E
:1024D000907FC1F0F8018583903F31F0982F907F75
:1024E000905F8F70892B8583C8010E94181086E049
:1024F000F801AFEDB1E001900D928A95E1F70E94ED
:10250000B910F7CE86E0F801AFEDB1E001900D9281
:102510008A95E1F7EECE4D875E878D859E850E9478
:10252000751081116FCF8091E40181608093E40187
:10253000C8010E941810DDCE7A2DB98AA88A6E2DA6
:1025400089890E94791086E0F60111928A95E9F74F
:10255000D6CFEE2009F465CF4D875E878D859E85A9
:102560000E947510F82E882309F45BCF86E0F801ED
:10257000AFEDB1E001900D928A95E1F78FED91E01A
:102580000E945F0D0E94C710BACF81E08E25CBCE8E
:102590001F93CF93DF93CDB7DEB72C970FB6F89488
:1025A000DEBF0FBECDBF4F83588769877A878B8781
:1025B0009C87CE0107960E941D11882369F08A85A9
:1025C0009B85892B39F04F815885842F85238F3F38
:1025D00009F071C016E05FC086E0FE013796DE01AB
:1025E000119601900D928A95E1F78A859B85892B3A
:1025F00089F388859F8189238F3F61F32091AE0104
:1026000030E0C9010196877099274091AD014817C4
:10261000190671F40E9452101092AE011092AD0191
:1026200086E0EFEDF1E0DF011D928A95E9F7D2CF68
:1026300096E0929FD001939FB00D1124A155BE4FFB
:10264000FE01319601900D929A95E1F78093AE01CB
:102650000E949810BFCF819FC001112481559E4FC9
:102660000E941D118823E9F0E091AD011E9FF00149
:102670001124E155FE4F4081518162817381848133
:1026800095810E9488108091AD0190E0019687703D
:1026900099278093AD018091AD019091AE0189138E
:1026A000DACF2C960FB6F894DEBF0FBECDBFDF9108
:1026B000CF911F91089569857A858B859C850E94AD
:1026C000881088CFEF92FF920F931F93CF93DF93E1
:1026D0008C01892B81F0F12CEE24E394E801219602
:1026E000F8018491843770F4843008F05FC0813041
:1026F000B1F08230A1F1DF91CF911F910F91FF9046
:10270000EF900895853709F44CC008F43DC09CE76C
:10271000980F903780F78F770E94AA0D49C00E5FFF
:102720001F4FFE01849190E2980F983060F48770FB
:10273000FE2D01C0FF0F8A95EAF78F2F0E94F51535
:102740000E941E1602C00E94640D8F2D815030F22F
:10275000EFE9FFE03197F1F700C00000F7CF0E5F1F
:102760001F4FFE01849190E2980F983050F48770CB
:10277000FE2D01C0FF0F8A95EAF78F2F0E94FB15EF
:10278000DFCF0E94AA0DE1CF0E5F1F4FFE01C49163
:10279000C150D8F28FE99FE00197F1F700C0000027
:1027A000F7CF0E5F1F4FFE01F490CFCF0E94640D54
:1027B0008E01CBCF08950C94DA130E94DB13609343
:1027C000F3017093F4018093F5019093F6010C945A
:1027D000401008950C94DD130F931F930091F301A3
:1027E0001091F4012091F5013091F601602B712BCD
:1027F000822B932B1F910F910C94DD130F931F933A
:102800000091F3011091F4012091F5013091F6014E
:1028100060237123822393231F910F910C94DD1366
:102820000F931F930091F3011091F4012091F50192
:102830003091F60160277127822793271F910F910E
:102840000C94DD130C94DA130C9422140E942414BB
:102850006093EF017093F0018093F1019093F20186
:102860000C94401060E070E0CB010C9426140F93A0
:102870001F9341E050E060E070E08A019B0104C0DA
:10288000000F111F221F331F8A95D2F7C901B8010B
:102890001F910F910C9426140F931F9341E050E069
:1028A00060E070E004C0440F551F661F771F8A95D3
:1028B000D2F78091EF019091F001A091F101B091D8
:1028C000F2018A019B01082B192B2A2B3B2BC901F2
:1028D000B8011F910F910C9426140F931F9341E0A0
:1028E00050E060E070E004C0440F551F661F771F82
:1028F0008A95D2F7CB01BA01609570958095909535
:102900000091EF011091F0012091F1013091F2015D
:1029100060237123822393231F910F910C9426141B
:102920000F931F9341E050E060E070E004C0440F5B
:10293000551F661F771F8A95D2F78091EF019091FE
:10294000F001A091F101B091F2018A019B010827E9
:1029500019272A273B27C901B8011F910F910C9411
:1029600026140F931F930091EF011091F001209115
:10297000F1013091F201602B712B822B932B1F916F
:102980000F910C9426140F931F930091EF01109157
:10299000F0012091F1013091F20160237123822333
:1029A00093231F910F910C9426140F931F93009162
:1029B000EF011091F0012091F1013091F2016027B7
:1029C0007127822793271F910F910C942614089545
:1029D000E92FEE0F9E0F890F982F977041E001C0ED
:1029E000440F9A95EAF786958695869595E0899F96
:1029F000F0011124EB51FE4F30E020E070E05191E6
:102A0000DF011197CB01022E02C0969587950A949B
:102A1000E2F7817081958527842385278C932F5F2A
:102A20003F4F2530310559F70895E92FEE0F9E0FDE
:102A3000890F982F977086958695869525E0829FB9
:102A4000F0011124EB51FE4F50E040E080E0219175
:102A500030E0092E02C0369527950A94E2F72170DE
:102A60003327042E01C0220F0A94EAF7822B4F5F0E
:102A70005F4F4530510559F70895BF92CF92DF92CD
:102A8000EF92FF920F931F93CF93DF938C01C0902F
:102A9000EF01D090F001E090F101F090F20180910F
:102AA000F3019091F401A091F501B091F601C82ACB
:102AB000D92AEA2AFB2ACFE1D0E0BC2ED701C601F1
:102AC0000C2E04C0B695A795979587950A94D2F7D2
:102AD00080FD0EC0219788F7B12C8B2DDF91CF910F
:102AE0001F910F91FF90EF90DF90CF90BF900895CE
:102AF000B8018C2F0E94BF02019761F3EECFCF93F4
:102B0000DF93EC010E943D15BE01DF91CF910C9443
:102B1000BF021F93CF93DF93EB019091AC019923F8
:102B200031F0CB01DF91CF911F910C947F15882359
:102B300079F0CB010E943D15182F682FCE010E941D
:102B4000E814BE01812FDF91CF911F910C94BF0239
:102B5000CB010E941515182FF4CF682F8091060124
:102B6000909107010C94B917682F809106019091FC
:102B700007010C94C41780910601909107010C94F1
:102B8000CF178091F701859585958595089580915A
:102B9000F701877008959091F701977081E009F42B
:102BA00080E0089580911B02089590911B02892B6B
:102BB00080931B020895809590911B029823909317
:102BC0001B02089510921B02089590911A02892BFE
:102BD00080931A020895809590911A0298239093F9
:102BE0001A02089510921A02089590911902892BE1
:102BF00080931902089580959091190298239093DB
:102C0000190208951092190208958091F80108950B
:102C100008950C9408169091F801981721F080936C
:102C2000F8010C94091608958091F801882329F081
:102C30001092F80180E00C9409160895E0910601C5
:102C4000F091070180911B028083E0910601F091D1
:102C50000701808190911A02892B8083E0910601FF
:102C6000F0910701808190911902892B80839091C6
:102C7000F801992381F0E0910601F091070180812C
:102C8000892B808380910601909107010E9425176E
:102C900081110E94141680910601909107010C94F5
:102CA000300C08950C94511698E0899F90011124DE
:102CB000622B6093F7010E944C148091F701859577
:102CC000859585950C9452161092F70180E00C942E
:102CD00052169091F701809589238093F701282F50
:102CE000277071F4282F082E000C330B921713064F
:102CF00039F08595859585950E946D140C94641620
:102D0000089590E080E00E94D41F21E08C3E9E4F09
:102D100009F020E0822F089582E090E00C94C61F15
:102D200083E090E00C94C61FCF9384E090E00E9473
:102D3000C61FC82F81E290E00E94C61F982F8C2FDB
:102D4000CF910895CF93C92F682F84E090E00E941F
:102D5000DA1F6C2F81E290E0CF910C94DA1FAB0167
:102D6000BC018FE090E00C94EC1FAB01BC0183E14F
:102D700090E00C94EC1F60E070E0CB010C94B51671
:102D800060E070E0CB010E94AF160C94BB166CEEB5
:102D90007EEF90E080E00E94F81F60E082E090E02B
:102DA0000E94DA1F60E083E090E00E94DA1F109238
:102DB000F3011092F4011092F5011092F60160E017
:102DC00084E090E00E94DA1F60E081E290E00E94DF
:102DD000DA1F60E085E090E00E94DA1F60E086E0A4
:102DE00090E00E94DA1F6FEF87E090E00E94DA1F08
:102DF00040E050E0BA0188E090E00E94EC1F60E003
:102E00008DE090E00E94DA1F40E050E0BA0188E1D6
:102E100090E00E94EC1F60E087E190E00E94DA1FE2
:102E200040E050E0BA018CE190E00E94EC1F60E0CD
:102E300080E290E00E94DA1F0C94C0160C94C71632
:102E4000682F8EE090E00C94DA1FFC01329680919E
:102E50001201882321F0809159029EE187FF96E0BC
:102E600080E0915008F4089521912223D1F38F5FDF
:102E7000F8CF662301F1209112012223F1F0209175
:102E8000590227FF1AC0462F4695469546954E3162
:102E900090F4677021E030E002C0220F331F6A9582
:102EA000E2F7840F911DFC01828190E028233923F1
:102EB00081E0232B69F480E00895FC0132960896A6
:102EC0002191261721F0E817F907D1F7F4CF81E017
:102ED00008959C01FC0132969FEF80E041914617D6
:102EE00051F09F3F19F4411101C0982F8F5F863038
:102EF000A9F79F3F09F40895290F311D97FD3A95D1
:102F0000F90162830895FC013296089621912613F7
:102F100003C0DF0111971C92E817F907B9F708956C
:102F2000E62FE695E695E695EE3168F4E80FF92F81
:102F3000F11D677021E030E001C0220F6A95EAF7C9
:102F40008281822B82830895E62FE695E695E695A9
:102F5000EE3170F4E80FF92FF11D677021E030E0D9
:102F600001C0220F6A95EAF72095828128232283E7
:102F7000089520911201222329F02091590227FD62
:102F80000C9490170C94691720911201222329F0B8
:102F90002091590227FD0C94A4170C948317FC016F
:102FA000329680911201882351F08091590287FF57
:102FB00006C08EE1DF011D928A95E9F7089586E04B
:102FC000F9CF089508950C94E2170E94E3178091B9
:102FD0005F02843049F110921D0288E190E020E404
:102FE0000FB6F894A895809360000FBE2093600000
:102FF00080E00E9445020E94E31783B7817F8460CE
:1030000083BF83B7816083BF7894889583B78E7FB1
:1030100083BF0FB6F894A895809160008861809373
:103020006000109260000FBE08950895CF930E9433
:10303000E1170E9403050E941518C0E08C2F0E9422
:10304000AB04811105C0CF5FC330C1F7CF910895A4
:1030500081E0FCCF08950C942A180E9452100E941F
:10306000240C0E9445020C942B181F921FB61F922D
:1030700011248F939F93AF93BF9380911D02811171
:1030800013C08091550290915602A0915702B091C1
:1030900058024196A11DB11D80935502909356028E
:1030A000A0935702B0935802BF91AF919F918F9117
:1030B0001F901FBE1F90189582E084BD93E095BDC0
:1030C0009AEF97BD80936E0008952FB7F894809182
:1030D000550290915602A0915702B09158022FBF0D
:1030E00008959C014FB7F894809155029091560233
:1030F000A0915702B09158024FBF821B930B0895C5
:1031000078941F921FB61F9211248F939F93AF93B1
:10311000BF938091550290915602A0915702B091B1
:1031200058020196A11DB11D80935502909356023D
:10313000A0935702B0935802BF91AF919F918F9186
:103140001F901FBE1F90189587E797E7909301087F
:103150008093000888E19AE00FB6F894A8958093D0
:1031600060000FBE90936000FFCF0E948116811116
:1031700002C00E941E170E948C1680931C020E949F
:10318000941690935A02809359020E949016682FC9
:1031900070E090E080E00C94EA1380913E02089584
:1031A0000895CF93DF9300D00F92CDB7DEB7909103
:1031B0005F02943019F589837B836A8382E0809370
:1031C000E9008FEF9091E800815095FD06C095EDE4
:1031D0009A95F1F700008111F5CF8091E80085FF05
:1031E0000DC050E040E063E070E0CE0101960E9427
:1031F000FA1A8091E8008E778093E8000F900F9084
:103200000F90DF91CF910895CF93DF93EC010E944F
:10321000DD1A823011F0843031F4BE0184E0DF9198
:10322000CF910C94D118DF91CF910895BC0183E028
:103230000C94D118CF93DF93EC010E94DD1A8230F9
:1032400011F08430B9F5809112018823B1F1809199
:10325000590287FF32C060E282E08093E9008FEF7D
:103260009091E800815095FD06C095ED9A95F1F793
:1032700000008111F5CF8091E80085FF1BC080918F
:10328000120170E050E040E0811104C050E040E0E5
:1032900068E070E0CE010E94FA1A8091E8008E7713
:1032A0008093E80080E2FE01AEE1B2E001900D9271
:1032B0008A95E1F7DF91CF91089568E081E0CDCF65
:1032C00080915E02811109C00E948A1C0E94E71C45
:1032D0008091E20084608093E200089510925E0283
:1032E0000895089508950C942D1842E061EC81E052
:1032F0000E94061C42E261EC82E00C94061C809164
:103300006102833009F45FC030F48130C1F1823052
:1033100009F49BC008958A3009F487C08B3009F402
:103320006DC0893009F04EC080916002813209F091
:1033300049C08091640290916502029708F042C0F2
:103340008091E800877F8093E8008091E80082FF09
:1033500035C09091F3008091F200029729F480919A
:10336000F1008B7F813021F48091F10080933E0247
:103370008091E8008B778093E8000C943A1C809150
:103380006002813AF9F48091E800877F8093E80039
:103390008091640290916502892B61F460E28EE174
:1033A00092E070E00E94491B8091E8008B77809347
:1033B000E800089560E090E080E0F3CF80915F0244
:1033C0008111C3CF089580916002813AD9F780912D
:1033D000640290916502892BA9F78091E800877FAC
:1033E0008093E8008091E80080FFFCCF809112017B
:1033F0008093F1008091E8008E77BDCF80916002CC
:10340000813201F78091640290916502892BD1F697
:103410008091E800877F8093E8000E943A1C8091A9
:103420006202809312010C945210809160028132EA
:1034300049F68091E800877F8093E8000E943A1C5B
:103440008091630280933F02089580916002813AE7
:1034500009F0B8CF8091E800877F8093E8008091E1
:10346000E80080FFFCCF80913F02C2CF84B7877F06
:1034700084BF0FB6F894A89580916000886180930E
:103480006000109260000FBE80E890E00FB6F894E4
:1034900080936100909361000FBE0E94830C0E9494
:1034A0008A1C0E94E71C8091E20084608093E20005
:1034B00078940E94701F0E948D0C88E091E00E9419
:1034C0001F0C80915F02853019F00E94990CF9CF92
:1034D0000E94E51780915D02882399F30E941618D7
:1034E000882379F30E94E41AECCF0C94771A292FE1
:1034F00033272330310519F168F42130310509F4FF
:103500004AC02230310509F44BC090E080E030E041
:1035100020E028C02132310579F122323105A9F7A6
:1035200080E490E028EC32E061157105D9F08DE679
:1035300090E02BE532E061307105A1F0E6CF9927EC
:103540008130910599F0009741F08230910589F022
:103550000397D9F6E2EDF1E002C0EAE0F2E08491EF
:1035600090E09F01FA01318320830895ECEFF1E0B0
:10357000F6CFE8EDF1E0F3CF89E090E020E232E031
:103580006115710579F389E090E029E332E061305B
:10359000710541F3BACF82E190E029E432E0E2CF55
:1035A0008BE390E02EE032E0DDCF80915F0284304B
:1035B00011F482E0089581E0089580914002811124
:1035C00002C00C94D51A089580E189BD82E189BDBD
:1035D00009B400FEFDCF8091D8008F7D8093D80084
:1035E0008091E00082608093E0008091E00081FDA6
:1035F000FCCF0895AF92BF92CF92DF92FF920F93CC
:103600001F93CF93DF936C01EB018A010E94591C39
:10361000F82E811123C00115110539F0F8018081C0
:103620009181C81BD90BC80ED91EB12CA12C209793
:10363000A9F08091E80085FD22C08091E8008E7796
:103640008093E80001151105A1F0F80180819181B6
:10365000A80EB91EB182A08285E0F82E8F2DDF91D1
:10366000CF911F910F91FF90DF90CF90BF90AF90BF
:1036700008950E94591C8823D1F2F82EEFCFF6014D
:1036800081916F018093F1002197FFEFAF1ABF0A7C
:10369000CECFFC0180916602909167028617970752
:1036A000A0F06115710529F49091E8009E77909340
:1036B000E80090E06115710551F4911108C0809106
:1036C000E80082FF34C080E00895BC01F2CF809111
:1036D0005F028823C1F18530C1F18091E80083FD4C
:1036E00030C08091E80082FDEACF8091E80080FF41
:1036F000E1CF8091F3002091F200382F6115710520
:1037000019F02830310558F091E02830310509F0E2
:1037100090E02091E8002E772093E800CBCF8191B4
:103720008093F100615071092F5F3F4FE7CF809187
:103730005F02882341F0853041F08091E80083FFEB
:10374000BECF81E0089582E0089583E00895FC01F2
:10375000809166029091670286179707A0F0611525
:10376000710529F48091E8008E778093E80090E05D
:103770006115710551F4911108C08091E80082FF34
:1037800035C080E00895BC01F2CF80915F028823AC
:10379000C9F18530C9F18091E80083FD31C0809185
:1037A000E80082FDEACF8091E80080FFE1CF8091C0
:1037B000F3002091F200382F6115710519F02830BF
:1037C000310558F091E02830310509F090E0809102
:1037D000E8008E778093E800CBCF84918093F1004E
:1037E0003196615071092F5F3F4FE6CF80915F02A4
:1037F000882341F0853041F08091E80083FFBDCF00
:1038000081E0089582E0089583E00895982F97302D
:1038100028F08F708093E90081E008959093E9008B
:10382000242F762F50E0981731F07091EC00209102
:10383000ED005091F00021FD02C09F5FE8CF309174
:10384000EB003E7F3093EB003091ED003D7F3093F5
:10385000ED003091EB0031603093EB007093EC00A1
:103860002093ED005093F0002091EE0027FDE5CF6E
:1038700080E008958091600287FF13C08091E80086
:1038800082FF06C08091E8008B778093E80004C037
:1038900080915F028111F2CF089580915F028823A9
:1038A000D9F38091E80080FFF8CF8091E8008E770F
:1038B000ECCF2091E4003091E50095E6A90120913C
:1038C000EC00822F817020FF06C08091E80080FF0D
:1038D00006C080E008952091E80022FD1AC0809182
:1038E0005F02882389F0853089F08091EB0085FDA7
:1038F0000FC02091E4003091E50042175307F9F220
:103900009150E1F684E0089582E0089583E00895FF
:1039100081E008950E94F81C0E94001DE0EEF0E096
:10392000808181608083E8EDF0E080818F77808303
:1039300019BCA7EDB0E08C918E7F8C9380818F7E37
:10394000808310925E0208950F931F93CF93DF93AD
:103950000E94F81C0E94001DC8EDD0E088818F777E
:10396000888388818068888388818F7D888319BC5B
:1039700010925F0210925B0210925D0210925C0244
:1039800000EE10E0F80180818B7F80838881816068
:10399000888342E060E080E00E94061CE1EEF0E0F7
:1039A00080818E7F8083E2EEF0E080818160808381
:1039B000808188608083F80180818E7F8083888108
:1039C00080618883DF91CF911F910F910895E8ED79
:1039D000F0E080818F7E8083E7EDF0E08081816080
:1039E000808384E082BF81E080935E020C94A41CFB
:1039F000E8EDF0E080818E7F80831092E2000895F0
:103A00001092DA001092E10008951F920F920FB603
:103A10000F9211242F933F934F935F936F937F9354
:103A20008F939F93AF93BF93EF93FF938091E100A8
:103A300082FF0BC08091E20082FF07C08091E1000D
:103A40008B7F8093E1000E946F1F8091DA0080FFDE
:103A500019C08091D80080FF15C08091DA008E7F58
:103A60008093DA008091D90080FF96C080E189BD03
:103A700082E189BD09B400FEFDCF81E080935F0241
:103A80000E9460198091E10080FF19C08091E200DE
:103A900080FF15C08091E2008E7F8093E2008091CC
:103AA000E20080618093E2008091D8008062809380
:103AB000D80019BC85E080935F020E947219809142
:103AC000E10084FF2BC08091E20084FF27C080E1E9
:103AD00089BD82E189BD89B5982F917080FFFBCFA8
:103AE0008091D8008F7D8093D8008091E1008F7EF7
:103AF0008093E1008091E2008F7E8093E2008091CC
:103B0000E20081608093E20080915B02882309F4E7
:103B100049C084E080935F020E9473198091E100A4
:103B200083FF29C08091E20083FF25C08091E100DE
:103B3000877F8093E10082E080935F0210925B02B6
:103B40008091E1008E7F8093E1008091E2008E7F82
:103B50008093E2008091E20080618093E20042E085
:103B600060E080E00E94061C8091F00088608093F5
:103B7000F0000E947119FF91EF91BF91AF919F9159
:103B80008F917F916F915F914F913F912F910F9006
:103B90000FBE0F901F90189519BC10925F020E94E3
:103BA0006E1970CF8091E30087FD93E090935F02E0
:103BB000B3CF1F920F920FB60F9211242F933F9302
:103BC0004F935F936F937F938F939F93AF93BF9325
:103BD000CF93DF93EF93FF93D091E900DF70809153
:103BE000EC00C82FC17080FDC0E81092E900809100
:103BF000F000877F8093F00078940E941D1E109241
:103C0000E9008091F00088608093F000CD2BCF70A8
:103C1000C093E900FF91EF91DF91CF91BF91AF91F8
:103C20009F918F917F916F915F914F913F912F91D4
:103C30000F900FBE0F901F9018951F93CF93DF9397
:103C4000CDB7DEB7AA970FB6F894DEBF0FBECDBFD3
:103C500080E692E02091F100FC012193CF01F2E097
:103C600088369F07B9F70E947F198091E80083FF8B
:103C70001EC180916002909161029A3008F017C1D4
:103C8000E92FF0E0EE5BFF4D0C94B31F803899F004
:103C9000823809F00CC1809164028F70873008F07F
:103CA00006C18093E9008091EB0085FB882780F9AD
:103CB0001092E90006C080915C0290915D02911122
:103CC00082609091E800977F9093E8008093F100E4
:103CD0001092F1008091E8008E77E5C0882309F406
:103CE000D3C0823009F0E3C0809162028111D6C056
:103CF000809164028F702FEF280F263008F0D7C014
:103D00008093E9002091EB0020FFC8C0933031F48C
:103D10008091EB0080628093EB00C0C09091EB003B
:103D200090619093EB0021E030E001C0220F8A9572
:103D3000EAF72093EA001092EA008091EB00886095
:103D4000EACF8111B4C0109162021F778091E30025
:103D50008078812B8093E3008091E800877F8093B7
:103D6000E8000E943A1C8091E80080FFFCCF80911F
:103D7000E30080688093E30082E0111183E0809388
:103D80005F0295C08058823008F091C08091620235
:103D9000909163028C3D23E09207A1F583E08A8332
:103DA0008AE289834FB7F894DE01139620E03EE063
:103DB00051E2E32FF0E050935700E49120FF03C05D
:103DC000E295EF703F5FEF708E2F90E0EA30C0F029
:103DD000C7968D939D932F5F243159F74FBF8091E4
:103DE000E800877F8093E8006AE270E0CE010196E8
:103DF0000E94491B8091E8008B778093E80057C0B0
:103E0000C096E7CF6091640270916502AE014F5F8A
:103E10005F4F0E94751ABC01892B09F448C090912C
:103E2000E800977F9093E80089819A810E94A71B00
:103E3000E1CF8038E1F58091E800877F8093E8004A
:103E400080915B028093F10045CF811130C0909149
:103E50006202923060F58091E800877F8093E800ED
:103E600090935B020E943A1C80915B02882311F0C0
:103E700084E005C08091E30087FDFACF81E0809364
:103E80005F020E94751913C080916202813079F43B
:103E900081E0933009F080E080935D021092E900A8
:103EA0008091E800877F8093E8000E943A1C80910F
:103EB000E80083FF0AC08091E800877F8093E800D4
:103EC0008091EB0080628093EB00AA960FB6F89485
:103ED000DEBF0FBECDBFDF91CF911F910895089532
:103EE000CF9380915F028823A1F0C091E900CF7049
:103EF0009091EC00892F817090FD80E8C82B109282
:103F0000E9008091E80083FD0E941D1ECF70C093E0
:103F1000E900CF910895AA1BBB1B51E107C0AA1F5E
:103F2000BB1FA617B70710F0A61BB70B881F991F5A
:103F30005A95A9F780959095BC01CD01089597FBFE
:103F4000072E16F4009407D077FD09D00E948B1F2E
:103F500007FC05D03EF4909581959F4F089570958C
:103F600061957F4F0895EE0FFF1F0590F491E02DAE
:103F70000994FC014150504030F001900616D1F7F1
:103F80003197CF010895882799270895F999FECF91
:103F900092BD81BDF89A992780B50895A6E1B0E059
:103FA00044E050E00C940020A8E1B0E042E050E092
:103FB0000C940020262FF999FECF92BD81BDF89A6E
:103FC000019700B4021639F01FBA20BD0FB6F8945D
:103FD000FA9AF99A0FBE08950396272F0E94DB1FC5
:103FE0000E94DA1F252F0E94DB1F242F0C94DB1F59
:103FF0000196272F0E94DB1F0C94DA1FDC01CB01F6
:10400000FC01F999FECF06C0F2BDE1BDF89A3196E8
:1040100000B40D9241505040B8F70895F894FFCF86
:10402000600968096F09740979097E09830988099B
:104030008D09920997099C0962096209620962095E
:10404000620962096209A0092A0E2A0E820E820EF6
:10405000D40E570E570E570EF00E7C0F8B0F8B0F92
:10406000E70F570E570EF00F611061106A106A10BB
:104070006C106A106A106A106110611071106A1079
:104080006A107110461E6E1E571F6E1E571FA11E0E
:08409000C21E571F191F251F56
:10409800000300030301F901CD181A19D0181619E5
:1040A800041901E200E900EA00B500B600B700CD46
:1040B800008301CC008A0192019401210223022489
:1040C800022502260227022A02B300B4006F0070FC
:1040D800008182833534C691909400010200FF016B
:1040E80000010000FFFF0000010001FF00E200E9FD
:1040F80000EA00B500B600B700CD008301CC008A05
:10410800019201940121022302240225022602279A
:0E411800022A02B300B4006F0070008182839F
:00000001FF
