:100000000C9487010C94CE010C94CE010C94CE017B
:100010000C94CE010C94CE010C94CE010C94CE0124
:100020000C94CE010C94CE010C94E61D0C94BA1ED7
:100030000C9416190C94CE010C94CE010C94CE01A4
:100040000C94CE010C94CE010C94CE010C94CE01F4
:100050000C94CE010C9461190C94CE010C94CE0139
:100060000C94CE010C94CE010C94CE010C94CE01D4
:100070000C94CE010C94CE010C94CE010C94CE01C4
:100080000C94CE010C94CE010C94CE010C94CE01B4
:100090000C94CE010C94CE010C94CE010C94CE01A4
:1000A0000C94CE010C94CE010C94CE01AC41AB006B
:1000B000AE00AA005200A900500051004F002900D4
:1000C000AE00005CD55CCF5CD25CCD5C3C003D00FA
:1000D00000047F3F1F783C1E000101010101010166
:1000E00001010202020202020202020303030303ED
:1000F00003030304040404040404050505050506BC
:100100000606060607070707070808080809090979
:10011000090A0A0A0B0B0B0C0C0C0D0D0D0E0E0E22
:100120000F0F0F10101111111212131314141515B3
:1001300016161717181819191A1A1B1B1C1D1D1E25
:100140001E1F202021222223242425262627282979
:10015000292A2B2C2D2D2E2F3031323233343536A7
:100160003738393A3B3C3D3E3F40414243444546A7
:100170004748494A4C4D4E4F505153545556585983
:100180005A5B5D5E5F616264656668696B6C6D6F2A
:100190007072737577787A7B7D7E8082838587889D
:1001A0008A8C8E8F91939596989A9C9EA0A2A3A5D7
:1001B000A7A9ABADAFB1B3B5B7BABCBEC0C2C4C6D8
:1001C000C9CBCDCFD1D4D6D8DBDDDFE2E4E7E9EB94
:1001D000EEF0F3F5F8FAFDFF04033000000022030F
:1001E00047006F0077006C00610020004D00610047
:1001F000630072006F00200065005200470042005B
:1002000000000C0347006F0077006C0061000000E5
:100210000403090409023B00020100A0FA090400DA
:100220000001030101000921110100012240000722
:1002300005810308000A0904010001030000000908
:100240002111010001226D000705820320000A121E
:1002500001100100000008EDFE070001000102038B
:100260000105010980A101850319012AB7001501C3
:1002700026B700950175108100C0050C0901A10188
:10028000850419012AA002150126A0029501751006
:100290008100C005010906A1018505050719E029AE
:1002A000E715002501950875018102050719002948
:1002B000EF1500250195F075018102050819012946
:1002C00005950575019102950175039101C0050120
:1002D0000906A101050719E029E715002501950880
:1002E000750181029501750881010507190029FF33
:1002F000150026FF009506750881000508190129DB
:1003000005950575019102950175039101C01124B0
:100310001FBECFEFDAE0DEBFCDBF04B603FE27C0BD
:100320008091710290917202A0917302B091740257
:100330008730904BA740B04BD1F4109271021092CD
:100340007202109273021092740214BE84B7877FF7
:1003500084BF0FB6F894A89580916000886180935F
:100360006000109260000FBEE0E0F8E3099511E034
:10037000A0E0B1E0EAE5F2E402C005900D92A639F2
:10038000B107D9F722E0A6E9B1E001C01D92A1377B
:10039000B207E1F70E94171B0C94EF200C940000A9
:1003A000811106C089EA611101C08AEA0C94B30E7A
:1003B00008950F9302E020E04FEF6FEF80E80E9476
:1003C00042084FEF6FEF80E80F910C94E00781E057
:1003D000089581E008950C94E90108950C94ED01CD
:1003E0001F93CF93DF9300D000D00F92CDB7DEB72D
:1003F00049835A836B833091B50189819A81311188
:100400001DC06623B9F02223A9F00E941E16182FE2
:10041000682F89819A810E94C91569817A81812F0B
:100420000F900F900F900F900F90DF91CF911F9131
:100430000C94A6020E94F615182FEFCF0E941E16EC
:1004400069817A81EDCFFC01262F40815181628143
:10045000738184810C94F001CF93DF93EC0160E011
:100460000E942302BE01DF91CF910C94EE010E9405
:100470006217811102C00E94FF170C94A9040C940A
:10048000AC0408950C94410281E008950C94440258
:10049000CF93C82F0E9442028C2FCF910C9446021A
:1004A00008950E9433110E9450022FEF84E39CE0D4
:1004B000215080409040E1F700C000000C94851965
:1004C0000F931F93CF93DF93EC0161E00E9423020F
:1004D0008C01BE010E94EB01882359F1BE01C801C5
:1004E0000E94720B882329F1BE01C8010E94B30B40
:1004F0008823F9F0BE01C8010E94D60C8823C9F0F8
:10050000BE01C8010E94230A882399F08A818823AA
:1005100039F001158CE5180751F00E3D1C4579F0B6
:10052000CE01DF91CF911F910F910C94E7010E94B2
:10053000510280E0DF91CF911F910F9108950E94A9
:10054000FF17F7CF90E080E008950895972F70E0AF
:1005500023E0929F600D711D1124FB0199E0899F9A
:10056000E00DF11D1124EE0FFF1FE455FF4F8591A3
:1005700094910895FC01EE0FFF1FE053FF4F85910A
:1005800094910895CF93DF930E94A6020E94CE0318
:10059000EC01811520E5920708F041C0811530E497
:1005A000930708F0B4C0803E910518F5803C910592
:1005B00008F09DC0883A910570F4853A910508F0DD
:1005C0008EC081309105F9F00097E9F00497D8F4D6
:1005D000D0E0C0E018C08F3B9105D0F7C85AD0E0FA
:1005E000CC0FDD1FCB5EDE4F0990D881C02DD464C7
:1005F0000AC08115904258F4C11581E0D80718F45B
:10060000C83ED10528F7CE01DF91CF910895C115DD
:1006100090E3D90708F071C0CE019F706AC08115C0
:1006200025E5920758F5811534E5930708F09EC03B
:10063000811542E5940750F4C11581E5D80708F407
:1006400069C0DC2FCC27C16FD06ADDCF982F96957B
:1006500096959E0123703327C115D34508F077C0C6
:10066000C1E0D0E002C0CC0FDD1F2A95E2F720E206
:10067000929FC0011124C82BD92B67C0C11589E5F1
:10068000D807A8F4C11598E5D90708F074C0C115BA
:1006900026E5D20708F09CCF8C2F0E946504C82F56
:1006A000D0E0DC2FCC27CC27DF71D062ACCFC115D6
:1006B0003AE5D30708F464C0CE0190568115904204
:1006C00008F086CF8D2F8F710E94650490E0982FDF
:1006D000882788279F719C012C2BE901E6CFC55AFA
:1006E000D0E0CD5BDE4FC881D0E0D0648CCF805CA1
:1006F00091090E94BA02EC0186CFCE019927D3FF5F
:1007000003C0EC01D86C7FCFEC01D06C7CCFDF70E4
:10071000D06A79CFCE01E4E096958795EA95E1F726
:1007200083702C2F26952695237090E2299F9001A7
:100730001124382B8C2F8370C1E0D0E002C0CC0F85
:10074000DD1F8A95E2F7C22BD32BDC685CCFC1E0BA
:10075000D0E002C0CC0FDD1F2A95E2F730E2939F74
:10076000C0011124C82BD92BDA684DCFD82FCC2744
:10077000C46FD06A48CFDC2FCC27C06FD06A43CF7C
:100780008C2F8F700E94650434E0D695C7953A95FA
:10079000E1F7CF709C2FEC01D06935CF82389105FD
:1007A000B1F1B0F48133910509F475C048F4893290
:1007B000910509F469C08A32910509F473C008955E
:1007C0008533910509F459C08933910501F10895E4
:1007D000833E9105A9F138F4803E9105F9F0823EFF
:1007E000910549F10895863E9105A9F1873E91054D
:1007F000C9F1843E910519F52091630221FF1FC0C4
:100800008091620284FD14C087EE90E008952091EB
:1008100062022370A1F080EE90E0089520916202C0
:1008200020FD47C03091630230FF09C024FF44C05F
:1008300090E080E004C02091620222FDF7CF08958D
:100840002091620222FD3BC03091630230FDE3CF74
:1008500024FFF5CFEDCF2091620223FFF0CF24FDDE
:10086000E7CFD2CF2091620223FD2CC030916302EA
:1008700031FFEECF84EE90E008952091620225FFD3
:10088000DECF89E290E008952091620225FFD7CF64
:1008900085E390E008952091620226FFD0CF8AE29E
:1008A00090E008952091620226FFC9CF81E390E095
:1008B000089589E390E0089583EE90E0089582EE34
:1008C00090E0089586EE90E008959091620292FF84
:1008D00006C0282F28712830F9F4877F846093FFA1
:1008E00006C0282F28712831F1F4877E8461209179
:1008F000630220FF06C0382F38713830D9F4877F63
:10090000816021FF06C0282F28712831D1F4877E0D
:10091000816194FD877E0895282F24712430F9F693
:100920008B7F8860DCCF282F2471243101F78B7EE8
:100930008861DDCF382F3171313019F78E7F8860B3
:10094000E0CF282F2171213121F78E7E8861E1CF00
:1009500008950C94A80408950C94AB04E82FF0E0DB
:10096000E35BFD4F80810895089580EA8A95F1F751
:100970000895CF93DF93A6E4B1E049E451E0C1E0EC
:10098000D0E08D91E82FE295EF70F0E061A18F70DB
:100990009E0101C0220F8A95EAF7922F9095962327
:1009A00091A382A1822B82A34A175B0751F7A9E486
:1009B000B1E04CE451E0C1E0D0E08D91E82FE29548
:1009C000EF70F0E061A18F709E0101C0220F8A9547
:1009D000EAF7922F9095962391A382A1822B82A36E
:1009E0004A175B0751F710924A0210924D0210927B
:1009F0004B0210924E0210924C0210924F0283E072
:100A00000E949605DF91CF910C9437024F925F922E
:100A10006F927F928F929F92AF92BF92CF92DF920E
:100A2000EF92FF920F931F93CF93DF9396E4C92E1B
:100A300091E0D92E10E000E0712C88248394912C51
:100A40003DE4A32E32E0B32ED6018D916D01C82F67
:100A5000C295CF70D0E099A18F70740101C0EE0CE7
:100A60008A95EAF7892F8E2989A38AA16E2C609432
:100A700086218AA30E94B5049401002E01C0220F92
:100A80000A94EAF7622F2095EAE4F2E089E4482E1E
:100A900081E0582E40E05191D2013D912D01832FEC
:100AA00082958F7090E0DC0190968C9190E03F7081
:100AB00002C0959587953A95E2F7362F352B80FF42
:100AC00002C0322F3523531729F0CF010197DC01E3
:100AD0003C9341E0AE16BF06F1F689A1682269A2F7
:100AE0008AA1E82AEAA2742A0F5F1F4F033011057A
:100AF00009F0AACF272D43E06DE472E08AE492E08A
:100B00000E9497050E943F02872DDF91CF911F9190
:100B10000F91FF90EF90DF90CF90BF90AF909F909C
:100B20008F907F906F905F904F9008950895FF92FF
:100B30000F931F93CF93DF93F82E092F162FD72FE4
:100B4000C42F222349F081E0809398010E94461926
:100B50009093970180939601809198018823A1F04A
:100B600080919601909197010E945219069760F02A
:100B7000EF2DF02FA12FBD2FCE0FDF2FD11DEC17A2
:100B8000FD0741F410929801DF91CF911F910F91D1
:100B9000FF90089581918D93F2CFAF92BF92CF9243
:100BA000DF92FF920F931F93CF93DF93362F472F40
:100BB000E82FF0E0E852FF4F71110DC06491762FDD
:100BC000862FDF91CF911F910F91FF90DF90CF90F3
:100BD000BF90AF900895C72FD0E02491F22E022F3E
:100BE00010E056E0659FC0011124EFEFF0E0BF0177
:100BF0000E946C20832F90E0880F991F35E5369F67
:100C0000D001379FB00D11248A1B9B0B982F990F91
:100C1000980F6F01CC1ADD0AC09ED001C19EB00DA5
:100C2000D09EB00D11248B2F949FA0011124452F2D
:100C300055276F01C41AD50AC09EA001C19E500D50
:100C4000D09E500D11245F01A91AB108AC9E60011D
:100C5000AD9ED00CBC9ED00C1124CD2CDD24EC1903
:100C6000FD09E09FE001E19FD00DF09FD00D112420
:100C7000ED2F62307105A1F048F46115710569F03E
:100C80006130710589F0EB2F852F07C06430710545
:100C900071F088F066307105B1F76E2F722F91CF29
:100CA000E22F2B2F8D2FF9CFE22F252FF6CFEB2F11
:100CB000822F2D2FF2CF2B2F8F2DE52FEECF0895E2
:100CC000CF93DF93762FE901682F842F0E94CD0503
:100CD000798368838A83DF91CF910895423E08F03B
:100CE00041EE0C94600680915002982F9E7F61F433
:100CF000817082608093500280915302823E18F08E
:100D000081EE8093530208958231B0F38170806147
:100D1000F1CF88E090E00C94AF20CF92DF92EF9279
:100D2000FF926B017C010E947306B701A60188E067
:100D300090E0FF90EF90DF90CF900C94CD20E0E515
:100D4000F2E083E0808311828FEF828381EE8383E0
:100D5000148260817181828193810C948D068091CF
:100D6000500280FF02C08695089580E0089580912A
:100D70005402833018F48F5F8093540260915002C4
:100D80007091510280915202909153020C948D0601
:100D900080915402882319F081508093540260910D
:100DA00050027091510280915202909153020C9422
:100DB0008D0670E00C94850A6091030180915002C9
:100DC00080FF0AC08091020123E0829FC0011124AC
:100DD0008B5A9D4F0C94D906809104019091050186
:100DE00023E0829FF0011124EB5AFD4F891750F741
:100DF0001182108212828F5F3396F8CF9091500249
:100E000090FF14C0909104012091050133E0939F5D
:100E1000F0011124EB5AFD4F921710F00C94DC06F0
:100E20008183608342839F5F3396F6CF0895CF938B
:100E3000DF9300D00F92CDB7DEB79091500290FFB4
:100E40000AC09E012F5F3F4F0E946E064B81698151
:100E50008A810E94FE060F900F900F90DF91CF9134
:100E60000895CF93DF93EC01E0E5F2E043816281E6
:100E70008C810E9417078C818F5F8C83DF91CF91CB
:100E80000895EF92FF920F931F93CF93DF9300D0BB
:100E90000F92CDB7DEB7182FF62E042FE22E8091D9
:100EA000500280FF28C0E82FE695F0E0E45BFE4F9B
:100EB00090819093A2018E7F823039F59E012F5F41
:100EC0003F4F812F0E946E064B8169818A810E946B
:100ED000FE0610935102F092520200935302EE204C
:100EE00051F06091500270915102809152029091A4
:100EF00053020E948D060F900F900F90DF91CF91BB
:100F00001F910F91FF90EF900895923011F710917B
:100F10005102DFCFE0E5F2E09181282F4381628129
:100F20008AE0890F0C94410781E00C948A07E0E580
:100F3000F2E09181282F4381628186EF890F0C9422
:100F4000410781E00C949707E0E5F2E0628121E13E
:100F5000620F08F46FEF282F438181810C944107C1
:100F600081E00C94A407E0E5F2E0628121E1621BDC
:100F700008F460E0282F438181810C94410781E0CF
:100F80000C94B307E0E5F2E0438121E1420F08F45D
:100F90004FEF282F628181810C94410781E00C94EE
:100FA000C207E0E5F2E0438121E1421B08F440E0A2
:100FB000282F628181810C94410781E00C94D10734
:100FC00020E00C9441070F931F93CF93DF9300D041
:100FD0000F92CDB7DEB78C018091990181110AC0C3
:100FE0009E012F5F3F4F41EE6FEF0E946E068A8198
:100FF00080939901F8016481613069F080919901D1
:1010000040E0662361F040E0623011F440919901C4
:1010100080E060E004C06091990140E080E00E94BF
:10102000FE06F801848190E0019663E070E00E9482
:10103000802084830F900F900F90DF91CF911F91AC
:101040000F9108950F939091500290FF19C02017AF
:10105000B8F40430A8F493E0299FF0011124EB5A6E
:10106000FD4F8183608342832F5F33960213F9CF54
:101070000E94DC068FE99FE00197F1F700C00000B5
:101080000F9108950F931F93CF93DF9300D00F928A
:10109000CDB7DEB7122F9091500290FF0BC09E018A
:1010A0002F5F3F4F0E946E06212F4B8169818A81FD
:1010B0000E9422080F900F900F90DF91CF911F9107
:1010C0000F9108950F931F93CF93DF9380910401A5
:1010D0009091050123E0829FF0011124EB5AFD4F0E
:1010E000891740F1C0E0D3E060910601C61740F1D6
:1010F0000E94DC062091000180919A01820F80936A
:101100009A0190910101920F90930101191654F4E4
:10111000082E000C990B409106014150550B841785
:1011200095071CF0219520930001DF91CF911F912D
:101130000F9108951182108212828F5F3396D0CF63
:101140000C2F10E070E0C8010E9480202091040163
:10115000820F482F50E020919A01022E000C330B91
:1011600002171307BCF020910101022E000C330B73
:10117000201731077CF08D9F900111242B5A3D4F91
:101180004091530260915202809151020E946E067A
:10119000CF5FAACFFA01EE0FFF1FE40FF51FEB5A46
:1011A000FD4F118210821282F3CFE0E5F2E08081E0
:1011B0008E7F808360817181828193810E948D0600
:1011C0001092A3012FEF80E792E0215080409040E1
:1011D000E1F700C000000C94DC06609150026695B7
:1011E00070E041E050E087E091E00E949A20892B76
:1011F00019F481E08093A3010E94461990939C0109
:1012000080939B0108959091500290FF35C091709A
:10121000811128C0926090935002662351F0609132
:1012200050027091510280915202909153020E949B
:101230008D0660915002669570E041E050E087E0D5
:1012400091E00E949A20892BA1F01092A30181E0E5
:1012500080939E014091530260915202809151020D
:101260000C94E007893010F09061D5CF880F982B4F
:10127000D2CF0E94ED08EBCF0895682F90915002D5
:10128000969581E0890F893008F081E00C9403097C
:1012900081E00C943D09682F9091500296958FEF54
:1012A000890F09F488E00C94030981E00C944B0940
:1012B00061E00C940309E0E5F2E0808181608083C5
:1012C00086950C9458098091500280FD0C94D508A5
:1012D0000C945B0960E00C9403098091A1018111D9
:1012E0002EC00E946217811104C00E94FF170E9445
:1012F0009F060E948906609350027093510280936A
:101300005202909353026E7F61F40E949F060E94E6
:101310008906609350027093510280935202909319
:1013200053020E9473061092A3018091500280FF25
:1013300003C086950E946A0981E08093A101089507
:101340000F931F93CF93DF938091A301882309F418
:101350005BC08091A201E0915002E695E81BE0930A
:101360009D018230C1F5F0E0EB52FF4FE491CE2FAA
:10137000D0E001E317E080919E01882389F010926C
:101380009E010E9446199E0120953095820F931F61
:1013900090939C0180939B011092A00110929F0159
:1013A00080919B0190919C010E9452198C179D077E
:1013B00058F1E0919B01F0919C01CE0FDF1FD0937B
:1013C0009C01C0939B018BE991E0F801DF91CF91E3
:1013D0001F910F910994853049F4F0E0EE52FF4FD0
:1013E000E491CE2FD0E002E618E0C5CFC0EDD7E003
:1013F0000FE516E0883009F0BECFE0EDF0E0C591D2
:10140000D49103EE17E0B7CFDF91CF911F910F91E9
:101410000895FA01811101C0FB010994CF93DF9374
:10142000C82FD62F0E94AF068C1740F00E94AF063F
:101430008D1720F4DF91CF910C9448098C2FDF9108
:10144000CF910C9458090F931F93CF938C01FB01FC
:10145000C281CC2309F457C00E94B3168272F801EE
:10146000E25CFC45E431F10538F4EF50FF4D0C949B
:1014700094200E946309C0E08C2FCF911F910F919F
:10148000089545E559E068E479E00E94090AF3CF40
:1014900048E459E065E579E0F8CF41EA57E064E9CE
:1014A00077E0F3CF44E957E061EA77E0EECF4FEB26
:1014B00057E060EB77E0E9CF40EB57E06FEB77E088
:1014C000E4CF4DED57E06EEC77E0DFCF4EEC57E028
:1014D0006DED77E0DACF48EC56E067EB76E0D5CFFC
:1014E00047EB56E068EC76E0D0CF81E00E945809E7
:1014F000C2CF64E082E00E940E0ABDCF67E085E0C3
:10150000FACF88E0F3CFC1E0B7CF269A45B14F7B41
:1015100055B15064EFB7F8949B01220F331F260F8B
:10152000371F280F391F2817390741F4EFBF8FE500
:1015300094E00197F1F700C000000895DC016D917F
:10154000CD0178E055B9000000C067FF45B9660FCE
:10155000000000C000C000C045B900C07A9591F7F6
:10156000E2CF22982A9A23982B9A83B182FB88276C
:1015700080F91B9905C090E0892B8093A6010895FE
:1015800092E0FACFE091A601EE0FEE0FE093A601F4
:1015900043B142FB882780F943B143FB222720F95E
:1015A00043FF02C022E030E0822BE82BE093A6014B
:1015B000EF70F0E0EB5AFE4F80819091A501890F0A
:1015C0008093A50184304CF08091A4018F5F8093BB
:1015D000A40160E080E00E94D0018091A5018D3FD0
:1015E0004CF48091A40181508093A40161E080E0DB
:1015F0000E94D0018091A501837887FF03C08150AC
:101600008C6F8F5F8093A50108950F931F93CF93E5
:10161000DF93C62FD42F022FFC0182818823C9F0CB
:101620006093A9010E9446199093A8018093A70195
:1016300080E28C0F883008F050C0C77081E001C094
:10164000880FCA95EAF7DF91CF911F910F910C9403
:10165000C60E1091A901161335C08091A701909173
:10166000A8010E945219883C910560F5C0E2CD0F97
:101670001D17B9F080E2810F883040F4177081E0C7
:1016800001C0880F1A95EAF70E94CD0EC83048F4C1
:1016900081E09D2F977001C0880F9A95EAF70E940C
:1016A000C60E802F0E94B30EC830B8F4D77081E008
:1016B00001C0880FDA95EAF7DF91CF911F910F9162
:1016C0000C94CD0E80E28C0F883038F4C77081E026
:1016D00001C0880FCA95EAF7EFCFDF91CF911F9134
:1016E0000F9108959C01CB01233F4CE5340731F164
:1016F00090F4283DFCE53F07E9F0293D4CE534072F
:1017000069F1273D3C4579F426E241EE61EE0E9405
:10171000050B80E00895253FFCE53F07B9F090F008
:10172000263F3C45B9F0FC0182818823D1F010921C
:10173000A901089527E245EE65EEE9CF26E241EEE4
:1017400060EEE5CF27E245EE64EEE1CF26E241EE22
:1017500062EEDDCF27E245EE66EED9CF28E241E02A
:10176000EBCF81E00895CF93DF93EC01FB01828101
:10177000882309F419C1C230FCE5DF07C0F1C63186
:101780009CE5D90730F09E012A5F3C4529303105A0
:1017900070F50E9475179093630280936202C031C6
:1017A000ECE5DE0709F4CFC008F05BC0C8308CE57B
:1017B000D80709F4B6C088F5C430ECE5DE0709F4B3
:1017C000A8C0C0F4C2308CE5D80709F49CC0809151
:1017D00062028260C330DC4509F498C080916202E5
:1017E000909163020E9483170E94331180E0DF9181
:1017F000CF910895809162028061C630ECE5DE07EA
:1018000009F484C0809162028860C730DC4508F426
:101810007DC080916202806279C0CC308CE5D807AF
:1018200009F489C070F4809162028C60CA30ECE5E2
:10183000DE0709F46BC008F478C0809162028E7FE5
:1018400065C0CE308CE5D80709F479C0809162027A
:101850008B7FCF30DC4508F459C0809162028F7EC7
:1018600055C0CB3FECE5DE0709F457C030F5C33176
:101870008CE5D80709F46FC078F4C131ECE5DE07D8
:1018800009F465C0C231DC4509F0A8CF0E943311CC
:10189000809162028F773AC0C5318CE5D80709F490
:1018A00062C008F476C0809163028160CA3FDC4563
:1018B00009F094CF8093630291CFCF3FFCE5DF071F
:1018C00009F44DC088F4809163028D7FCD3F9CE583
:1018D000D90781F3809163028E7FCE3FDC4550F3C0
:1018E000809163028360E6CFC130FDE5DF0709F434
:1018F00059C008F444C080E0C230DD4509F06ECF25
:101900000E9401186BCF8091620281608093620215
:1019100065CF809162028460F9CF8091630282601A
:10192000C9CF809162028064F1CF0E94331180910F
:1019300062028068EBCF809162028D7FE7CF809159
:101940006202877FE3CF809162028F7DDFCF80913B
:1019500062028F7BDBCF80916202837FD7CF809141
:1019600063028C7FA7CF8091620282FB992790F956
:1019700021E0922790FB82F990FB83F9C7CF8091F9
:101980006302982F909591708E7F892B90FB81F93F
:1019900091CF0E94331190916202892F97FB87F9B2
:1019A0008058B4CF81E0ACCF81E021CFCF93DF93DB
:1019B000EB0186319C4511F50E94B3169A8199235B
:1019C00099F08A7A91E009F490E09093AA0181114C
:1019D00009C089E20E948E160E94FF1680E0DF9106
:1019E000CF91089585E3F6CF8091AA01811104C0BB
:1019F00089E20E949516F0CF85E3FBCF81E0EFCF1F
:101A00009093B0018093AF010895E091AF01F09100
:101A1000B001309721F00190F081E02D099480E031
:101A20000895E091AF01F091B001309799F02091C5
:101A30001401222359F02091620227FF07C0DC0124
:101A40002C9111962C93119725E02C930280F38111
:101A5000E02D099408952091AD013091AE01281731
:101A6000390771F09093AE018093AD01E091AF0121
:101A7000F091B001309721F00680F781E02D0994B4
:101A800008952091AB013091AC012817390771F00E
:101A90009093AC018093AB01E091AF01F091B00164
:101AA000309721F00084F185E02D0994089585B7E1
:101AB000806885BF85B7806885BF089508950895BB
:101AC0000C945E0D0C94D9010E94570D0E945F0D7D
:101AD0000C94600D81E008950C946A0D0E943D19EC
:101AE0000E94B9040E9496190E946D090E94B10AD1
:101AF0000C94620DAF92BF92CF92DF92EF92FF9261
:101B00000F931F93CF93DF93CDB7DEB72A970FB60E
:101B1000F894DEBF0FBECDBF0E9406050E946C0D7B
:101B2000882309F461C082EBA82E81E0B82E10E072
:101B300000E0C02E802F0E94AE04E82EF501D19067
:101B40005F01D81609F44AC08091250281FD0E94E8
:101B5000B40480E0FF24F394DE249D2D9F21C9F17D
:101B60008E83CF82EF2081E009F480E088870E9495
:101B700046198160782F9A8789874E815F816885B1
:101B80008A850E94160EF801EE54FE4F8081F826D9
:101B9000F0820E94A0090E94C20A0E94050D909145
:101BA000B101891791F10E94050D8093B1012A9628
:101BB0000FB6F894DEBF0FBECDBFDF91CF911F915E
:101BC0000F91FF90EF90DF90CF90BF90AF900C946B
:101BD00048028F5FFF0C833009F0BFCF0F5F1F4FAC
:101BE0000330110509F0A5CF8FEF89838A831B820B
:101BF0000E9446198160782F9D838C8349815A8188
:101C00006B818D810E94160EC4CF2A960FB6F89470
:101C1000DEBF0FBECDBFDF91CF911F910F91FF901F
:101C2000EF90DF90CF90BF90AF900895CF93DF9368
:101C3000CDB7DEB72B970FB6F894DEBF0FBECDBF82
:101C40004F83588769877A878B871E821D8285E03C
:101C5000FE013796DE01119601900D928A95E1F70B
:101C600049815A816B817C818D819E812B960FB633
:101C7000F894DEBF0FBECDBFDF91CF910C94A913B6
:101C8000FC01808191810C946016CF93C82F88232A
:101C900009F43FC08CEF8C0F813AA0F46C2F809137
:101CA0000801909109010E941A18882329F08C2FAD
:101CB0000E9495160E94FF168C2F0E948E16CF91BF
:101CC0000C94FF1680E28C0F883048F4C77081E0D6
:101CD00001C0880FCA95EAF70E94B616F0CFEBE56F
:101CE000EC0FE33040F4F0E0ED56FE4F808190E0E1
:101CF000CF910C942B0DC85AC73158F4EC2FF0E05B
:101D0000EE0FFF1FEB59FE4F80819181CF910C9414
:101D1000410DCF910895882329F19CEF980F913AB6
:101D200020F40E9495160C94FF1690E2980F9830BC
:101D300050F4877091E001C0990F8A95EAF7892FD6
:101D40000E94BC16F0CF9BE5980F933020F490E0F2
:101D500080E00C942B0D885A873120F490E080E0CD
:101D60000C94410D0895CF93C82F0E94450EC9339E
:101D700049F42FEF87EE93E0215080409040E1F747
:101D800000C000008C2FCF910C948B0E882321F083
:101D90000E94B6160C94FF160895882321F00E9425
:101DA000BC160C94FF160895BF92CF92DF92EF926B
:101DB000FF920F931F93CF93DF936C01D62FC72F02
:101DC000FC01058102950F70128111110E94D3163A
:101DD0000E94AC16E82E882391F01123D1F08C2FAD
:101DE000807F803421F080E28D0F883090F082E097
:101DF0000E944A170E94AC1691E0E82EE926BC2EFC
:101E0000B2949FE0B922EB2DF0E0EB5FFE4D0C9415
:101E10009420E12CF4CF0C2F0F70C07F11F00295AD
:101E2000007F1123A9F0002359F080E28D0F883044
:101E300010F0D11109C0802F0E94B6160E94FF1623
:101E40008D2F0E94450E14C0802F0E94C616F6CF1B
:101E50008D2F0E948B0E002359F080E28D0F883069
:101E600010F0D1112CC0802F0E94BC160E94FF16CA
:101E70002B2D2850330B2430310520F40E94050D02
:101E80000E944802EE2009F493C10E94A81680FD2A
:101E90008FC1F60112820E94A2160E942D15C60162
:101EA0000E94F9100E94A216DF91CF911F910F910D
:101EB000FF90EF90DF90CF90BF900C944E15802F45
:101EC0000E94CC16D3CFFC2FFF70FF2EC07FC032F4
:101ED00019F0F29480EFF822DD2369F0D13049F156
:101EE000112391F1002351F1F601858180FFA8CFE4
:101EF0008F70858323C0112381F0011106C00E94D9
:101F0000E6168F290E94C60EB3CF0130C1F70E949A
:101F1000E6168F290E94EC16ABCF011106C00E9475
:101F2000F5168F2D0E94CD0EA3CF013009F4A0CF5E
:101F3000F6CF112329F0063008F09ACF8F2DE2CF8B
:101F4000053008F095CFEDCF002359F3D93349F48C
:101F5000FFEF27EE33E0F15020403040E1F700C0C2
:101F600000008D2F0E948B0E83CF8C2F8695869537
:101F7000837069F0813009F07BCF8D2F9C2F937097
:101F8000111102C090E080E00E94410D71CF8D2FB1
:101F90009C2F9370111102C090E080E00E942B0DE5
:101FA00067CF8C2F837009F041C0111161CF4D2F85
:101FB000429546954770440F440F0D2F0F7010E067
:101FC00030E020E0042E04C0000F111F221F331F39
:101FD0000A94D2F760E070E0CB01D4FF0FC06FE04D
:101FE00070E080E090E004C0660F771F881F991FA3
:101FF0004A95D2F76095709580959095C695C6954F
:10200000C370602B712B822B932BC23049F058F494
:10201000C13019F00E94DF142BCF0E94CD1428CFBD
:102020000E94F11425CF0E94CB1422CF8695112354
:1020300011F08C2F8170882309F41ACF4D2F42950F
:1020400046954770440F440F0D2F0F7010E030E09D
:1020500020E0042E04C0000F111F221F331F0A941A
:10206000D2F760E070E0CB01D4FF0FC06FE070E00A
:1020700080E090E004C0660F771F881F991F4A9583
:10208000D2F76095709580959095C695C695C3706A
:10209000602B712B822B932BC23049F058F4C13046
:1020A00019F00E94A415E4CE0E949215E1CE0E9480
:1020B000B615DECE0E940715DBCECF70112329F0B6
:1020C0008C2F0E942D158D2F1DCF8D2F0E94CD0E90
:1020D0008C2F0E944E15CCCED23F89F160F4D03FB8
:1020E000C9F0D13F29F1112309F442C00111A8CE52
:1020F0008C2F8F7121C0D33F39F1D43FA1F7112329
:1021000069F1CF718C2F0E942D1563E08C2F0E94F6
:102110003517AECE112341F0053008F0A9CE8C2F33
:102120008F710E947115A4CE063008F0A1CEF7CFB2
:102130008C2F8F71112369F20E942D1599CE8C2F4F
:102140008F711123C9F3C5CF112329F08C2F8F7103
:102150000E9418158DCE0E9413158ACE81E00E9430
:102160004A17023008F484CE82E00E944A1780CEDB
:10217000002359F0D93309F0F4CE8FEF97EEE3E066
:1021800081509040E040E1F7EACE8C2F8F71A1CFD3
:102190004C2F4F706D2FC6010E94A2020E94431463
:1021A00067CE4C2F4F706D2FC6010E94A50260CEE6
:1021B000DF91CF911F910F91FF90EF90DF90CF9023
:1021C000BF9008950F931F93CF93DF93EC01688125
:1021D00079818A810E946A168C010E94C8150E942A
:1021E000CA14B801CE01DF91CF911F910F910C94C9
:1021F000D40ECF93DF93EC018B819C81892B29F046
:102200008881998189238F3F59F4DF91CF91089577
:10221000CE010E94E210CE01DF91CF910C942C02EE
:10222000CE010E9460028111F3CF0E94AC16882378
:1022300061F38A81882349F382E0DF91CF910C9486
:102240004A170E94D3160E94E3160E94FF1690E0E0
:1022500080E00E942B0D90E080E00C94410D0E94E4
:102260009C160C9421110E94C3160C942F11E92F77
:10227000E295EF70E250EE3070F4F0E0EB5EFE4D70
:102280000C949420803F19F020F4883E20F481E0E3
:102290000895843FE1F380E00895883EC0F3813FD4
:1022A000D1F7F5CF93FB882780F908950E94601637
:1022B0000C943711CF93DF9300D000D00F92CDB79D
:1022C000DEB70F900F900F900F900F90DF91CF918E
:1022D0000895CF93DF9300D000D000D0CDB7DEB704
:1022E00026960FB6F894DEBF0FBECDBFDF91CF911B
:1022F00008951F93CF93DF93C091B60116E08091AC
:10230000B7018C1304C0DF91CF911F910895D0E0E5
:102310001C9FF0011D9FF00D1124E854FE4F4081D9
:10232000518162817381848195810E946911219616
:10233000C770E5CF4091E8015091E9016091EA0151
:102340007091EB018091EC019091ED010C94691179
:102350001F93CF93DF938091ED01807FA9F480914B
:10236000EA01882389F08091B601C091B70160919C
:10237000E8017091E901A091EB01B091EC01D62F39
:10238000D72316E0C81304C0DF91CF911F910895A1
:1023900090E0109711F0DF3F19F401968770F2CFAB
:1023A000189F9001199F300D1124F901E854FE4F38
:1023B00041814713F2CF40814613EFCF4281411153
:1023C000ECCF438154814A1B5B0B483C510528F7F5
:1023D0008091ED018F7080618093ED01F901E354EC
:1023E000FE4F80818F708061808388EE91E00E9433
:1023F000F910DF91CF911F910C947911AF92BF9298
:10240000CF92DF92EF92FF920F931F93CF93DF93C0
:10241000CDB7DEB761970FB6F894DEBF0FBECDBF64
:102420008C0185E0F801DE011D9601900D928A95E0
:10243000E1F7F80140815181E28088EEC82E81E009
:10244000D82E6091EB017091EC016115710509F4D2
:1024500061C19091E8012091E901892F82238F3F8A
:1024600009F458C1A380B480F090EA01F501E61B9D
:10247000F70BFF2009F4FCC08091ED01382F307F6D
:10248000E83CF10508F0B2C0311179C0FE2C2513EB
:1024900023C0941321C0E1101FC08F70806180930E
:1024A000ED010E949A11C6010E94F9108091ED0180
:1024B000F80185838F2D61960FB6F894DEBF0FBEAD
:1024C000CDBFDF91CF911F910F91FF90EF90DF90E3
:1024D000CF90BF90AF900895AB2829F0842F85232B
:1024E0008F3F09F033C180E0F82FF170DF2E80FFBD
:1024F0003CC08091B6012091B70136E0821315C02F
:102500004D875E878D859E850E946016292F2295B6
:102510002F702230F0F0243018F59F70F1F0F801A0
:102520009581907FD1F4D12C1EC090E0389FF001AE
:10253000399FF00D1124E854FE4F6181651306C0E8
:102540006081641303C062816E110FC001968770B1
:10255000D5CF9F7011F0882331F3805E883018F357
:10256000C8010E94F910FD2CA5CFEE2009F4A2CFDE
:102570008091ED0181608093ED01F12C9BCF2513BB
:1025800006C0941304C0F801EE2009F48DC04D87F5
:102590005E878D859E850E945611882319F1EE2055
:1025A00009F18091ED01803270F02091E8013091C5
:1025B000E90138872F831986BB86AA868C87CE01CE
:1025C00007960E94F91086E0F801A8EEB1E00190AC
:1025D0000D928A95E1F70E94A8110E949A11FF249A
:1025E000F39468CFC8010E94F910F9CF311113C0DC
:1025F0007A2DB98AA88A6E2D89890E945A1188EE8F
:1026000091E00E94F91086E0F60111928A95E9F7AF
:102610000E949A11B2CF25130FC094130DC0E11080
:102620000BC0F8018583C8010E94F91086E0F6010D
:1026300011928A95E9F73ECF4D875E878D859E85FD
:102640000E945611882371F2EE2061F28091ED0113
:10265000803208F4B8CF2091E8013091E9013A8343
:1026600029831B82BD82AC828E83CE010196A9CFC5
:10267000E83CF10508F041C0FE2CEE2009F4B2CF91
:1026800025132AC0941328C08091ED0180FD1BC042
:10269000982F907FC1F0F8018583903F31F0982FFB
:1026A000907F905F8F70892B8583C8010E94F910FD
:1026B00086E0F801A8EEB1E001900D928A95E1F76D
:1026C0000E949A11F7CE86E0F801A8EEB1E00190E1
:1026D0000D928A95E1F7EECE4D875E878D859E85BA
:1026E0000E94561181116FCF8091ED01816080931E
:1026F000ED01C8010E94F910DDCE7A2DB98AA88AB1
:102700006E2D89890E945A1186E0F60111928A95F0
:10271000E9F7D6CFEE2009F465CF4D875E878D852A
:102720009E850E945611F82E882309F45BCF86E01F
:10273000F801A8EEB1E001900D928A95E1F788EEDC
:1027400091E00E94400E0E94A811BACF81E08E2530
:10275000CBCE1F93CF93DF93CDB7DEB72C970FB6B9
:10276000F894DEBF0FBECDBF4F83588769877A8745
:102770008B879C87CE0107960E94FE11882369F003
:102780008A859B85892B39F04F815885842F852335
:102790008F3F09F071C016E05FC086E0FE013796FA
:1027A000DE01119601900D928A95E1F78A859B854D
:1027B000892B89F388859F8189238F3F61F320913D
:1027C000B70130E0C9010196877099274091B601A1
:1027D0004817190671F40E9433111092B701109234
:1027E000B60186E0E8EEF1E0DF011D928A95E9F797
:1027F000D2CF96E0929FD001939FB00D1124A854A0
:10280000BE4FFE01319601900D929A95E1F78093AB
:10281000B7010E947911BFCF819FC0011124885454
:102820009E4F0E94FE118823E9F0E091B6011E9FA1
:10283000F0011124E854FE4F40815181628173817F
:10284000848195810E9469118091B60190E0019682
:10285000877099278093B6018091B6019091B70156
:102860008913DACF2C960FB6F894DEBF0FBECDBF1A
:10287000DF91CF911F91089569857A858B859C851D
:102880000E94691188CFEF92FF920F931F93CF930D
:10289000DF938C01892B81F0F12CEE24E394E80185
:1028A0002196F8018491843770F4843008F05FC079
:1028B0008130B1F08230A1F1DF91CF911F910F9162
:1028C000FF90EF900895853709F44CC008F43DC09F
:1028D0009CE7980F903780F78F770E948B0E49C046
:1028E0000E5F1F4FFE01849190E2980F983060F4C4
:1028F0008770FE2D01C0FF0F8A95EAF78F2F0E9487
:10290000D6160E94FF1602C00E94450E8F2D8150E0
:1029100030F2EFE9FFE03197F1F700C00000F7CFA8
:102920000E5F1F4FFE01849190E2980F983050F493
:102930008770FE2D01C0FF0F8A95EAF78F2F0E9446
:10294000DC16DFCF0E948B0EE1CF0E5F1F4FFE0122
:10295000C491C150D8F28FE99FE00197F1F700C010
:102960000000F7CF0E5F1F4FFE01F490CFCF0E9403
:10297000450E8E01CBCF08950C94BB140E94BC145D
:102980006093FC017093FD018093FE019093FF0121
:102990000C94211108950C94BE140F931F93009171
:1029A000FC011091FD012091FE013091FF01602B8F
:1029B000712B822B932B1F910F910C94BE140F93AC
:1029C0001F930091FC011091FD012091FE013091B7
:1029D000FF0160237123822393231F910F910C9495
:1029E000BE140F931F930091FC011091FD012091E3
:1029F000FE013091FF0160277127822793271F91E5
:102A00000F910C94BE140C94BB140C9403150E94EB
:102A100005156093F8017093F9018093FA01909382
:102A2000FB010C94211160E070E0CB010C940715C0
:102A30000F931F9341E050E060E070E08A019B013A
:102A400004C0000F111F221F331F8A95D2F7C9013E
:102A5000B8011F910F910C9407150F931F9341E03C
:102A600050E060E070E004C0440F551F661F771F00
:102A70008A95D2F78091F8019091F901A091FA011D
:102A8000B091FB018A019B01082B192B2A2B3B2BB0
:102A9000C901B8011F910F910C9407150F931F9353
:102AA00041E050E060E070E004C0440F551F661F35
:102AB000771F8A95D2F7CB01BA0160957095809502
:102AC00090950091F8011091F9012091FA0130914F
:102AD000FB0160237123822393231F910F910C9498
:102AE00007150F931F9341E050E060E070E004C0D1
:102AF000440F551F661F771F8A95D2F78091F80102
:102B00009091F901A091FA01B091FB018A019B011A
:102B1000082719272A273B27C901B8011F910F91C0
:102B20000C9407150F931F930091F8011091F90170
:102B30002091FA013091FB01602B712B822B932B9A
:102B40001F910F910C9407150F931F930091F8019B
:102B50001091F9012091FA013091FB01602371235A
:102B6000822393231F910F910C9407150F931F93AA
:102B70000091F8011091F9012091FA013091FB01C7
:102B800060277127822793271F910F910C940715B7
:102B90000895E92FEE0F9E0F890F982F977041E04F
:102BA00001C0440F9A95EAF786958695869595E03B
:102BB000899FF0011124E251FE4F30E020E070E0E7
:102BC0005191DF011197CB01022E02C09695879596
:102BD0000A94E2F7817081958527842385278C9359
:102BE0002F5F3F4F2530310559F70895E92FEE0F3C
:102BF0009E0F890F982F977086958695869525E06C
:102C0000829FF0011124E251FE4F50E040E080E04D
:102C1000219130E0092E02C0369527950A94E2F7FB
:102C200021703327042E01C0220F0A94EAF7822B69
:102C30004F5F5F4F4530510559F70895BF92CF92CE
:102C4000DF92EF92FF920F931F93CF93DF938C014C
:102C5000C090F801D090F901E090FA01F090FB01EA
:102C60008091FC019091FD01A091FE01B091FF01C6
:102C7000C82AD92AEA2AFB2ACFE1D0E0BC2ED70104
:102C8000C6010C2E04C0B695A795979587950A9412
:102C9000D2F780FD0EC0219788F7B12C8B2DDF91E4
:102CA000CF911F910F91FF90EF90DF90CF90BF9049
:102CB0000895B8018C2F0E94C202019761F3EECFF4
:102CC000CF93DF93EC010E941E16BE01DF91CF91DE
:102CD0000C94C2021F93CF93DF93EB019091B50147
:102CE000992331F0CB01DF91CF911F910C946016A5
:102CF000882379F0CB010E941E16182F682FCE0171
:102D00000E94C915BE01812FDF91CF911F910C94B4
:102D1000C202CB010E94F615182FF4CF682F8091C4
:102D20000801909109010C949A18682F809108016C
:102D3000909109010C94A5188091080190910901C6
:102D40000C94B0188091000285958595859508951D
:102D5000809100028770089590910002977081E041
:102D600009F480E00895809124020895909124024E
:102D7000892B8093240208958095909124029823B2
:102D800090932402089510922402089590912302B2
:102D9000892B809323020895809590912302982394
:102DA0009093230208951092230208959091220295
:102DB000892B809322020895809590912202982376
:102DC00090932202089510922202089580910102A8
:102DD000089508950C94E91690910102981721F036
:102DE000809301020C94EA160895809101028823D1
:102DF00029F01092010280E00C94EA160895E09107
:102E00000801F0910901809124028083E09108017A
:102E1000F0910901808190912302892B8083E091B8
:102E20000801F0910901808190912202892B808311
:102E300090910102992381F0E0910801F09109013C
:102E40008081892B808380910801909109010E94E3
:102E5000061881110E94F5168091080190910901D0
:102E60000C94110D08950C94321798E0899F9001ED
:102E70001124622B609300020E942D1580910002A4
:102E80008595859585950C9433171092000280E006
:102E90000C9433179091000280958923809300024F
:102EA000282F277071F4282F082E000C330B92174F
:102EB000130639F08595859585950E944E150C94DD
:102EC0004517089590E080E00E94B52021E08C3EF7
:102ED0009E4F09F020E0822F089582E090E00C944C
:102EE000A72083E090E00C94A720CF9384E090E0AB
:102EF0000E94A720C82F81E290E00E94A720982F6F
:102F00008C2FCF910895CF93C92F682F84E090E044
:102F10000E94BB206C2F81E290E0CF910C94BB20EB
:102F2000AB01BC018FE090E00C94CD20AB01BC0163
:102F300083E190E00C94CD2060E070E0CB010C9434
:102F4000961760E070E0CB010E9490170C949C17DC
:102F50006CEE7EEF90E080E00E94D92060E082E09D
:102F600090E00E94BB2060E083E090E00E94BB20E4
:102F70001092FC011092FD011092FE011092FF01CF
:102F800060E084E090E00E94BB2060E081E290E09D
:102F90000E94BB2060E085E090E00E94BB2060E0E2
:102FA00086E090E00E94BB206FEF87E090E00E94F7
:102FB000BB2040E050E0BA0188E090E00E94CD20C4
:102FC00060E08DE090E00E94BB2040E050E0BA015C
:102FD00088E190E00E94CD2060E087E190E00E94CF
:102FE000BB2040E050E0BA018CE190E00E94CD208F
:102FF00060E080E290E00E94BB200C94A1170C944A
:10300000A817682F8EE090E00C94BB20FC0132964C
:1030100080911401882321F0809162029EE187FF54
:1030200096E080E0915008F4089521912223D1F395
:103030008F5FF8CF662301F1209114012223F1F074
:103040002091620227FF1AC0462F46954695469565
:103050004E3190F4677021E030E002C0220F331F40
:103060006A95E2F7840F911DFC01828190E028238C
:10307000392381E0232B69F480E00895FC01329626
:1030800008962191261721F0E817F907D1F7F4CF18
:1030900081E008959C01FC0132969FEF80E0419110
:1030A000461751F09F3F19F4411101C0982F8F5FCF
:1030B0008630A9F79F3F09F40895290F311D97FD28
:1030C0003A95F90162830895FC01329608962191A0
:1030D000261303C0DF0111971C92E817F907B9F70F
:1030E0000895E62FE695E695E695EE3168F4E80F4B
:1030F000F92FF11D677021E030E001C0220F6A95C1
:10310000EAF78281822B82830895E62FE695E69581
:10311000E695EE3170F4E80FF92FF11D677021E0AC
:1031200030E001C0220F6A95EAF7209582812823BA
:103130002283089520911401222329F02091620214
:1031400027FD0C9471180C944A1820911401222325
:1031500029F02091620227FD0C9485180C946418C4
:10316000FC01329680911401882351F08091620213
:1031700087FF06C08EE1DF011D928A95E9F7089569
:1031800086E0F9CF089508950C94C3180E94C418DE
:1031900080916802843049F11092260288E190E023
:1031A00020E40FB6F894A895809360000FBE20939A
:1031B000600080E00E9448020E94C41883B7817FAB
:1031C000846083BF83B7816083BF7894889583B719
:1031D0008E7F83BF0FB6F894A895809160008861B8
:1031E00080936000109260000FBE08950895CF9301
:1031F0000E94C2180E9406050E94F618C0E08C2F9B
:103200000E94AE04811105C0CF5FC330C1F7CF91DA
:10321000089581E0FCCF08950C940B190E9433119E
:103220000E94050D0E9448020C940C191F921FB6B3
:103230001F9211248F939F93AF93BF938091260287
:10324000811113C080915E0290915F02A091600293
:10325000B09161024196A11DB11D80935E029093D1
:103260005F02A0936002B0936102BF91AF919F9102
:103270008F911F901FBE1F90189582E084BD93E030
:1032800095BD9AEF97BD80936E0008952FB7F8947F
:1032900080915E0290915F02A0916002B091610204
:1032A0002FBF08959C014FB7F89480915E029091D2
:1032B0005F02A0916002B09161024FBF821B930B2D
:1032C000089578941F921FB61F9211248F939F9395
:1032D000AF93BF9380915E0290915F02A0916002D4
:1032E000B09161020196A11DB11D80935E02909381
:1032F0005F02A0936002B0936102BF91AF919F9172
:103300008F911F901FBE1F90189587E797E79093A6
:1033100001088093000888E19AE00FB6F894A89518
:10332000809360000FBE90936000FFCF0E946217F1
:10333000811102C00E94FF170E946D178093250221
:103340000E94751790936302809362020E94711726
:10335000682F70E090E080E00C94CB1480914702DD
:1033600008950895CF93DF9300D00F92CDB7DEB7C5
:1033700090916802943019F589837B836A8382E097
:103380008093E9008FEF9091E800815095FD06C091
:1033900095ED9A95F1F700008111F5CF8091E80045
:1033A00085FF0DC050E040E063E070E0CE01019683
:1033B0000E94DB1B8091E8008E778093E8000F90DD
:1033C0000F900F90DF91CF910895CF93DF93EC0191
:1033D0000E94BE1B823011F0843031F4BE0184E0C3
:1033E000DF91CF910C94B219DF91CF910895BC0178
:1033F00083E00C94B219CF93DF93EC010E94BE1BC3
:10340000823011F08430B9F5809114018823B1F134
:103410008091620287FF32C060E282E08093E9001F
:103420008FEF9091E800815095FD06C095ED9A953B
:10343000F1F700008111F5CF8091E80085FF1BC0F6
:103440008091140170E050E040E0811104C050E030
:1034500040E068E070E0CE010E94DB1B8091E80054
:103460008E778093E80080E2FE01A7E2B2E001904F
:103470000D928A95E1F7DF91CF91089568E081E0A0
:10348000CDCF80916702811109C00E946B1D0E94FF
:10349000C81D8091E20084608093E200089510923C
:1034A00067020895089508950C940E1942E061ECA6
:1034B00081E00E94E71C42E261EC82E00C94E71C90
:1034C00080916A02833009F45FC030F48130C1F129
:1034D000823009F49BC008958A3009F487C08B308C
:1034E00009F46DC0893009F04EC0809169028132C3
:1034F00009F049C080916D0290916E02029708F028
:1035000042C08091E800877F8093E8008091E800C6
:1035100082FF35C09091F3008091F200029729F468
:103520008091F1008B7F813021F48091F1008093B4
:1035300047028091E8008B778093E8000C941B1D74
:1035400080916902813AF9F48091E800877F809345
:10355000E80080916D0290916E02892B61F460E227
:1035600087E292E070E00E942A1C8091E8008B774D
:103570008093E800089560E090E080E0F3CF8091D0
:1035800068028111C3CF089580916902813AD9F709
:1035900080916D0290916E02892BA9F78091E800CD
:1035A000877F8093E8008091E80080FFFCCF8091C6
:1035B00014018093F1008091E8008E77BDCF809157
:1035C0006902813201F780916D0290916E02892B20
:1035D000D1F68091E800877F8093E8000E941B1D50
:1035E00080916B02809314010C94331180916902D5
:1035F000813249F68091E800877F8093E8000E943D
:103600001B1D80916C02809348020895809169028D
:10361000813A09F0B8CF8091E800877F8093E80075
:103620008091E80080FFFCCF80914802C2CF84B730
:10363000877F84BF0FB6F894A89580916000886159
:1036400080936000109260000FBE80E890E00FB69B
:10365000F89480936100909361000FBE0E94640D06
:103660000E946B1D0E94C81D8091E20084608093BF
:10367000E20078940E9451200E946E0D8AE091E051
:103680000E94000D80916802853019F00E947A0D29
:10369000F9CF0E94C61880916602882399F30E9490
:1036A000F718882379F30E94C51BECCF0C94581BA4
:1036B000292F33272330310519F168F421303105E2
:1036C00009F44AC02230310509F44BC090E080E093
:1036D00030E020E028C02132310579F12232310575
:1036E000A9F780E490E02EEC32E061157105D9F085
:1036F0008DE690E021E632E061307105A1F0E6CF81
:1037000099278130910599F0009741F08230910519
:1037100089F00397D9F6E8EDF1E002C0E0E1F2E0CC
:10372000849190E09F01FA01318320830895E2E0C3
:10373000F2E0F6CFEEEDF1E0F3CF89E090E026E2A3
:1037400032E06115710579F389E090E02FE332E012
:103750006130710541F3BACF82E190E02FE432E0AD
:10376000E2CF8BE390E024E132E0DDCF809168028C
:10377000843011F482E0089581E008958091490237
:10378000811102C00C94B61B089580E189BD82E1CD
:1037900089BD09B400FEFDCF8091D8008F7D809354
:1037A000D8008091E00082608093E0008091E0008A
:1037B00081FDFCCF0895AF92BF92CF92DF92FF922E
:1037C0000F931F93CF93DF936C01EB018A010E944B
:1037D0003A1DF82E811123C00115110539F0F801A9
:1037E00080819181C81BD90BC80ED91EB12CA12C88
:1037F0002097A9F08091E80085FD22C08091E80023
:103800008E778093E80001151105A1F0F801808101
:103810009181A80EB91EB182A08285E0F82E8F2D6D
:10382000DF91CF911F910F91FF90DF90CF90BF90CC
:10383000AF9008950E943A1D8823D1F2F82EEFCF61
:10384000F60181916F018093F1002197FFEFAF1A8C
:10385000BF0ACECFFC0180916F0290917002861753
:103860009707A0F06115710529F49091E8009E7703
:103870009093E80090E06115710551F4911108C032
:103880008091E80082FF34C080E00895BC01F2CF4F
:10389000809168028823C1F18530C1F18091E800F0
:1038A00083FD30C08091E80082FDEACF8091E8007E
:1038B00080FFE1CF8091F3002091F200382F611555
:1038C000710519F02830310558F091E028303105A4
:1038D00009F090E02091E8002E772093E800CBCF0C
:1038E00081918093F100615071092F5F3F4FE7CFC5
:1038F00080916802882341F0853041F08091E80092
:1039000083FFBECF81E0089582E0089583E00895AB
:10391000FC0180916F029091700286179707A0F0CA
:103920006115710529F48091E8008E778093E80095
:1039300090E06115710551F4911108C08091E80083
:1039400082FF35C080E00895BC01F2CF809168020B
:103950008823C9F18530C9F18091E80083FD31C029
:103960008091E80082FDEACF8091E80080FFE1CFFE
:103970008091F3002091F200382F6115710519F044
:103980002830310558F091E02830310509F090E0F9
:103990008091E8008E778093E800CBCF849180936C
:1039A000F1003196615071092F5F3F4FE6CF809152
:1039B0006802882341F0853041F08091E80083FF60
:1039C000BDCF81E0089582E0089583E00895982FA7
:1039D000973028F08F708093E90081E008959093EC
:1039E000E900242F762F50E0981731F07091EC0009
:1039F0002091ED005091F00021FD02C09F5FE8CFC3
:103A00003091EB003E7F3093EB003091ED003D7F35
:103A10003093ED003091EB0031603093EB00709308
:103A2000EC002093ED005093F0002091EE0027FD74
:103A3000E5CF80E008958091690287FF13C08091EF
:103A4000E80082FF06C08091E8008B778093E80051
:103A500004C0809168028111F2CF089580916802BC
:103A60008823D9F38091E80080FFF8CF8091E800A7
:103A70008E77ECCF2091E4003091E50095E6A90126
:103A80002091EC00822F817020FF06C08091E80019
:103A900080FF06C080E008952091E80022FD1AC052
:103AA00080916802882389F0853089F08091EB004D
:103AB00085FD0FC02091E4003091E50042175307C7
:103AC000F9F29150E1F684E0089582E0089583E0F0
:103AD000089581E008950E94D91D0E94E11DE0EE45
:103AE000F0E0808181608083E8EDF0E080818F7775
:103AF000808319BCA7EDB0E08C918E7F8C93808180
:103B00008F7E80831092670208950F931F93CF9347
:103B1000DF930E94D91D0E94E11DC8EDD0E088818D
:103B20008F77888388818068888388818F7D888368
:103B300019BC1092680210926402109266021092F0
:103B4000650200EE10E0F80180818B7F8083888120
:103B50008160888342E060E080E00E94E71CE1EE43
:103B6000F0E080818E7F8083E2EEF0E080818160F2
:103B70008083808188608083F80180818E7F80834C
:103B8000888180618883DF91CF911F910F91089583
:103B9000E8EDF0E080818F7E8083E7EDF0E08081CA
:103BA0008160808384E082BF81E0809367020C940F
:103BB000851DE8EDF0E080818E7F80831092E20029
:103BC00008951092DA001092E10008951F920F926A
:103BD0000FB60F9211242F933F934F935F936F93E0
:103BE0007F938F939F93AF93BF93EF93FF938091B6
:103BF000E10082FF0BC08091E20082FF07C080914C
:103C0000E1008B7F8093E1000E9450208091DA00D8
:103C100080FF19C08091D80080FF15C08091DA0024
:103C20008E7F8093DA008091D90080FF96C080E17A
:103C300089BD82E189BD09B400FEFDCF81E080939A
:103C400068020E94411A8091E10080FF19C08091B2
:103C5000E20080FF15C08091E2008E7F8093E20039
:103C60008091E20080618093E2008091D8008062C0
:103C70008093D80019BC85E0809368020E94531A93
:103C80008091E10084FF2BC08091E20084FF27C077
:103C900080E189BD82E189BD89B5982F917080FF4F
:103CA000FBCF8091D8008F7D8093D8008091E10078
:103CB0008F7E8093E1008091E2008F7E8093E2000E
:103CC0008091E20081608093E20080916402882309
:103CD00009F449C084E0809368020E94541A8091DC
:103CE000E10083FF29C08091E20083FF25C080911D
:103CF000E100877F8093E10082E080936802109268
:103D000064028091E1008E7F8093E1008091E20067
:103D10008E7F8093E2008091E20080618093E200D8
:103D200042E060E080E00E94E71C8091F000886043
:103D30008093F0000E94521AFF91EF91BF91AF91D2
:103D40009F918F917F916F915F914F913F912F91B3
:103D50000F900FBE0F901F90189519BC109268021B
:103D60000E944F1A70CF8091E30087FD93E09093FB
:103D70006802B3CF1F920F920FB60F9211242F93A8
:103D80003F934F935F936F937F938F939F93AF93E3
:103D9000BF93CF93DF93EF93FF93D091E900DF7050
:103DA0008091EC00C82FC17080FDC0E81092E9003E
:103DB0008091F000877F8093F00078940E94FE1E2F
:103DC0001092E9008091F00088608093F000CD2B84
:103DD000CF70C093E900FF91EF91DF91CF91BF9138
:103DE000AF919F918F917F916F915F914F913F9193
:103DF0002F910F900FBE0F901F9018951F93CF9388
:103E0000DF93CDB7DEB7AA970FB6F894DEBF0FBE2B
:103E1000CDBF89E692E02091F100FC012193CF0112
:103E2000F2E081379F07B9F70E94601A8091E8009D
:103E300083FF1EC18091690290916A029A3008F056
:103E400017C1E92FF0E0ED5DFE4D0C949420803811
:103E500099F0823809F00CC180916D028F70873023
:103E600008F006C18093E9008091EB0085FB88276C
:103E700080F91092E90006C0809165029091660277
:103E8000911182609091E800977F9093E800809371
:103E9000F1001092F1008091E8008E77E5C0882350
:103EA00009F4D3C0823009F0E3C080916B02811124
:103EB000D6C080916D028F702FEF280F263008F04A
:103EC000D7C08093E9002091EB0020FFC8C0933059
:103ED00031F48091EB0080628093EB00C0C0909140
:103EE000EB0090619093EB0021E030E001C0220FE5
:103EF0008A95EAF72093EA001092EA008091EB009D
:103F00008860EACF8111B4C010916B021F77809155
:103F1000E3008078812B8093E3008091E800877F25
:103F20008093E8000E941B1D8091E80080FFFCCF79
:103F30008091E30080688093E30082E0111183E0C8
:103F40008093680295C08058823008F091C08091BB
:103F50006B0290916C028C3D23E09207A1F583E007
:103F60008A838AE289834FB7F894DE01139620E0B2
:103F70003EE051E2E32FF0E050935700E49120FF40
:103F800003C0E295EF703F5FEF708E2F90E0EA3054
:103F9000C0F0C7968D939D932F5F243159F74FBF83
:103FA0008091E800877F8093E8006AE270E0CE01AC
:103FB00001960E942A1C8091E8008B778093E8008C
:103FC00057C0C096E7CF60916D0270916E02AE014E
:103FD0004F5F5F4F0E94561BBC01892B09F448C0FC
:103FE0009091E800977F9093E80089819A810E94E0
:103FF000881CE1CF8038E1F58091E800877F8093CD
:10400000E800809164028093F10045CF811130C0B7
:1040100090916B02923060F58091E800877F8093E9
:10402000E800909364020E941B1D80916402882323
:1040300011F084E005C08091E30087FDFACF81E0B4
:10404000809368020E94561A13C080916B028130DF
:1040500079F481E0933009F080E080936602109259
:10406000E9008091E800877F8093E8000E941B1D93
:104070008091E80083FF0AC08091E800877F8093E9
:10408000E8008091EB0080628093EB00AA960FB667
:10409000F894DEBF0FBECDBFDF91CF911F91089581
:1040A0000895CF93809168028823A1F0C091E90020
:1040B000CF709091EC00892F817090FD80E8C82B23
:1040C0001092E9008091E80083FD0E94FE1ECF70EF
:1040D000C093E900CF910895AA1BBB1B51E107C013
:1040E000AA1FBB1FA617B70710F0A61BB70B881F88
:1040F000991F5A95A9F780959095BC01CD01089517
:1041000097FB072E16F4009407D077FD09D00E9484
:104110006C2007FC05D03EF4909581959F4F089543
:10412000709561957F4F0895EE0FFF1F0590F491F4
:10413000E02D0994FC014150504030F001900616EA
:10414000D1F73197CF010895882799270895F999D4
:10415000FECF92BD81BDF89A992780B50895A6E15A
:10416000B0E044E050E00C94E120A8E1B0E042E08F
:1041700050E00C94E120262FF999FECF92BD81BD2D
:10418000F89A019700B4021639F01FBA20BD0FB695
:10419000F894FA9AF99A0FBE08950396272F0E9471
:1041A000BC200E94BB20252F0E94BC20242F0C94F1
:1041B000BC200196272F0E94BC200C94BB20DC0160
:1041C000CB01FC01F999FECF06C0F2BDE1BDF89A22
:1041D000319600B40D9241505040B8F70895F894CC
:1041E000FFCF390A410A480A4D0A520A570A5C0AA7
:1041F000610A660A6B0A700A750A3B0A790A3B0A69
:104200003B0A7E0A3B0A3B0A810A0B0F0B0F630F26
:10421000630FB50F380F380F380FD10F5D106C10CA
:104220006C10C810380F380FD110421142114B11C9
:104230004B114D114B114B114B11421142115211A7
:104240004B114B115211271F4F1F38204F1F382081
:0A425000821FA31F3820FA1F06206A
:10425A0001020003000303010202AE19FB19B1199E
:10426A00F719E51901E200E900EA00B500B600B75E
:10427A0000CD008301CC008A01920194012102231E
:10428A000224022502260227022A02B300B4006F82
:10429A000070008182833534C69190940001020235
:1042AA00020505050800FF0100010000FFFF0000EC
:1042BA00010001FF00E200E900EA00B500B600B71C
:1042CA0000CD008301CC008A0192019401210223CE
:1042DA000224022502260227022A02B300B4006F32
:0642EA00007000818283D8
:00000001FF
